{
  "_format": "hh-sol-artifact-1",
  "contractName": "FeeDistributorManager",
  "sourceName": "contracts/FeeDistributorManager.sol",
  "abi": [
    {
      "inputs": [
        {
          "internalType": "address",
          "name": "_factory",
          "type": "address"
        },
        {
          "internalType": "address",
          "name": "_votingEscrow",
          "type": "address"
        }
      ],
      "stateMutability": "nonpayable",
      "type": "constructor"
    },
    {
      "anonymous": false,
      "inputs": [
        {
          "indexed": false,
          "internalType": "uint8",
          "name": "version",
          "type": "uint8"
        }
      ],
      "name": "Initialized",
      "type": "event"
    },
    {
      "anonymous": false,
      "inputs": [
        {
          "indexed": true,
          "internalType": "address",
          "name": "previousOwner",
          "type": "address"
        },
        {
          "indexed": true,
          "internalType": "address",
          "name": "newOwner",
          "type": "address"
        }
      ],
      "name": "OwnershipTransferStarted",
      "type": "event"
    },
    {
      "anonymous": false,
      "inputs": [
        {
          "indexed": true,
          "internalType": "address",
          "name": "previousOwner",
          "type": "address"
        },
        {
          "indexed": true,
          "internalType": "address",
          "name": "newOwner",
          "type": "address"
        }
      ],
      "name": "OwnershipTransferred",
      "type": "event"
    },
    {
      "inputs": [],
      "name": "acceptOwnership",
      "outputs": [],
      "stateMutability": "nonpayable",
      "type": "function"
    },
    {
      "inputs": [
        {
          "internalType": "address",
          "name": "_token",
          "type": "address"
        }
      ],
      "name": "addFee",
      "outputs": [
        {
          "internalType": "address",
          "name": "",
          "type": "address"
        }
      ],
      "stateMutability": "nonpayable",
      "type": "function"
    },
    {
      "inputs": [
        {
          "internalType": "address",
          "name": "_addr",
          "type": "address"
        },
        {
          "internalType": "address[]",
          "name": "_validTokens",
          "type": "address[]"
        }
      ],
      "name": "claim",
      "outputs": [
        {
          "internalType": "uint256[]",
          "name": "",
          "type": "uint256[]"
        }
      ],
      "stateMutability": "nonpayable",
      "type": "function"
    },
    {
      "inputs": [
        {
          "internalType": "address",
          "name": "_addr",
          "type": "address"
        },
        {
          "internalType": "address[]",
          "name": "_validTokens",
          "type": "address[]"
        }
      ],
      "name": "claimableTokens",
      "outputs": [
        {
          "internalType": "uint256[]",
          "name": "",
          "type": "uint256[]"
        }
      ],
      "stateMutability": "view",
      "type": "function"
    },
    {
      "inputs": [
        {
          "internalType": "address",
          "name": "",
          "type": "address"
        }
      ],
      "name": "distributorByToken",
      "outputs": [
        {
          "internalType": "address",
          "name": "",
          "type": "address"
        }
      ],
      "stateMutability": "view",
      "type": "function"
    },
    {
      "inputs": [],
      "name": "factory",
      "outputs": [
        {
          "internalType": "address",
          "name": "",
          "type": "address"
        }
      ],
      "stateMutability": "view",
      "type": "function"
    },
    {
      "inputs": [],
      "name": "feeDistributorImpl",
      "outputs": [
        {
          "internalType": "address",
          "name": "",
          "type": "address"
        }
      ],
      "stateMutability": "view",
      "type": "function"
    },
    {
      "inputs": [],
      "name": "getValidTokens",
      "outputs": [
        {
          "internalType": "address[]",
          "name": "",
          "type": "address[]"
        }
      ],
      "stateMutability": "view",
      "type": "function"
    },
    {
      "inputs": [
        {
          "internalType": "address",
          "name": "_feeDistributorImpl",
          "type": "address"
        }
      ],
      "name": "initialize",
      "outputs": [],
      "stateMutability": "nonpayable",
      "type": "function"
    },
    {
      "inputs": [],
      "name": "owner",
      "outputs": [
        {
          "internalType": "address",
          "name": "",
          "type": "address"
        }
      ],
      "stateMutability": "view",
      "type": "function"
    },
    {
      "inputs": [],
      "name": "pendingOwner",
      "outputs": [
        {
          "internalType": "address",
          "name": "",
          "type": "address"
        }
      ],
      "stateMutability": "view",
      "type": "function"
    },
    {
      "inputs": [],
      "name": "proxyAdmin",
      "outputs": [
        {
          "internalType": "contract ProxyAdmin",
          "name": "",
          "type": "address"
        }
      ],
      "stateMutability": "view",
      "type": "function"
    },
    {
      "inputs": [],
      "name": "renounceOwnership",
      "outputs": [],
      "stateMutability": "nonpayable",
      "type": "function"
    },
    {
      "inputs": [
        {
          "internalType": "address",
          "name": "_feeDistributorImpl",
          "type": "address"
        }
      ],
      "name": "setFeeDistributorImpl",
      "outputs": [],
      "stateMutability": "nonpayable",
      "type": "function"
    },
    {
      "inputs": [
        {
          "internalType": "address[]",
          "name": "_validTokens",
          "type": "address[]"
        }
      ],
      "name": "setValidTokens",
      "outputs": [],
      "stateMutability": "nonpayable",
      "type": "function"
    },
    {
      "inputs": [
        {
          "internalType": "address",
          "name": "newOwner",
          "type": "address"
        }
      ],
      "name": "transferOwnership",
      "outputs": [],
      "stateMutability": "nonpayable",
      "type": "function"
    },
    {
      "inputs": [
        {
          "internalType": "address",
          "name": "_token",
          "type": "address"
        }
      ],
      "name": "upgradeProxy",
      "outputs": [],
      "stateMutability": "nonpayable",
      "type": "function"
    },
    {
      "inputs": [
        {
          "internalType": "uint256",
          "name": "",
          "type": "uint256"
        }
      ],
      "name": "validTokens",
      "outputs": [
        {
          "internalType": "address",
          "name": "",
          "type": "address"
        }
      ],
      "stateMutability": "view",
      "type": "function"
    },
    {
      "inputs": [],
      "name": "votingEscrow",
      "outputs": [
        {
          "internalType": "address",
          "name": "",
          "type": "address"
        }
      ],
      "stateMutability": "view",
      "type": "function"
    }
  ],
  "bytecode": "0x60c06040523480156200001157600080fd5b5060405162002b8e38038062002b8e833981016040819052620000349162000134565b6200003e62000056565b6001600160a01b039182166080521660a0526200016c565b600054610100900460ff1615620000c35760405162461bcd60e51b815260206004820152602760248201527f496e697469616c697a61626c653a20636f6e747261637420697320696e697469604482015266616c697a696e6760c81b606482015260840160405180910390fd5b60005460ff9081161462000115576000805460ff191660ff9081179091556040519081527f7f26b83ff96e1f2b6a682f133852f6798a09c465da95921460cefb38474024989060200160405180910390a15b565b80516001600160a01b03811681146200012f57600080fd5b919050565b600080604083850312156200014857600080fd5b620001538362000117565b9150620001636020840162000117565b90509250929050565b60805160a0516129ee620001a0600039600081816101d801526104a001526000818161028e015261038d01526129ee6000f3fe60806040523480156200001157600080fd5b50600436106200016c5760003560e01c80638da5cb5b11620000dd578063d94c4eef116200008b578063e93d1899116200006e578063e93d18991462000309578063e9d3d16a1462000335578063f2fde38b146200034c57600080fd5b8063d94c4eef14620002e0578063e30c397814620002f757600080fd5b8063c45a015511620000c0578063c45a01551462000288578063c4d66de814620002b0578063c4efd36f14620002c757600080fd5b80638da5cb5b146200025f5780638e2eba09146200027157600080fd5b8063715018a6116200013b57806379ba5097116200011e57806379ba5097146200021b5780638a403ca514620002255780638d0253d4146200024b57600080fd5b8063715018a614620001fa57806374474d28146200020457600080fd5b80633e47158c1462000171578063423f467e14620001a25780634421697f14620001bb5780634f2bfe5b14620001d2575b600080fd5b60975462000185906001600160a01b031681565b6040516001600160a01b0390911681526020015b60405180910390f35b620001b9620001b336600462000fbe565b62000363565b005b62000185620001cc3660046200101a565b62000380565b620001857f000000000000000000000000000000000000000000000000000000000000000081565b620001b962000553565b620001b9620002153660046200101a565b6200056b565b620001b96200071d565b6200023c6200023636600462001041565b620007af565b6040516200019991906200109c565b60985462000185906001600160a01b031681565b6033546001600160a01b031662000185565b6200023c6200028236600462001041565b62000910565b620001857f000000000000000000000000000000000000000000000000000000000000000081565b620001b9620002c13660046200101a565b62000a68565b620002d162000bed565b604051620001999190620010e2565b620001b9620002f13660046200101a565b62000c51565b6065546001600160a01b031662000185565b620001856200031a3660046200101a565b609a602052600090815260409020546001600160a01b031681565b620001856200034636600462001125565b62000c7d565b620001b96200035d3660046200101a565b62000ca8565b6200036d62000d1c565b6200037b6099838362000ed4565b505050565b6000336001600160a01b037f00000000000000000000000000000000000000000000000000000000000000001614620004005760405162461bcd60e51b815260206004820152600f60248201527f7065726d697373696f6e2064656e79000000000000000000000000000000000060448201526064015b60405180910390fd5b6001600160a01b038083166000908152609a602052604090205416806200054d576098546097546040516001600160a01b039283169290911690620004459062000f3c565b6001600160a01b03928316815291166020820152606060408201819052600090820152608001604051809103906000f08015801562000488573d6000803e3d6000fd5b506040516306b0729b60e31b81526001600160a01b037f00000000000000000000000000000000000000000000000000000000000000008116600483015242602483015285811660448301523060648301529192509082169063358394d890608401600060405180830381600087803b1580156200050557600080fd5b505af11580156200051a573d6000803e3d6000fd5b505050506001600160a01b038381166000908152609a6020526040902080546001600160a01b0319169183169190911790555b92915050565b6200055d62000d1c565b62000569600062000d78565b565b6200057562000d1c565b6001600160a01b038082166000908152609a602052604090205416806200059b57600080fd5b60975460405163f3b7dead60e01b81526001600160a01b03838116600483015290911690819063f3b7dead90602401602060405180830381865afa158015620005e8573d6000803e3d6000fd5b505050506040513d601f19601f820116820180604052508101906200060e91906200113f565b6001600160a01b0316146200062257600080fd5b6098546097546040516310270e3d60e11b81526001600160a01b038481166004830152928316929091169063204e1c7a90602401602060405180830381865afa15801562000674573d6000803e3d6000fd5b505050506040513d601f19601f820116820180604052508101906200069a91906200113f565b6001600160a01b031603620006ae57600080fd5b60975460985460405163266a23b160e21b81526001600160a01b03848116600483015291821660248201529116906399a88ec490604401600060405180830381600087803b1580156200070057600080fd5b505af115801562000715573d6000803e3d6000fd5b505050505050565b60655433906001600160a01b03168114620007a15760405162461bcd60e51b815260206004820152602960248201527f4f776e61626c6532537465703a2063616c6c6572206973206e6f74207468652060448201527f6e6577206f776e657200000000000000000000000000000000000000000000006064820152608401620003f7565b620007ac8162000d78565b50565b606060008267ffffffffffffffff811115620007cf57620007cf6200115f565b604051908082528060200260200182016040528015620007f9578160200160208202803683370190505b50905060005b8381101562000907576000609a600087878581811062000823576200082362001175565b90506020020160208101906200083a91906200101a565b6001600160a01b0390811682526020820192909252604001600020541690508015620008f157604051630f41a04d60e11b81526001600160a01b038881166004830152821690631e83409a906024016020604051808303816000875af1158015620008a9573d6000803e3d6000fd5b505050506040513d601f19601f82011682018060405250810190620008cf91906200118b565b838381518110620008e457620008e462001175565b6020026020010181815250505b5080620008fe81620011a5565b915050620007ff565b50949350505050565b606060008267ffffffffffffffff8111156200093057620009306200115f565b6040519080825280602002602001820160405280156200095a578160200160208202803683370190505b50905060005b8381101562000907576000609a600087878581811062000984576200098462001175565b90506020020160208101906200099b91906200101a565b6001600160a01b039081168252602082019290925260400160002054169050801562000a5257604051630f41a04d60e11b81526001600160a01b038881166004830152821690631e83409a906024016020604051808303816000875af115801562000a0a573d6000803e3d6000fd5b505050506040513d601f19601f8201168201806040525081019062000a3091906200118b565b83838151811062000a455762000a4562001175565b6020026020010181815250505b508062000a5f81620011a5565b91505062000960565b600054610100900460ff161580801562000a895750600054600160ff909116105b8062000aa55750303b15801562000aa5575060005460ff166001145b62000b195760405162461bcd60e51b815260206004820152602e60248201527f496e697469616c697a61626c653a20636f6e747261637420697320616c72656160448201527f647920696e697469616c697a65640000000000000000000000000000000000006064820152608401620003f7565b6000805460ff19166001179055801562000b3d576000805461ff0019166101001790555b62000b4762000d93565b60405162000b559062000f4a565b604051809103906000f08015801562000b72573d6000803e3d6000fd5b50609780546001600160a01b03199081166001600160a01b039384161790915560988054909116918416919091179055801562000be9576000805461ff0019169055604051600181527f7f26b83ff96e1f2b6a682f133852f6798a09c465da95921460cefb38474024989060200160405180910390a15b5050565b6060609980548060200260200160405190810160405280929190818152602001828054801562000c4757602002820191906000526020600020905b81546001600160a01b0316815260019091019060200180831162000c28575b5050505050905090565b62000c5b62000d1c565b609880546001600160a01b0319166001600160a01b0392909216919091179055565b6099818154811062000c8e57600080fd5b6000918252602090912001546001600160a01b0316905081565b62000cb262000d1c565b606580546001600160a01b0383166001600160a01b0319909116811790915562000ce46033546001600160a01b031690565b6001600160a01b03167f38d16b8cac22d99fc7c124b9cd0de2d3fa1faef420bfe791d8c362d765e2270060405160405180910390a350565b6033546001600160a01b03163314620005695760405162461bcd60e51b815260206004820181905260248201527f4f776e61626c653a2063616c6c6572206973206e6f7420746865206f776e65726044820152606401620003f7565b606580546001600160a01b0319169055620007ac8162000e0a565b600054610100900460ff1662000e005760405162461bcd60e51b815260206004820152602b60248201527f496e697469616c697a61626c653a20636f6e7472616374206973206e6f74206960448201526a6e697469616c697a696e6760a81b6064820152608401620003f7565b6200056962000e5c565b603380546001600160a01b038381166001600160a01b0319831681179093556040519116919082907f8be0079c531659141344cd1fd0a4f28419497f9722a3daafe3b4186f6b6457e090600090a35050565b600054610100900460ff1662000ec95760405162461bcd60e51b815260206004820152602b60248201527f496e697469616c697a61626c653a20636f6e7472616374206973206e6f74206960448201526a6e697469616c697a696e6760a81b6064820152608401620003f7565b620005693362000d78565b82805482825590600052602060002090810192821562000f2a579160200282015b8281111562000f2a5781546001600160a01b0319166001600160a01b0384351617825560209092019160019091019062000ef5565b5062000f3892915062000f58565b5090565b610f6380620011ce83390190565b610888806200213183390190565b5b8082111562000f38576000815560010162000f59565b60008083601f84011262000f8257600080fd5b50813567ffffffffffffffff81111562000f9b57600080fd5b6020830191508360208260051b850101111562000fb757600080fd5b9250929050565b6000806020838503121562000fd257600080fd5b823567ffffffffffffffff81111562000fea57600080fd5b62000ff88582860162000f6f565b90969095509350505050565b6001600160a01b0381168114620007ac57600080fd5b6000602082840312156200102d57600080fd5b81356200103a8162001004565b9392505050565b6000806000604084860312156200105757600080fd5b8335620010648162001004565b9250602084013567ffffffffffffffff8111156200108157600080fd5b6200108f8682870162000f6f565b9497909650939450505050565b6020808252825182820181905260009190848201906040850190845b81811015620010d657835183529284019291840191600101620010b8565b50909695505050505050565b6020808252825182820181905260009190848201906040850190845b81811015620010d65783516001600160a01b031683529284019291840191600101620010fe565b6000602082840312156200113857600080fd5b5035919050565b6000602082840312156200115257600080fd5b81516200103a8162001004565b634e487b7160e01b600052604160045260246000fd5b634e487b7160e01b600052603260045260246000fd5b6000602082840312156200119e57600080fd5b5051919050565b600060018201620011c657634e487b7160e01b600052601160045260246000fd5b506001019056fe608060405260405162000f6338038062000f63833981016040819052620000269162000507565b82816200005560017f360894a13ba1a3210667c828492db98dca3e2076cc3735a920a3ca505d382bbd620005e7565b60008051602062000f1c833981519152146200007557620000756200060d565b6200008382826000620000e7565b50620000b3905060017fb53127684a568b3173ae13b9f8a6016e243e63b6e8ee1178d6a717850b5d6104620005e7565b60008051602062000efc83398151915214620000d357620000d36200060d565b620000de8262000124565b50505062000676565b620000f2836200017f565b600082511180620001005750805b156200011f576200011d8383620001c160201b6200023e1760201c565b505b505050565b7f7e644d79422f17c01e4894b5f4f588d331ebfa28653d42ae832dc59e38c9798f6200014f620001f0565b604080516001600160a01b03928316815291841660208301520160405180910390a16200017c8162000229565b50565b6200018a81620002de565b6040516001600160a01b038216907fbc7cd75a20ee27fd9adebab32041f755214dbc6bffa90cc0225b39da2e5c2d3b90600090a250565b6060620001e9838360405180606001604052806027815260200162000f3c6027913962000381565b9392505050565b60006200021a60008051602062000efc83398151915260001b6200045e60201b620001fa1760201c565b546001600160a01b0316919050565b6001600160a01b038116620002945760405162461bcd60e51b815260206004820152602660248201527f455243313936373a206e65772061646d696e20697320746865207a65726f206160448201526564647265737360d01b60648201526084015b60405180910390fd5b80620002bd60008051602062000efc83398151915260001b6200045e60201b620001fa1760201c565b80546001600160a01b0319166001600160a01b039290921691909117905550565b620002f4816200046160201b6200026a1760201c565b620003585760405162461bcd60e51b815260206004820152602d60248201527f455243313936373a206e657720696d706c656d656e746174696f6e206973206e60448201526c1bdd08184818dbdb9d1c9858dd609a1b60648201526084016200028b565b80620002bd60008051602062000f1c83398151915260001b6200045e60201b620001fa1760201c565b6060833b620003e25760405162461bcd60e51b815260206004820152602660248201527f416464726573733a2064656c65676174652063616c6c20746f206e6f6e2d636f6044820152651b9d1c9858dd60d21b60648201526084016200028b565b600080856001600160a01b031685604051620003ff919062000623565b600060405180830381855af49150503d80600081146200043c576040519150601f19603f3d011682016040523d82523d6000602084013e62000441565b606091505b5090925090506200045482828662000467565b9695505050505050565b90565b3b151590565b6060831562000478575081620001e9565b825115620004895782518084602001fd5b8160405162461bcd60e51b81526004016200028b919062000641565b80516001600160a01b0381168114620004bd57600080fd5b919050565b634e487b7160e01b600052604160045260246000fd5b60005b83811015620004f5578181015183820152602001620004db565b838111156200011d5750506000910152565b6000806000606084860312156200051d57600080fd5b6200052884620004a5565b92506200053860208501620004a5565b60408501519092506001600160401b03808211156200055657600080fd5b818601915086601f8301126200056b57600080fd5b815181811115620005805762000580620004c2565b604051601f8201601f19908116603f01168101908382118183101715620005ab57620005ab620004c2565b81604052828152896020848701011115620005c557600080fd5b620005d8836020830160208801620004d8565b80955050505050509250925092565b6000828210156200060857634e487b7160e01b600052601160045260246000fd5b500390565b634e487b7160e01b600052600160045260246000fd5b6000825162000637818460208701620004d8565b9190910192915050565b602081526000825180602084015262000662816040850160208701620004d8565b601f01601f19169190910160400192915050565b61087680620006866000396000f3fe60806040526004361061005e5760003560e01c80635c60da1b116100435780635c60da1b146100a85780638f283970146100d9578063f851a440146100f95761006d565b80633659cfe6146100755780634f1ef286146100955761006d565b3661006d5761006b61010e565b005b61006b61010e565b34801561008157600080fd5b5061006b610090366004610700565b610128565b61006b6100a336600461071b565b610165565b3480156100b457600080fd5b506100bd6101cc565b6040516001600160a01b03909116815260200160405180910390f35b3480156100e557600080fd5b5061006b6100f4366004610700565b6101fd565b34801561010557600080fd5b506100bd61021d565b610116610270565b610126610121610305565b61030f565b565b610130610333565b6001600160a01b0316330361015d5761015a81604051806020016040528060008152506000610366565b50565b61015a61010e565b61016d610333565b6001600160a01b031633036101c4576101bf8383838080601f01602080910402602001604051908101604052809392919081815260200183838082843760009201919091525060019250610366915050565b505050565b6101bf61010e565b60006101d6610333565b6001600160a01b031633036101f2576101ed610305565b905090565b6101fa61010e565b90565b610205610333565b6001600160a01b0316330361015d5761015a81610391565b6000610227610333565b6001600160a01b031633036101f2576101ed610333565b6060610263838360405180606001604052806027815260200161081a602791396103e5565b9392505050565b3b151590565b610278610333565b6001600160a01b031633036101265760405162461bcd60e51b815260206004820152604260248201527f5472616e73706172656e745570677261646561626c6550726f78793a2061646d60448201527f696e2063616e6e6f742066616c6c6261636b20746f2070726f78792074617267606482015261195d60f21b608482015260a4015b60405180910390fd5b60006101ed6104d0565b3660008037600080366000845af43d6000803e80801561032e573d6000f35b3d6000fd5b60007fb53127684a568b3173ae13b9f8a6016e243e63b6e8ee1178d6a717850b5d61035b546001600160a01b0316919050565b61036f836104f8565b60008251118061037c5750805b156101bf5761038b838361023e565b50505050565b7f7e644d79422f17c01e4894b5f4f588d331ebfa28653d42ae832dc59e38c9798f6103ba610333565b604080516001600160a01b03928316815291841660208301520160405180910390a161015a81610538565b6060833b61045b5760405162461bcd60e51b815260206004820152602660248201527f416464726573733a2064656c65676174652063616c6c20746f206e6f6e2d636f60448201527f6e7472616374000000000000000000000000000000000000000000000000000060648201526084016102fc565b600080856001600160a01b03168560405161047691906107ca565b600060405180830381855af49150503d80600081146104b1576040519150601f19603f3d011682016040523d82523d6000602084013e6104b6565b606091505b50915091506104c6828286610610565b9695505050505050565b60007f360894a13ba1a3210667c828492db98dca3e2076cc3735a920a3ca505d382bbc610357565b61050181610649565b6040516001600160a01b038216907fbc7cd75a20ee27fd9adebab32041f755214dbc6bffa90cc0225b39da2e5c2d3b90600090a250565b6001600160a01b0381166105b45760405162461bcd60e51b815260206004820152602660248201527f455243313936373a206e65772061646d696e20697320746865207a65726f206160448201527f646472657373000000000000000000000000000000000000000000000000000060648201526084016102fc565b807fb53127684a568b3173ae13b9f8a6016e243e63b6e8ee1178d6a717850b5d61035b80547fffffffffffffffffffffffff0000000000000000000000000000000000000000166001600160a01b039290921691909117905550565b6060831561061f575081610263565b82511561062f5782518084602001fd5b8160405162461bcd60e51b81526004016102fc91906107e6565b803b6106bd5760405162461bcd60e51b815260206004820152602d60248201527f455243313936373a206e657720696d706c656d656e746174696f6e206973206e60448201527f6f74206120636f6e74726163740000000000000000000000000000000000000060648201526084016102fc565b807f360894a13ba1a3210667c828492db98dca3e2076cc3735a920a3ca505d382bbc6105d7565b80356001600160a01b03811681146106fb57600080fd5b919050565b60006020828403121561071257600080fd5b610263826106e4565b60008060006040848603121561073057600080fd5b610739846106e4565b9250602084013567ffffffffffffffff8082111561075657600080fd5b818601915086601f83011261076a57600080fd5b81358181111561077957600080fd5b87602082850101111561078b57600080fd5b6020830194508093505050509250925092565b60005b838110156107b95781810151838201526020016107a1565b8381111561038b5750506000910152565b600082516107dc81846020870161079e565b9190910192915050565b602081526000825180602084015261080581604085016020870161079e565b601f01601f1916919091016040019291505056fe416464726573733a206c6f772d6c6576656c2064656c65676174652063616c6c206661696c6564a26469706673582212205a43a86caf64c3cfd85e5eb3839f8a536b53fca5acc6b96a1aa75ad6f63801c064736f6c634300080e0033b53127684a568b3173ae13b9f8a6016e243e63b6e8ee1178d6a717850b5d6103360894a13ba1a3210667c828492db98dca3e2076cc3735a920a3ca505d382bbc416464726573733a206c6f772d6c6576656c2064656c65676174652063616c6c206661696c6564608060405234801561001057600080fd5b5061001a3361001f565b61006f565b600080546001600160a01b038381166001600160a01b0319831681178455604051919092169283917f8be0079c531659141344cd1fd0a4f28419497f9722a3daafe3b4186f6b6457e09190a35050565b61080a8061007e6000396000f3fe60806040526004361061007b5760003560e01c80639623609d1161004e5780639623609d1461011157806399a88ec414610124578063f2fde38b14610144578063f3b7dead1461016457600080fd5b8063204e1c7a14610080578063715018a6146100bc5780637eff275e146100d35780638da5cb5b146100f3575b600080fd5b34801561008c57600080fd5b506100a061009b366004610608565b610184565b6040516001600160a01b03909116815260200160405180910390f35b3480156100c857600080fd5b506100d1610215565b005b3480156100df57600080fd5b506100d16100ee36600461062c565b610280565b3480156100ff57600080fd5b506000546001600160a01b03166100a0565b6100d161011f36600461067b565b61033a565b34801561013057600080fd5b506100d161013f36600461062c565b6103fb565b34801561015057600080fd5b506100d161015f366004610608565b610483565b34801561017057600080fd5b506100a061017f366004610608565b610565565b6000806000836001600160a01b03166040516101aa90635c60da1b60e01b815260040190565b600060405180830381855afa9150503d80600081146101e5576040519150601f19603f3d011682016040523d82523d6000602084013e6101ea565b606091505b5091509150816101f957600080fd5b8080602001905181019061020d9190610751565b949350505050565b6000546001600160a01b031633146102745760405162461bcd60e51b815260206004820181905260248201527f4f776e61626c653a2063616c6c6572206973206e6f7420746865206f776e657260448201526064015b60405180910390fd5b61027e600061058b565b565b6000546001600160a01b031633146102da5760405162461bcd60e51b815260206004820181905260248201527f4f776e61626c653a2063616c6c6572206973206e6f7420746865206f776e6572604482015260640161026b565b6040516308f2839760e41b81526001600160a01b038281166004830152831690638f283970906024015b600060405180830381600087803b15801561031e57600080fd5b505af1158015610332573d6000803e3d6000fd5b505050505050565b6000546001600160a01b031633146103945760405162461bcd60e51b815260206004820181905260248201527f4f776e61626c653a2063616c6c6572206973206e6f7420746865206f776e6572604482015260640161026b565b60405163278f794360e11b81526001600160a01b03841690634f1ef2869034906103c4908690869060040161076e565b6000604051808303818588803b1580156103dd57600080fd5b505af11580156103f1573d6000803e3d6000fd5b5050505050505050565b6000546001600160a01b031633146104555760405162461bcd60e51b815260206004820181905260248201527f4f776e61626c653a2063616c6c6572206973206e6f7420746865206f776e6572604482015260640161026b565b604051631b2ce7f360e11b81526001600160a01b038281166004830152831690633659cfe690602401610304565b6000546001600160a01b031633146104dd5760405162461bcd60e51b815260206004820181905260248201527f4f776e61626c653a2063616c6c6572206973206e6f7420746865206f776e6572604482015260640161026b565b6001600160a01b0381166105595760405162461bcd60e51b815260206004820152602660248201527f4f776e61626c653a206e6577206f776e657220697320746865207a65726f206160448201527f6464726573730000000000000000000000000000000000000000000000000000606482015260840161026b565b6105628161058b565b50565b6000806000836001600160a01b03166040516101aa906303e1469160e61b815260040190565b600080546001600160a01b038381167fffffffffffffffffffffffff0000000000000000000000000000000000000000831681178455604051919092169283917f8be0079c531659141344cd1fd0a4f28419497f9722a3daafe3b4186f6b6457e09190a35050565b6001600160a01b038116811461056257600080fd5b60006020828403121561061a57600080fd5b8135610625816105f3565b9392505050565b6000806040838503121561063f57600080fd5b823561064a816105f3565b9150602083013561065a816105f3565b809150509250929050565b634e487b7160e01b600052604160045260246000fd5b60008060006060848603121561069057600080fd5b833561069b816105f3565b925060208401356106ab816105f3565b9150604084013567ffffffffffffffff808211156106c857600080fd5b818601915086601f8301126106dc57600080fd5b8135818111156106ee576106ee610665565b604051601f8201601f19908116603f0116810190838211818310171561071657610716610665565b8160405282815289602084870101111561072f57600080fd5b8260208601602083013760006020848301015280955050505050509250925092565b60006020828403121561076357600080fd5b8151610625816105f3565b6001600160a01b038316815260006020604081840152835180604085015260005b818110156107ab5785810183015185820160600152820161078f565b818111156107bd576000606083870101525b50601f01601f19169290920160600194935050505056fea26469706673582212204f515bcfd28df98720a376f27720fa980828bb7dfc9a9779c3ff32b5f997f18b64736f6c634300080e0033a26469706673582212201c9f54945c914cb5e8de988612c7d944cd4a79eb4ac8100b559be817d59f5a2064736f6c634300080e0033",
  "linkReferences": {},
  "deployedLinkReferences": {}
}