{
  "address": "0xC9204B4536D191f00209De86305DbB855c109Bb3",
  "abi": [
    {
      "inputs": [
        {
          "internalType": "address",
          "name": "_storageT",
          "type": "address"
        },
        {
          "internalType": "address",
          "name": "_pairInfoT",
          "type": "address"
        },
        {
          "internalType": "address",
          "name": "_pairStorageT",
          "type": "address"
        },
        {
          "internalType": "address",
          "name": "_tradingT",
          "type": "address"
        },
        {
          "internalType": "address",
          "name": "_callbackT",
          "type": "address"
        },
        {
          "internalType": "address",
          "name": "_rewardT",
          "type": "address"
        },
        {
          "internalType": "address",
          "name": "_vaultT",
          "type": "address"
        },
        {
          "internalType": "address",
          "name": "_priceAggregatorT",
          "type": "address"
        }
      ],
      "stateMutability": "nonpayable",
      "type": "constructor"
    },
    {
      "anonymous": false,
      "inputs": [
        {
          "indexed": false,
          "internalType": "uint256",
          "name": "",
          "type": "uint256"
        },
        {
          "indexed": false,
          "internalType": "address",
          "name": "",
          "type": "address"
        },
        {
          "indexed": false,
          "internalType": "address",
          "name": "",
          "type": "address"
        },
        {
          "indexed": false,
          "internalType": "address",
          "name": "",
          "type": "address"
        },
        {
          "indexed": false,
          "internalType": "address",
          "name": "",
          "type": "address"
        },
        {
          "indexed": false,
          "internalType": "address",
          "name": "",
          "type": "address"
        },
        {
          "indexed": false,
          "internalType": "address",
          "name": "",
          "type": "address"
        },
        {
          "indexed": false,
          "internalType": "address",
          "name": "",
          "type": "address"
        },
        {
          "indexed": false,
          "internalType": "address",
          "name": "",
          "type": "address"
        }
      ],
      "name": "QuantoCreated",
      "type": "event"
    },
    {
      "inputs": [
        {
          "internalType": "contract TokenInterfaceV5",
          "name": "_token",
          "type": "address"
        },
        {
          "internalType": "contract TokenInterfaceV5",
          "name": "_linkToken",
          "type": "address"
        },
        {
          "internalType": "address[]",
          "name": "_nodes",
          "type": "address[]"
        },
        {
          "internalType": "int256",
          "name": "proportionBTC",
          "type": "int256"
        }
      ],
      "name": "createQuanto",
      "outputs": [],
      "stateMutability": "nonpayable",
      "type": "function"
    },
    {
      "inputs": [
        {
          "internalType": "uint256",
          "name": "",
          "type": "uint256"
        }
      ],
      "name": "quantos",
      "outputs": [
        {
          "internalType": "address",
          "name": "tokenT",
          "type": "address"
        },
        {
          "internalType": "address",
          "name": "storageT",
          "type": "address"
        },
        {
          "internalType": "address",
          "name": "pairInfoT",
          "type": "address"
        },
        {
          "internalType": "address",
          "name": "pairStorageT",
          "type": "address"
        },
        {
          "internalType": "address",
          "name": "tradingT",
          "type": "address"
        },
        {
          "internalType": "address",
          "name": "callbackT",
          "type": "address"
        },
        {
          "internalType": "address",
          "name": "rewardT",
          "type": "address"
        },
        {
          "internalType": "address",
          "name": "vaultT",
          "type": "address"
        },
        {
          "internalType": "address",
          "name": "priceAggregatorT",
          "type": "address"
        }
      ],
      "stateMutability": "view",
      "type": "function"
    },
    {
      "inputs": [],
      "name": "quantosCount",
      "outputs": [
        {
          "internalType": "uint256",
          "name": "",
          "type": "uint256"
        }
      ],
      "stateMutability": "view",
      "type": "function"
    }
  ],
  "transactionHash": "0x58cd9e2ac596a3ae2e8c50c0a30b8e829078d66dcc291886e2ce93f01cce83e8",
  "args": [
    "0xb71414452F66BEcD555DABD96931Bf10CCBE7eB1",
    "0x87F36427E8c7950C9c02737DB055e272Ab82B00F",
    "0x1b1d65471a52741a56B6798a410f4148da88eA23",
    "0xB4915a43C12b0c2F14153E2e4C672CABbAfb2b62",
    "0x8D1b2Ad14e1F6a527E63F08162b7a7d19B9bc1fa",
    "0x3213133Cdf23a34fbFbCFaFD6e0c638E6F99e25c",
    "0x9f6F0C384b599C0A1AeC03238c6fD04437470447",
    "0x174591D53fdaF709606Be70EC174C4238A94BcB0"
  ],
  "numDeployments": 1,
  "solcInputHash": "c069e06a75b556daef6e465cf73c8e3c",
  "bytecode": "0x6101806040523480156200001257600080fd5b50604051620014bf380380620014bf83398101604081905262000035916200008f565b6001600160a01b0397881660805295871660a05293861660c05291851660e052841661010052831661012052821661014052166101605262000137565b80516001600160a01b03811681146200008a57600080fd5b919050565b600080600080600080600080610100898b031215620000ad57600080fd5b620000b88962000072565b9750620000c860208a0162000072565b9650620000d860408a0162000072565b9550620000e860608a0162000072565b9450620000f860808a0162000072565b93506200010860a08a0162000072565b92506200011860c08a0162000072565b91506200012860e08a0162000072565b90509295985092959890939650565b60805160a05160c05160e051610100516101205161014051610160516113226200019d600039600061031b015260006102e4015260006102ad015260006102760152600061023f01526000610208015260006101d10152600061019a01526113226000f3fe608060405234801561001057600080fd5b50600436106100415760003560e01c8063026c4ad81461004657806361addb471461005b578063ce67948f1461012c575b600080fd5b610059610054366004610f40565b610143565b005b6100cd610069366004610fdd565b6000602081905290815260409020805460018201546002830154600384015460048501546005860154600687015460078801546008909801546001600160a01b03978816989688169795861696948616959384169492841693918216928216911689565b604080516001600160a01b039a8b168152988a1660208a01529689169688019690965293871660608701529186166080860152851660a0850152841660c0840152831660e0830152909116610100820152610120015b60405180910390f35b61013560015481565b604051908152602001610123565b6040805161012081018252600060208201819052918101829052606081018290526080810182905260a0810182905260c0810182905260e081018290526101008101919091526001600160a01b03861681526101be7f0000000000000000000000000000000000000000000000000000000000000000610e69565b6001600160a01b031660208201526101f57f0000000000000000000000000000000000000000000000000000000000000000610e69565b6001600160a01b0316604082015261022c7f0000000000000000000000000000000000000000000000000000000000000000610e69565b6001600160a01b031660608201526102637f0000000000000000000000000000000000000000000000000000000000000000610e69565b6001600160a01b0316608082015261029a7f0000000000000000000000000000000000000000000000000000000000000000610e69565b6001600160a01b031660a08201526102d17f0000000000000000000000000000000000000000000000000000000000000000610e69565b6001600160a01b031660c08201526103087f0000000000000000000000000000000000000000000000000000000000000000610e69565b6001600160a01b031660e082015261033f7f0000000000000000000000000000000000000000000000000000000000000000610e69565b6001600160a01b0390811661010083015260208201516040808401516060850151915163485cc95560e01b81528a851660048201528985166024820152929390929084169063485cc95590604401600060405180830381600087803b1580156103a757600080fd5b505af11580156103bb573d6000803e3d6000fd5b505060405163189acdbd60e31b81526001600160a01b0386811660048301528516925063c4d66de89150602401600060405180830381600087803b15801561040257600080fd5b505af1158015610416573d6000803e3d6000fd5b505060405163da35a26f60e01b8152600160048201526001600160a01b0386811660248301528416925063da35a26f9150604401600060405180830381600087803b15801561046457600080fd5b505af1158015610478573d6000803e3d6000fd5b505050608085015160405163485cc95560e01b81526001600160a01b0386811660048301528581166024830152909116915063485cc95590604401600060405180830381600087803b1580156104cd57600080fd5b505af11580156104e1573d6000803e3d6000fd5b50505060a085015160405163485cc95560e01b81526001600160a01b0386811660048301528581166024830152909116915063485cc95590604401600060405180830381600087803b15801561053657600080fd5b505af115801561054a573d6000803e3d6000fd5b50505060c085015160405163189acdbd60e31b81526001600160a01b038681166004830152909116915063c4d66de890602401600060405180830381600087803b15801561059757600080fd5b505af11580156105ab573d6000803e3d6000fd5b50505060e085015160405163189acdbd60e31b81526001600160a01b038681166004830152909116915063c4d66de890602401600060405180830381600087803b1580156105f857600080fd5b505af115801561060c573d6000803e3d6000fd5b505050508361010001516001600160a01b0316635aa5869b8888848860c00151888e6040518763ffffffff1660e01b815260040161064f96959493929190610ff6565b600060405180830381600087803b15801561066957600080fd5b505af115801561067d573d6000803e3d6000fd5b50505050610100840151604051635070e83760e01b81526001600160a01b03918216600482015290841690635070e83790602401600060405180830381600087803b1580156106cb57600080fd5b505af11580156106df573d6000803e3d6000fd5b505050506080840151604051637c11f15760e11b81526001600160a01b0391821660048201529084169063f823e2ae90602401600060405180830381600087803b15801561072c57600080fd5b505af1158015610740573d6000803e3d6000fd5b5050505060a0840151604051637c11f15760e11b81526001600160a01b0391821660048201529084169063f823e2ae90602401600060405180830381600087803b15801561078d57600080fd5b505af11580156107a1573d6000803e3d6000fd5b5050505060e0840151604051637c11f15760e11b81526001600160a01b0391821660048201529084169063f823e2ae90602401600060405180830381600087803b1580156107ee57600080fd5b505af1158015610802573d6000803e3d6000fd5b505050506080840151604051632954e41b60e21b81526001600160a01b0391821660048201529084169063a553906c90602401600060405180830381600087803b15801561084f57600080fd5b505af1158015610863573d6000803e3d6000fd5b5050505060a0840151604051637f07e46b60e11b81526001600160a01b0391821660048201529084169063fe0fc8d690602401600060405180830381600087803b1580156108b057600080fd5b505af11580156108c4573d6000803e3d6000fd5b5050505060e0840151604051636817031b60e01b81526001600160a01b03918216600482015290841690636817031b90602401600060405180830381600087803b15801561091157600080fd5b505af1158015610925573d6000803e3d6000fd5b505060405163e378b36760e01b81526000600482015260001960248201526001600160a01b038616925063e378b3679150604401600060405180830381600087803b15801561097357600080fd5b505af1158015610987573d6000803e3d6000fd5b50506040805161012081018252600660e082019081526563727970746f60d01b61010083015281526311e1a30060208201526323c346008183015263039387006060820152630bebc2006080820152600160a0820152685150ae84a8cdf0000060c08201529051632308fe0760e21b81526001600160a01b0385169350638c23f81c9250610a1891906004016110bb565b600060405180830381600087803b158015610a3257600080fd5b505af1158015610a46573d6000803e3d6000fd5b50506040805160e081018252600660a082019081526563727970746f60d01b60c083015281527f3465633339336163316565343438356639366563373336343666363565373436602082015260028183015260966060820152600f6080820152905163472ff8bb60e01b81526001600160a01b038516935063472ff8bb9250610ad29190600401611120565b600060405180830381600087803b158015610aec57600080fd5b505af1158015610b00573d6000803e3d6000fd5b50505050806001600160a01b0316635c25f4c56040518060e001604052806040518060800160405280604b81526020016112a2604b913981526020016040518060400160405280600b81526020017f626974636f696e2c75736400000000000000000000000000000000000000000081525081526020016040518060800160405280735741306c21795fdcbb9b265ea0255f499dfe515c6001600160a01b0316815260200160006001600160a01b0316815260200160006002811115610bc857610bc8611170565b81526020016404a817c80081525081526020016317d7840081526020016000815260200160008152602001888152506040518263ffffffff1660e01b8152600401610c139190611186565b600060405180830381600087803b158015610c2d57600080fd5b505af1158015610c41573d6000803e3d6000fd5b5050505061010084015160405163a9059cbb60e01b81526001600160a01b03918216600482015267016345785d8a000060248201529089169063a9059cbb906044016020604051808303816000875af1158015610ca2573d6000803e3d6000fd5b505050506040513d601f19601f82011682018060405250810190610cc69190611251565b506001805460009182610cd88361127a565b9091555060008181526020818152604091829020885181546001600160a01b039182167fffffffffffffffffffffffff0000000000000000000000000000000000000000918216178355928a0151600183018054918316918516919091179055838a015160028301805491831691851691909117905560608a015160038301805491831691851691909117905560808a015160048301805482841690861617905560a08b015160058401805482851690871617905560c08c015160068501805482861690881617905560e08d01516007860180548287169089161790556101008e015160089096018054958716959097169490941790955594519596507f69d7c8b30e729b77173bbd236d148d338ed7a552f6e8f94851df8390b7afb36a95610e559588958c958c958c95949091909889526001600160a01b0397881660208a0152958716604089015293861660608801529185166080870152841660a0860152831660c0850152821660e0840152166101008201526101200190565b60405180910390a150505050505050505050565b60006040517f3d602d80600a3d3981f3363d3d373d3d3d363d7300000000000000000000000081528260601b60148201527f5af43d82803e903d91602b57fd5bf3000000000000000000000000000000000060288201526037816000f09150506001600160a01b038116610f235760405162461bcd60e51b815260206004820152601660248201527f455243313136373a20637265617465206661696c656400000000000000000000604482015260640160405180910390fd5b919050565b6001600160a01b0381168114610f3d57600080fd5b50565b600080600080600060808688031215610f5857600080fd5b8535610f6381610f28565b94506020860135610f7381610f28565b9350604086013567ffffffffffffffff80821115610f9057600080fd5b818801915088601f830112610fa457600080fd5b813581811115610fb357600080fd5b8960208260051b8501011115610fc857600080fd5b96999598505060200195606001359392505050565b600060208284031215610fef57600080fd5b5035919050565b60a0808252810186905260008760c08301825b8981101561103957823561101c81610f28565b6001600160a01b0316825260209283019290910190600101611009565b506001600160a01b03978816602085015295871660408401525050918416606083015290921660809092019190915292915050565b6000815180845260005b8181101561109457602081850181015186830182015201611078565b818111156110a6576000602083870101525b50601f01601f19169290920160200192915050565b602081526000825160e060208401526110d861010084018261106e565b9050602084015160408401526040840151606084015260608401516080840152608084015160a084015260a084015160c084015260c084015160e08401528091505092915050565b602081526000825160a0602084015261113c60c084018261106e565b9050602084015160408401526040840151606084015260608401516080840152608084015160a08401528091505092915050565b634e487b7160e01b600052602160045260246000fd5b60208152600082516101408060208501526111a561016085018361106e565b91506020850151601f198584030160408601526111c2838261106e565b92505060408501516001600160a01b038082511660608701528060208301511660808701525060408101516003811061120b57634e487b7160e01b600052602160045260246000fd5b8060a087015250606081015160c086015250606085015160e0850152608085015161010085015260a085015161012085015260c085015181850152508091505092915050565b60006020828403121561126357600080fd5b8151801515811461127357600080fd5b9392505050565b60006001820161129a57634e487b7160e01b600052601160045260246000fd5b506001019056fe68747470733a2f2f6170692e636f696e6765636b6f2e636f6d2f6170692f76332f73696d706c652f70726963653f6964733d626974636f696e2676735f63757272656e636965733d757364a26469706673582212203a93ce21ce9ec5d0eb06bef998059397639b0cbe8ebb445368507980c11916d964736f6c634300080e0033",
  "devdoc": {
    "kind": "dev",
    "methods": {},
    "version": 1
  },
  "userdoc": {
    "kind": "user",
    "methods": {},
    "version": 1
  },
  "storageLayout": {
    "storage": [
      {
        "astId": 3542,
        "contract": "contracts/KravFactory.sol:KravFactory",
        "label": "quantos",
        "offset": 0,
        "slot": "0",
        "type": "t_mapping(t_uint256,t_struct(Quanto)3521_storage)"
      },
      {
        "astId": 3544,
        "contract": "contracts/KravFactory.sol:KravFactory",
        "label": "quantosCount",
        "offset": 0,
        "slot": "1",
        "type": "t_uint256"
      }
    ],
    "types": {
      "t_address": {
        "encoding": "inplace",
        "label": "address",
        "numberOfBytes": "20"
      },
      "t_mapping(t_uint256,t_struct(Quanto)3521_storage)": {
        "encoding": "mapping",
        "key": "t_uint256",
        "label": "mapping(uint256 => struct KravFactory.Quanto)",
        "numberOfBytes": "32",
        "value": "t_struct(Quanto)3521_storage"
      },
      "t_struct(Quanto)3521_storage": {
        "encoding": "inplace",
        "label": "struct KravFactory.Quanto",
        "members": [
          {
            "astId": 3504,
            "contract": "contracts/KravFactory.sol:KravFactory",
            "label": "tokenT",
            "offset": 0,
            "slot": "0",
            "type": "t_address"
          },
          {
            "astId": 3506,
            "contract": "contracts/KravFactory.sol:KravFactory",
            "label": "storageT",
            "offset": 0,
            "slot": "1",
            "type": "t_address"
          },
          {
            "astId": 3508,
            "contract": "contracts/KravFactory.sol:KravFactory",
            "label": "pairInfoT",
            "offset": 0,
            "slot": "2",
            "type": "t_address"
          },
          {
            "astId": 3510,
            "contract": "contracts/KravFactory.sol:KravFactory",
            "label": "pairStorageT",
            "offset": 0,
            "slot": "3",
            "type": "t_address"
          },
          {
            "astId": 3512,
            "contract": "contracts/KravFactory.sol:KravFactory",
            "label": "tradingT",
            "offset": 0,
            "slot": "4",
            "type": "t_address"
          },
          {
            "astId": 3514,
            "contract": "contracts/KravFactory.sol:KravFactory",
            "label": "callbackT",
            "offset": 0,
            "slot": "5",
            "type": "t_address"
          },
          {
            "astId": 3516,
            "contract": "contracts/KravFactory.sol:KravFactory",
            "label": "rewardT",
            "offset": 0,
            "slot": "6",
            "type": "t_address"
          },
          {
            "astId": 3518,
            "contract": "contracts/KravFactory.sol:KravFactory",
            "label": "vaultT",
            "offset": 0,
            "slot": "7",
            "type": "t_address"
          },
          {
            "astId": 3520,
            "contract": "contracts/KravFactory.sol:KravFactory",
            "label": "priceAggregatorT",
            "offset": 0,
            "slot": "8",
            "type": "t_address"
          }
        ],
        "numberOfBytes": "288"
      },
      "t_uint256": {
        "encoding": "inplace",
        "label": "uint256",
        "numberOfBytes": "32"
      }
    }
  }
}