{
  "_format": "hh-sol-artifact-1",
  "contractName": "MiningPool",
  "sourceName": "contracts/MiningPool.sol",
  "abi": [
    {
      "inputs": [
        {
          "internalType": "address",
          "name": "_token",
          "type": "address"
        }
      ],
      "stateMutability": "nonpayable",
      "type": "constructor"
    },
    {
      "inputs": [
        {
          "internalType": "uint256",
          "name": "_amount",
          "type": "uint256"
        },
        {
          "internalType": "bytes",
          "name": "_signature",
          "type": "bytes"
        }
      ],
      "name": "claim",
      "outputs": [],
      "stateMutability": "nonpayable",
      "type": "function"
    },
    {
      "inputs": [
        {
          "internalType": "address",
          "name": "",
          "type": "address"
        }
      ],
      "name": "claimed",
      "outputs": [
        {
          "internalType": "uint256",
          "name": "",
          "type": "uint256"
        }
      ],
      "stateMutability": "view",
      "type": "function"
    },
    {
      "inputs": [
        {
          "internalType": "address",
          "name": "_signer",
          "type": "address"
        }
      ],
      "name": "setSigner",
      "outputs": [],
      "stateMutability": "nonpayable",
      "type": "function"
    },
    {
      "inputs": [],
      "name": "signer",
      "outputs": [
        {
          "internalType": "address",
          "name": "",
          "type": "address"
        }
      ],
      "stateMutability": "view",
      "type": "function"
    },
    {
      "inputs": [],
      "name": "token",
      "outputs": [
        {
          "internalType": "address",
          "name": "",
          "type": "address"
        }
      ],
      "stateMutability": "view",
      "type": "function"
    }
  ],
  "bytecode": "0x60a060405234801561001057600080fd5b50604051610c80380380610c8083398101604081905261002f91610040565b6001600160a01b0316608052610070565b60006020828403121561005257600080fd5b81516001600160a01b038116811461006957600080fd5b9392505050565b608051610bef6100916000396000818160f701526102d40152610bef6000f3fe608060405234801561001057600080fd5b50600436106100675760003560e01c80636c19e783116100505780636c19e783146100b1578063c884ef83146100c4578063fc0c546a146100f257600080fd5b8063238ac9331461006c57806338926b6d1461009c575b600080fd5b60005461007f906001600160a01b031681565b6040516001600160a01b0390911681526020015b60405180910390f35b6100af6100aa366004610a38565b610119565b005b6100af6100bf366004610ab4565b61030a565b6100e46100d2366004610ab4565b60016020526000908152604090205481565b604051908152602001610093565b61007f7f000000000000000000000000000000000000000000000000000000000000000081565b60006101c3463033876040516020016101639493929190938452606092831b6bffffffffffffffffffffffff1990811660208601529190921b166034830152604882015260680190565b60408051601f1981840301815282825280516020918201207f19457468657265756d205369676e6564204d6573736167653a0a33320000000084830152603c8085019190915282518085039091018152605c909301909152815191012090565b600054604080516020601f87018190048102820181019092528581529293506001600160a01b03909116916102159184919087908790819084018382808284376000920191909152506103d692505050565b6001600160a01b03161461025d5760405162461bcd60e51b81526004016102549060208082526004908201526364656e7960e01b604082015260600190565b60405180910390fd5b336000908152600160205260409020548085116102bc5760405162461bcd60e51b815260206004820152600c60248201527f6e6f7468696e67206865726500000000000000000000000000000000000000006044820152606401610254565b336000818152600160205260409020869055610303907f0000000000000000000000000000000000000000000000000000000000000000906102fe8489610add565b6103fa565b5050505050565b6001600160a01b0381166103455760405162461bcd60e51b8152602060048201526002602482015261021360f41b6044820152606401610254565b6000546001600160a01b0316158061036757506000546001600160a01b031633145b61039c5760405162461bcd60e51b81526004016102549060208082526004908201526364656e7960e01b604082015260600190565b600080547fffffffffffffffffffffffff0000000000000000000000000000000000000000166001600160a01b0392909216919091179055565b60008060006103e58585610466565b915091506103f2816104d4565b509392505050565b604080516001600160a01b038416602482015260448082018490528251808303909101815260649091019091526020810180517bffffffffffffffffffffffffffffffffffffffffffffffffffffffff1663a9059cbb60e01b17905261046190849061068d565b505050565b600080825160410361049c5760208301516040840151606085015160001a61049087828585610772565b945094505050506104cd565b82516040036104c557602083015160408401516104ba86838361085f565b9350935050506104cd565b506000905060025b9250929050565b60008160048111156104e8576104e8610b02565b036104f05750565b600181600481111561050457610504610b02565b036105515760405162461bcd60e51b815260206004820152601860248201527f45434453413a20696e76616c6964207369676e617475726500000000000000006044820152606401610254565b600281600481111561056557610565610b02565b036105b25760405162461bcd60e51b815260206004820152601f60248201527f45434453413a20696e76616c6964207369676e6174757265206c656e677468006044820152606401610254565b60038160048111156105c6576105c6610b02565b0361061e5760405162461bcd60e51b815260206004820152602260248201527f45434453413a20696e76616c6964207369676e6174757265202773272076616c604482015261756560f01b6064820152608401610254565b600481600481111561063257610632610b02565b0361068a5760405162461bcd60e51b815260206004820152602260248201527f45434453413a20696e76616c6964207369676e6174757265202776272076616c604482015261756560f01b6064820152608401610254565b50565b60006106e2826040518060400160405280602081526020017f5361666545524332303a206c6f772d6c6576656c2063616c6c206661696c6564815250856001600160a01b03166108a79092919063ffffffff16565b80519091501561046157808060200190518101906107009190610b18565b6104615760405162461bcd60e51b815260206004820152602a60248201527f5361666545524332303a204552433230206f7065726174696f6e20646964206e60448201527f6f742073756363656564000000000000000000000000000000000000000000006064820152608401610254565b6000807f7fffffffffffffffffffffffffffffff5d576e7357a4501ddfe92f46681b20a08311156107a95750600090506003610856565b8460ff16601b141580156107c157508460ff16601c14155b156107d25750600090506004610856565b6040805160008082526020820180845289905260ff881692820192909252606081018690526080810185905260019060a0016020604051602081039080840390855afa158015610826573d6000803e3d6000fd5b5050604051601f1901519150506001600160a01b03811661084f57600060019250925050610856565b9150600090505b94509492505050565b6000807f7fffffffffffffffffffffffffffffffffffffffffffffffffffffffffffffff831660ff84901c601b0161089987828885610772565b935093505050935093915050565b60606108b684846000856108c0565b90505b9392505050565b6060824710156109385760405162461bcd60e51b815260206004820152602660248201527f416464726573733a20696e73756666696369656e742062616c616e636520666f60448201527f722063616c6c00000000000000000000000000000000000000000000000000006064820152608401610254565b843b6109865760405162461bcd60e51b815260206004820152601d60248201527f416464726573733a2063616c6c20746f206e6f6e2d636f6e74726163740000006044820152606401610254565b600080866001600160a01b031685876040516109a29190610b6a565b60006040518083038185875af1925050503d80600081146109df576040519150601f19603f3d011682016040523d82523d6000602084013e6109e4565b606091505b50915091506109f48282866109ff565b979650505050505050565b60608315610a0e5750816108b9565b825115610a1e5782518084602001fd5b8160405162461bcd60e51b81526004016102549190610b86565b600080600060408486031215610a4d57600080fd5b83359250602084013567ffffffffffffffff80821115610a6c57600080fd5b818601915086601f830112610a8057600080fd5b813581811115610a8f57600080fd5b876020828501011115610aa157600080fd5b6020830194508093505050509250925092565b600060208284031215610ac657600080fd5b81356001600160a01b03811681146108b957600080fd5b600082821015610afd57634e487b7160e01b600052601160045260246000fd5b500390565b634e487b7160e01b600052602160045260246000fd5b600060208284031215610b2a57600080fd5b815180151581146108b957600080fd5b60005b83811015610b55578181015183820152602001610b3d565b83811115610b64576000848401525b50505050565b60008251610b7c818460208701610b3a565b9190910192915050565b6020815260008251806020840152610ba5816040850160208701610b3a565b601f01601f1916919091016040019291505056fea2646970667358221220d504f18cc04db49073c73c6ee8f034a3c92f7bdc79a7d21f99fa5ebf441d3e8e64736f6c634300080e0033",
  "linkReferences": {},
  "deployedLinkReferences": {}
}