{
  "_format": "hh-sol-artifact-1",
  "contractName": "TradingVault",
  "sourceName": "contracts/TradingVault.sol",
  "abi": [
    {
      "inputs": [
        {
          "internalType": "contract StorageInterface",
          "name": "_storageT",
          "type": "address"
        }
      ],
      "stateMutability": "nonpayable",
      "type": "constructor"
    },
    {
      "anonymous": false,
      "inputs": [
        {
          "indexed": false,
          "internalType": "string",
          "name": "name",
          "type": "string"
        },
        {
          "indexed": false,
          "internalType": "address",
          "name": "a",
          "type": "address"
        }
      ],
      "name": "AddressUpdated",
      "type": "event"
    },
    {
      "anonymous": false,
      "inputs": [
        {
          "indexed": false,
          "internalType": "address",
          "name": "trader",
          "type": "address"
        },
        {
          "indexed": false,
          "internalType": "uint256",
          "name": "amount",
          "type": "uint256"
        },
        {
          "indexed": false,
          "internalType": "uint256",
          "name": "newCurrentBalanceDai",
          "type": "uint256"
        },
        {
          "indexed": false,
          "internalType": "uint256",
          "name": "maxBalanceDai",
          "type": "uint256"
        }
      ],
      "name": "Claimed",
      "type": "event"
    },
    {
      "anonymous": false,
      "inputs": [
        {
          "indexed": false,
          "internalType": "address",
          "name": "caller",
          "type": "address"
        },
        {
          "indexed": false,
          "internalType": "uint256",
          "name": "daiAmount",
          "type": "uint256"
        },
        {
          "indexed": false,
          "internalType": "uint256",
          "name": "newCurrentBalanceDai",
          "type": "uint256"
        },
        {
          "indexed": false,
          "internalType": "uint256",
          "name": "maxBalanceDai",
          "type": "uint256"
        },
        {
          "indexed": false,
          "internalType": "uint256",
          "name": "tokensBurnt",
          "type": "uint256"
        }
      ],
      "name": "Depleted",
      "type": "event"
    },
    {
      "anonymous": false,
      "inputs": [
        {
          "indexed": false,
          "internalType": "address",
          "name": "caller",
          "type": "address"
        },
        {
          "indexed": false,
          "internalType": "uint256",
          "name": "amount",
          "type": "uint256"
        },
        {
          "indexed": false,
          "internalType": "uint256",
          "name": "newCurrentBalanceDai",
          "type": "uint256"
        },
        {
          "indexed": false,
          "internalType": "uint256",
          "name": "newMaxBalanceDai",
          "type": "uint256"
        }
      ],
      "name": "Deposited",
      "type": "event"
    },
    {
      "anonymous": false,
      "inputs": [
        {
          "indexed": false,
          "internalType": "address",
          "name": "caller",
          "type": "address"
        },
        {
          "indexed": false,
          "internalType": "uint256",
          "name": "lpReward",
          "type": "uint256"
        },
        {
          "indexed": false,
          "internalType": "uint256",
          "name": "tokenReward",
          "type": "uint256"
        }
      ],
      "name": "Harvest",
      "type": "event"
    },
    {
      "anonymous": false,
      "inputs": [
        {
          "indexed": false,
          "internalType": "string",
          "name": "name",
          "type": "string"
        },
        {
          "indexed": false,
          "internalType": "uint256",
          "name": "value",
          "type": "uint256"
        }
      ],
      "name": "NumberUpdated",
      "type": "event"
    },
    {
      "anonymous": false,
      "inputs": [
        {
          "indexed": false,
          "internalType": "address",
          "name": "caller",
          "type": "address"
        },
        {
          "indexed": false,
          "internalType": "address",
          "name": "trader",
          "type": "address"
        },
        {
          "indexed": false,
          "internalType": "uint256",
          "name": "daiAmount",
          "type": "uint256"
        },
        {
          "indexed": false,
          "internalType": "uint256",
          "name": "vaultFeeDai",
          "type": "uint256"
        },
        {
          "indexed": false,
          "internalType": "uint256",
          "name": "newCurrentBalanceDai",
          "type": "uint256"
        },
        {
          "indexed": false,
          "internalType": "uint256",
          "name": "maxBalanceDai",
          "type": "uint256"
        }
      ],
      "name": "ReceivedFromTrader",
      "type": "event"
    },
    {
      "anonymous": false,
      "inputs": [
        {
          "indexed": false,
          "internalType": "address",
          "name": "caller",
          "type": "address"
        },
        {
          "indexed": false,
          "internalType": "uint256",
          "name": "daiAmount",
          "type": "uint256"
        },
        {
          "indexed": false,
          "internalType": "uint256",
          "name": "newCurrentBalanceDai",
          "type": "uint256"
        },
        {
          "indexed": false,
          "internalType": "uint256",
          "name": "maxBalanceDai",
          "type": "uint256"
        },
        {
          "indexed": false,
          "internalType": "uint256",
          "name": "tokensMinted",
          "type": "uint256"
        }
      ],
      "name": "Refilled",
      "type": "event"
    },
    {
      "anonymous": false,
      "inputs": [
        {
          "indexed": false,
          "internalType": "address",
          "name": "rewardDistributor",
          "type": "address"
        }
      ],
      "name": "RewardDistributorUpdated",
      "type": "event"
    },
    {
      "anonymous": false,
      "inputs": [
        {
          "indexed": false,
          "internalType": "address",
          "name": "rewardToken",
          "type": "address"
        }
      ],
      "name": "RewardTokenUpdated",
      "type": "event"
    },
    {
      "anonymous": false,
      "inputs": [
        {
          "indexed": false,
          "internalType": "address",
          "name": "caller",
          "type": "address"
        },
        {
          "indexed": false,
          "internalType": "address",
          "name": "trader",
          "type": "address"
        },
        {
          "indexed": false,
          "internalType": "uint256",
          "name": "amount",
          "type": "uint256"
        },
        {
          "indexed": false,
          "internalType": "uint256",
          "name": "newCurrentBalanceDai",
          "type": "uint256"
        },
        {
          "indexed": false,
          "internalType": "uint256",
          "name": "maxBalanceDai",
          "type": "uint256"
        }
      ],
      "name": "Sent",
      "type": "event"
    },
    {
      "anonymous": false,
      "inputs": [
        {
          "indexed": false,
          "internalType": "address",
          "name": "caller",
          "type": "address"
        },
        {
          "indexed": false,
          "internalType": "address",
          "name": "trader",
          "type": "address"
        },
        {
          "indexed": false,
          "internalType": "uint256",
          "name": "amount",
          "type": "uint256"
        },
        {
          "indexed": false,
          "internalType": "uint256",
          "name": "currentBalanceDai",
          "type": "uint256"
        },
        {
          "indexed": false,
          "internalType": "uint256",
          "name": "maxBalanceDai",
          "type": "uint256"
        }
      ],
      "name": "ToClaim",
      "type": "event"
    },
    {
      "anonymous": false,
      "inputs": [
        {
          "indexed": false,
          "internalType": "address",
          "name": "caller",
          "type": "address"
        },
        {
          "indexed": false,
          "internalType": "uint256",
          "name": "amount",
          "type": "uint256"
        },
        {
          "indexed": false,
          "internalType": "uint256",
          "name": "newCurrentBalanceDai",
          "type": "uint256"
        },
        {
          "indexed": false,
          "internalType": "uint256",
          "name": "newMaxBalanceDai",
          "type": "uint256"
        }
      ],
      "name": "Withdrawn",
      "type": "event"
    },
    {
      "inputs": [],
      "name": "PRECISION",
      "outputs": [
        {
          "internalType": "uint256",
          "name": "",
          "type": "uint256"
        }
      ],
      "stateMutability": "view",
      "type": "function"
    },
    {
      "inputs": [],
      "name": "accDaiPerDai",
      "outputs": [
        {
          "internalType": "uint256",
          "name": "",
          "type": "uint256"
        }
      ],
      "stateMutability": "view",
      "type": "function"
    },
    {
      "inputs": [],
      "name": "accMaticPerDai",
      "outputs": [
        {
          "internalType": "uint256",
          "name": "",
          "type": "uint256"
        }
      ],
      "stateMutability": "view",
      "type": "function"
    },
    {
      "inputs": [
        {
          "internalType": "address",
          "name": "_trader",
          "type": "address"
        }
      ],
      "name": "backend",
      "outputs": [
        {
          "internalType": "uint256",
          "name": "",
          "type": "uint256"
        },
        {
          "internalType": "uint256",
          "name": "",
          "type": "uint256"
        },
        {
          "internalType": "uint256",
          "name": "",
          "type": "uint256"
        },
        {
          "components": [
            {
              "internalType": "uint256",
              "name": "leverageUnlocked",
              "type": "uint256"
            },
            {
              "internalType": "address",
              "name": "referral",
              "type": "address"
            },
            {
              "internalType": "uint256",
              "name": "referralRewardsTotal",
              "type": "uint256"
            }
          ],
          "internalType": "struct StorageInterface.Trader",
          "name": "",
          "type": "tuple"
        },
        {
          "internalType": "uint256[]",
          "name": "",
          "type": "uint256[]"
        },
        {
          "components": [
            {
              "components": [
                {
                  "internalType": "address",
                  "name": "trader",
                  "type": "address"
                },
                {
                  "internalType": "uint256",
                  "name": "pairIndex",
                  "type": "uint256"
                },
                {
                  "internalType": "uint256",
                  "name": "index",
                  "type": "uint256"
                },
                {
                  "internalType": "uint256",
                  "name": "initialPosToken",
                  "type": "uint256"
                },
                {
                  "internalType": "uint256",
                  "name": "positionSizeDai",
                  "type": "uint256"
                },
                {
                  "internalType": "uint256",
                  "name": "openPrice",
                  "type": "uint256"
                },
                {
                  "internalType": "bool",
                  "name": "buy",
                  "type": "bool"
                },
                {
                  "internalType": "uint256",
                  "name": "leverage",
                  "type": "uint256"
                },
                {
                  "internalType": "uint256",
                  "name": "tp",
                  "type": "uint256"
                },
                {
                  "internalType": "uint256",
                  "name": "sl",
                  "type": "uint256"
                }
              ],
              "internalType": "struct StorageInterface.Trade",
              "name": "trade",
              "type": "tuple"
            },
            {
              "internalType": "uint256",
              "name": "block",
              "type": "uint256"
            },
            {
              "internalType": "uint256",
              "name": "wantedPrice",
              "type": "uint256"
            },
            {
              "internalType": "uint256",
              "name": "slippageP",
              "type": "uint256"
            },
            {
              "internalType": "uint256",
              "name": "spreadReductionP",
              "type": "uint256"
            },
            {
              "internalType": "uint256",
              "name": "tokenId",
              "type": "uint256"
            }
          ],
          "internalType": "struct StorageInterface.PendingMarketOrder[]",
          "name": "",
          "type": "tuple[]"
        },
        {
          "internalType": "uint256[][5]",
          "name": "",
          "type": "uint256[][5]"
        }
      ],
      "stateMutability": "view",
      "type": "function"
    },
    {
      "inputs": [],
      "name": "claim",
      "outputs": [],
      "stateMutability": "nonpayable",
      "type": "function"
    },
    {
      "inputs": [],
      "name": "currentBalanceDai",
      "outputs": [
        {
          "internalType": "uint256",
          "name": "",
          "type": "uint256"
        }
      ],
      "stateMutability": "view",
      "type": "function"
    },
    {
      "inputs": [
        {
          "internalType": "address",
          "name": "",
          "type": "address"
        }
      ],
      "name": "daiToClaim",
      "outputs": [
        {
          "internalType": "uint256",
          "name": "",
          "type": "uint256"
        }
      ],
      "stateMutability": "view",
      "type": "function"
    },
    {
      "inputs": [
        {
          "internalType": "uint256",
          "name": "_amount",
          "type": "uint256"
        }
      ],
      "name": "deposit",
      "outputs": [],
      "stateMutability": "nonpayable",
      "type": "function"
    },
    {
      "inputs": [
        {
          "internalType": "uint256",
          "name": "_amount",
          "type": "uint256"
        },
        {
          "internalType": "address",
          "name": "_account",
          "type": "address"
        }
      ],
      "name": "depositFor",
      "outputs": [],
      "stateMutability": "nonpayable",
      "type": "function"
    },
    {
      "inputs": [
        {
          "internalType": "uint256",
          "name": "_amount",
          "type": "uint256"
        }
      ],
      "name": "distributeRewardDai",
      "outputs": [],
      "stateMutability": "nonpayable",
      "type": "function"
    },
    {
      "inputs": [
        {
          "internalType": "uint256",
          "name": "_startBlock",
          "type": "uint256"
        },
        {
          "internalType": "uint256",
          "name": "_endBlock",
          "type": "uint256"
        },
        {
          "internalType": "uint256",
          "name": "_amount",
          "type": "uint256"
        }
      ],
      "name": "distributeRewardMatic",
      "outputs": [],
      "stateMutability": "nonpayable",
      "type": "function"
    },
    {
      "inputs": [],
      "name": "harvest",
      "outputs": [],
      "stateMutability": "nonpayable",
      "type": "function"
    },
    {
      "inputs": [
        {
          "internalType": "address",
          "name": "_account",
          "type": "address"
        }
      ],
      "name": "harvestFor",
      "outputs": [],
      "stateMutability": "nonpayable",
      "type": "function"
    },
    {
      "inputs": [
        {
          "internalType": "contract StorageInterface",
          "name": "_storageT",
          "type": "address"
        }
      ],
      "name": "initialize",
      "outputs": [],
      "stateMutability": "nonpayable",
      "type": "function"
    },
    {
      "inputs": [],
      "name": "lastActionBlock",
      "outputs": [
        {
          "internalType": "uint256",
          "name": "",
          "type": "uint256"
        }
      ],
      "stateMutability": "view",
      "type": "function"
    },
    {
      "inputs": [],
      "name": "maticEndBlock",
      "outputs": [
        {
          "internalType": "uint256",
          "name": "",
          "type": "uint256"
        }
      ],
      "stateMutability": "view",
      "type": "function"
    },
    {
      "inputs": [],
      "name": "maticLastRewardBlock",
      "outputs": [
        {
          "internalType": "uint256",
          "name": "",
          "type": "uint256"
        }
      ],
      "stateMutability": "view",
      "type": "function"
    },
    {
      "inputs": [],
      "name": "maticPerBlock",
      "outputs": [
        {
          "internalType": "uint256",
          "name": "",
          "type": "uint256"
        }
      ],
      "stateMutability": "view",
      "type": "function"
    },
    {
      "inputs": [],
      "name": "maticStartBlock",
      "outputs": [
        {
          "internalType": "uint256",
          "name": "",
          "type": "uint256"
        }
      ],
      "stateMutability": "view",
      "type": "function"
    },
    {
      "inputs": [],
      "name": "maxBalanceDai",
      "outputs": [
        {
          "internalType": "uint256",
          "name": "",
          "type": "uint256"
        }
      ],
      "stateMutability": "view",
      "type": "function"
    },
    {
      "inputs": [],
      "name": "maxWithdrawP",
      "outputs": [
        {
          "internalType": "uint256",
          "name": "",
          "type": "uint256"
        }
      ],
      "stateMutability": "view",
      "type": "function"
    },
    {
      "inputs": [],
      "name": "pendingRewardDai",
      "outputs": [
        {
          "internalType": "uint256",
          "name": "",
          "type": "uint256"
        }
      ],
      "stateMutability": "view",
      "type": "function"
    },
    {
      "inputs": [
        {
          "internalType": "address",
          "name": "_account",
          "type": "address"
        }
      ],
      "name": "pendingRewardDaiByAccount",
      "outputs": [
        {
          "internalType": "uint256",
          "name": "",
          "type": "uint256"
        }
      ],
      "stateMutability": "view",
      "type": "function"
    },
    {
      "inputs": [
        {
          "internalType": "address",
          "name": "_account",
          "type": "address"
        }
      ],
      "name": "pendingRewardDaiFor",
      "outputs": [
        {
          "internalType": "uint256",
          "name": "",
          "type": "uint256"
        }
      ],
      "stateMutability": "view",
      "type": "function"
    },
    {
      "inputs": [],
      "name": "pendingRewardMatic",
      "outputs": [
        {
          "internalType": "uint256",
          "name": "",
          "type": "uint256"
        }
      ],
      "stateMutability": "view",
      "type": "function"
    },
    {
      "inputs": [
        {
          "internalType": "address",
          "name": "_account",
          "type": "address"
        }
      ],
      "name": "pendingRewardMaticFor",
      "outputs": [
        {
          "internalType": "uint256",
          "name": "",
          "type": "uint256"
        }
      ],
      "stateMutability": "view",
      "type": "function"
    },
    {
      "inputs": [
        {
          "internalType": "address",
          "name": "_trader",
          "type": "address"
        },
        {
          "internalType": "uint256",
          "name": "_amount",
          "type": "uint256"
        },
        {
          "internalType": "uint256",
          "name": "_vaultFee",
          "type": "uint256"
        }
      ],
      "name": "receiveDaiFromTrader",
      "outputs": [],
      "stateMutability": "nonpayable",
      "type": "function"
    },
    {
      "inputs": [],
      "name": "rewardDistributor",
      "outputs": [
        {
          "internalType": "address",
          "name": "",
          "type": "address"
        }
      ],
      "stateMutability": "view",
      "type": "function"
    },
    {
      "inputs": [],
      "name": "rewardToken",
      "outputs": [
        {
          "internalType": "contract TokenInterface",
          "name": "",
          "type": "address"
        }
      ],
      "stateMutability": "view",
      "type": "function"
    },
    {
      "inputs": [],
      "name": "rewardsDai",
      "outputs": [
        {
          "internalType": "uint256",
          "name": "",
          "type": "uint256"
        }
      ],
      "stateMutability": "view",
      "type": "function"
    },
    {
      "inputs": [],
      "name": "rewardsMatic",
      "outputs": [
        {
          "internalType": "uint256",
          "name": "",
          "type": "uint256"
        }
      ],
      "stateMutability": "view",
      "type": "function"
    },
    {
      "inputs": [
        {
          "internalType": "address",
          "name": "_trader",
          "type": "address"
        },
        {
          "internalType": "uint256",
          "name": "_amount",
          "type": "uint256"
        }
      ],
      "name": "sendDaiToTrader",
      "outputs": [],
      "stateMutability": "nonpayable",
      "type": "function"
    },
    {
      "inputs": [
        {
          "internalType": "uint256",
          "name": "_maxWithdrawP",
          "type": "uint256"
        }
      ],
      "name": "setMaxWithdrawP",
      "outputs": [],
      "stateMutability": "nonpayable",
      "type": "function"
    },
    {
      "inputs": [
        {
          "internalType": "address",
          "name": "_rewardDistributor",
          "type": "address"
        }
      ],
      "name": "setRewardDistributor",
      "outputs": [],
      "stateMutability": "nonpayable",
      "type": "function"
    },
    {
      "inputs": [
        {
          "internalType": "contract TokenInterface",
          "name": "_rewardToken",
          "type": "address"
        }
      ],
      "name": "setRewardToken",
      "outputs": [],
      "stateMutability": "nonpayable",
      "type": "function"
    },
    {
      "inputs": [
        {
          "internalType": "uint256",
          "name": "_swapFeeP",
          "type": "uint256"
        }
      ],
      "name": "setSwapFeeP",
      "outputs": [],
      "stateMutability": "nonpayable",
      "type": "function"
    },
    {
      "inputs": [
        {
          "internalType": "uint256",
          "name": "_withdrawTimelock",
          "type": "uint256"
        }
      ],
      "name": "setWithdrawTimelock",
      "outputs": [],
      "stateMutability": "nonpayable",
      "type": "function"
    },
    {
      "inputs": [],
      "name": "storageT",
      "outputs": [
        {
          "internalType": "contract StorageInterface",
          "name": "",
          "type": "address"
        }
      ],
      "stateMutability": "view",
      "type": "function"
    },
    {
      "inputs": [],
      "name": "swapFeeP",
      "outputs": [
        {
          "internalType": "uint256",
          "name": "",
          "type": "uint256"
        }
      ],
      "stateMutability": "view",
      "type": "function"
    },
    {
      "inputs": [
        {
          "internalType": "address",
          "name": "",
          "type": "address"
        }
      ],
      "name": "users",
      "outputs": [
        {
          "internalType": "uint256",
          "name": "daiDeposited",
          "type": "uint256"
        },
        {
          "internalType": "uint256",
          "name": "maxDaiDeposited",
          "type": "uint256"
        },
        {
          "internalType": "uint256",
          "name": "withdrawBlock",
          "type": "uint256"
        },
        {
          "internalType": "uint256",
          "name": "debtDai",
          "type": "uint256"
        },
        {
          "internalType": "uint256",
          "name": "debtMatic",
          "type": "uint256"
        }
      ],
      "stateMutability": "view",
      "type": "function"
    },
    {
      "inputs": [
        {
          "internalType": "uint256",
          "name": "_amount",
          "type": "uint256"
        }
      ],
      "name": "withdraw",
      "outputs": [],
      "stateMutability": "nonpayable",
      "type": "function"
    },
    {
      "inputs": [],
      "name": "withdrawTimelock",
      "outputs": [
        {
          "internalType": "uint256",
          "name": "",
          "type": "uint256"
        }
      ],
      "stateMutability": "view",
      "type": "function"
    }
  ],
  "bytecode": "0x608060405261a8c060035560196004556175306005553480156200002257600080fd5b5060405162003703380380620037038339810160408190526200004591620000b2565b6001600160a01b0381166200008c5760405162461bcd60e51b81526020600482015260096024820152680414444524553535f360bc1b604482015260640160405180910390fd5b600080546001600160a01b0319166001600160a01b0392909216919091179055620000e4565b600060208284031215620000c557600080fd5b81516001600160a01b0381168114620000dd57600080fd5b9392505050565b61360f80620000f46000396000f3fe608060405234801561001057600080fd5b50600436106102de5760003560e01c80637144b6d611610186578063b243fb01116100e3578063de81630111610097578063fbe1ebec11610071578063fbe1ebec146105a6578063fd67d1b114610401578063fe80dd16146105b957600080fd5b8063de81630114610582578063f68183451461058b578063f7c618c11461059357600080fd5b8063c2a19c84116100c8578063c2a19c8414610540578063c4d66de814610549578063d4b46e041461055c57600080fd5b8063b243fb011461051a578063b6b55f251461052d57600080fd5b8063a6dc73181161013a578063a9d7f8891161011f578063a9d7f889146104f4578063aaf5eb68146104fd578063acc2166a1461050757600080fd5b8063a6dc731814610486578063a87430ba1461048f57600080fd5b806385d6f6f51161016b57806385d6f6f5146104575780638aee812714610460578063a1809b951461047357600080fd5b80637144b6d61461044557806379c160361461044e57600080fd5b806336efd16f1161023f5780634e71d92d116101f35780635cbd86cc116101cd5780635cbd86cc14610414578063620ed4fe1461041d57806363caf47a1461043d57600080fd5b80634e71d92d146103e657806351405422146103ee57806354b984b21461040157600080fd5b8063416df36611610224578063416df366146103c2578063423de639146103d55780634641257d146103de57600080fd5b806336efd16f146103a65780633ceaed96146103b957600080fd5b80631eefa74011610296578063288326ad1161027b578063288326ad1461036d57806329f79a74146103805780632e1a7d4d1461039357600080fd5b80631eefa74014610345578063214a9a331461035a57600080fd5b80630851a202116102c75780630851a2021461030857806316fff074146103115780631e2d87c81461033c57600080fd5b806305cc435f146102e35780630661c6ce146102ff575b600080fd5b6102ec600c5481565b6040519081526020015b60405180910390f35b6102ec60035481565b6102ec60075481565b600054610324906001600160a01b031681565b6040516001600160a01b0390911681526020016102f6565b6102ec600e5481565b610358610353366004612f32565b6105cc565b005b610358610368366004612f60565b610755565b61035861037b366004612f8c565b610a41565b61035861038e366004612f32565b610ce4565b6103586103a1366004612f32565b610e63565b6103586103b4366004612fb8565b6111e6565b6102ec60065481565b6103586103d0366004612f32565b611431565b6102ec60055481565b6103586115ff565b610358611838565b6102ec6103fc366004612fe8565b611a36565b6102ec61040f366004612fe8565b611ac2565b6102ec600a5481565b6102ec61042b366004612fe8565b60126020526000908152604090205481565b6102ec611b34565b6102ec600d5481565b6102ec60095481565b6102ec600b5481565b61035861046e366004612fe8565b611bb6565b610358610481366004612fe8565b611c5a565b6102ec60085481565b6104cc61049d366004612fe8565b601160205260009081526040902080546001820154600283015460038401546004909401549293919290919085565b604080519586526020860194909452928401919091526060830152608082015260a0016102f6565b6102ec60105481565b6102ec620186a081565b600254610324906001600160a01b031681565b610358610528366004612f32565b611d75565b61035861053b366004612f32565b611eab565b6102ec600f5481565b610358610557366004612fe8565b6120da565b61056f61056a366004612fe8565b612144565b6040516102f69796959493929190613152565b6102ec60045481565b6102ec612937565b600154610324906001600160a01b031681565b6103586105b4366004612fe8565b6129a0565b6103586105c73660046131ff565b612bfb565b60008054906101000a90046001600160a01b03166001600160a01b03166312d43a516040518163ffffffff1660e01b8152600401602060405180830381865afa15801561061d573d6000803e3d6000fd5b505050506040513d601f19601f820116820180604052508101906106419190613244565b6001600160a01b0316336001600160a01b0316146106915760405162461bcd60e51b8152602060048201526008602482015267474f565f4f4e4c5960c01b60448201526064015b60405180910390fd5b61a8c081116106e25760405162461bcd60e51b815260206004820152600f60248201527f4c4553535f5448414e5f315f44415900000000000000000000000000000000006044820152606401610688565b6003819055604080518181526010918101919091527f776974686472617754696d656c6f636b000000000000000000000000000000006060820152602081018290527f8cf3e35f6221b16e1670a3413180c9484bf5aa71787905909fa82a6a2662e9ab906080015b60405180910390a150565b60008054906101000a90046001600160a01b03166001600160a01b031662b127836040518163ffffffff1660e01b8152600401602060405180830381865afa1580156107a5573d6000803e3d6000fd5b505050506040513d601f19601f820116820180604052508101906107c99190613244565b6001600160a01b0316336001600160a01b03161461081a5760405162461bcd60e51b815260206004820152600e60248201526d43414c4c4241434b535f4f4e4c5960901b6044820152606401610688565b620186a060648260055461082e9190613277565b6108389190613296565b6108429190613296565b61084c90826132b8565b905060075481116109bb57806007600082825461086991906132b8565b90915550506000546040805163f4b9fa7560e01b815290516001600160a01b039092169163f4b9fa75916004808201926020929091908290030181865afa1580156108b8573d6000803e3d6000fd5b505050506040513d601f19601f820116820180604052508101906108dc9190613244565b60405163a9059cbb60e01b81526001600160a01b03848116600483015260248201849052919091169063a9059cbb906044016020604051808303816000875af115801561092d573d6000803e3d6000fd5b505050506040513d601f19601f8201168201806040525081019061095191906132df565b61095a57600080fd5b600754600654604080513381526001600160a01b0386166020820152908101849052606081019290925260808201527f80b773cd8ea3bf97475bccfb129d2ad177499dd4b091fbf87669b370fffef58c9060a0015b60405180910390a15050565b6001600160a01b038216600090815260126020526040812080548392906109e39084906132fa565b9091555050600754600654604080513381526001600160a01b0386166020820152908101849052606081019290925260808201527f7a17f79bf8cde7a30daa7135b2d37fac6ebbf8097bc0d3d5697faf40fbb7efb49060a0016109af565b6002546001600160a01b03163314610a8a5760405162461bcd60e51b815260206004820152600c60248201526b2ba927a723afa1a0a62622a960a11b6044820152606401610688565b60008111610ac55760405162461bcd60e51b81526020600482015260086024820152670414d4f554e545f360c41b6044820152606401610688565b818310610b145760405162461bcd60e51b815260206004820152600f60248201527f53544152545f41465445525f454e4400000000000000000000000000000000006044820152606401610688565b438311610b635760405162461bcd60e51b815260206004820152601060248201527f53544152545f4245464f52455f4e4f57000000000000000000000000000000006044820152606401610688565b600e544311610bbe5760405162461bcd60e51b815260206004820152602160248201527f4c4153545f4d415449435f444953545249425554494f4e5f4e4f545f454e44456044820152601160fa1b6064820152608401610688565b600060065411610c105760405162461bcd60e51b815260206004820152600d60248201527f4e4f5f4441495f5354414b4544000000000000000000000000000000000000006044820152606401610688565b610c18612dac565b600c819055508060106000828254610c3091906132fa565b90915550506000600f55610c4483836132b8565b610c4e9082613296565b600b55600d839055600e8290556001546040516323b872dd60e01b8152336004820152306024820152604481018390526001600160a01b03909116906323b872dd906064016020604051808303816000875af1158015610cb2573d6000803e3d6000fd5b505050506040513d601f19601f82011682018060405250810190610cd691906132df565b610cdf57600080fd5b505050565b60008054906101000a90046001600160a01b03166001600160a01b03166312d43a516040518163ffffffff1660e01b8152600401602060405180830381865afa158015610d35573d6000803e3d6000fd5b505050506040513d601f19601f82011682018060405250810190610d599190613244565b6001600160a01b0316336001600160a01b031614610da45760405162461bcd60e51b8152602060048201526008602482015267474f565f4f4e4c5960c01b6044820152606401610688565b620186a0811115610df75760405162461bcd60e51b815260206004820152600760248201527f41424f56455f31000000000000000000000000000000000000000000000000006044820152606401610688565b6005819055604080518181526008918101919091527f73776170466565500000000000000000000000000000000000000000000000006060820152602081018290527f8cf3e35f6221b16e1670a3413180c9484bf5aa71787905909fa82a6a2662e9ab9060800161074a565b33600090815260116020526040902081610eaa5760405162461bcd60e51b81526020600482015260086024820152670414d4f554e545f360c41b6044820152606401610688565b600754821115610eee5760405162461bcd60e51b815260206004820152600f60248201526e42414c414e43455f544f4f5f4c4f5760881b6044820152606401610688565b8054821115610f3f5760405162461bcd60e51b815260206004820152601f60248201527f5749544844524157494e475f4d4f52455f5448414e5f4445504f5349544544006044820152606401610688565b60646004548260010154610f539190613277565b610f5d9190613296565b821115610fac5760405162461bcd60e51b815260206004820152600e60248201527f4d41585f57495448445241575f500000000000000000000000000000000000006044820152606401610688565b6003548160020154610fbe91906132fa565b43101561100d5760405162461bcd60e51b815260206004820152600960248201527f544f4f5f4541524c5900000000000000000000000000000000000000000000006044820152606401610688565b6110156115ff565b816007600082825461102791906132b8565b92505081905550816006600082825461104091906132b8565b90915550508054829082906000906110599084906132b8565b90915550504360028201556009548154670de0b6b3a76400009161107c91613277565b6110869190613296565b6003820155600c548154670de0b6b3a7640000916110a391613277565b6110ad9190613296565b6004808301919091556000546040805163f4b9fa7560e01b815290516001600160a01b039092169263f4b9fa759282820192602092908290030181865afa1580156110fc573d6000803e3d6000fd5b505050506040513d601f19601f820116820180604052508101906111209190613244565b60405163a9059cbb60e01b8152336004820152602481018490526001600160a01b03919091169063a9059cbb906044016020604051808303816000875af115801561116f573d6000803e3d6000fd5b505050506040513d601f19601f8201168201806040525081019061119391906132df565b61119c57600080fd5b60075460065460408051338152602081018690529081019290925260608201527f75e161b3e824b114fc1a33274bd7091918dd4e639cede50b78b15a4eea956a21906080016109af565b6001600160a01b0381166000908152601160205260409020826112365760405162461bcd60e51b81526020600482015260086024820152670414d4f554e545f360c41b6044820152606401610688565b60008054906101000a90046001600160a01b03166001600160a01b031663f4b9fa756040518163ffffffff1660e01b8152600401602060405180830381865afa158015611287573d6000803e3d6000fd5b505050506040513d601f19601f820116820180604052508101906112ab9190613244565b6040516323b872dd60e01b8152336004820152306024820152604481018590526001600160a01b0391909116906323b872dd906064016020604051808303816000875af1158015611300573d6000803e3d6000fd5b505050506040513d601f19601f8201168201806040525081019061132491906132df565b61132d57600080fd5b611336826129a0565b826007600082825461134891906132fa565b92505081905550826006600082825461136191906132fa565b909155505080548390829060009061137a9084906132fa565b9091555050805460018201819055600954670de0b6b3a76400009161139f9190613277565b6113a99190613296565b6003820155600c548154670de0b6b3a7640000916113c691613277565b6113d09190613296565b6004820155600754600654604080516001600160a01b0386168152602081018790529081019290925260608201527f91ede45f04a37a7c170f5c1207df3b6bc748dc1e04ad5e917a241d0f52feada3906080015b60405180910390a1505050565b60008054906101000a90046001600160a01b03166001600160a01b03166312d43a516040518163ffffffff1660e01b8152600401602060405180830381865afa158015611482573d6000803e3d6000fd5b505050506040513d601f19601f820116820180604052508101906114a69190613244565b6001600160a01b0316336001600160a01b0316146114f15760405162461bcd60e51b8152602060048201526008602482015267474f565f4f4e4c5960c01b6044820152606401610688565b600a8110156115425760405162461bcd60e51b815260206004820152600860248201527f42454c4f575f31300000000000000000000000000000000000000000000000006044820152606401610688565b60648111156115935760405162461bcd60e51b815260206004820152600960248201527f41424f56455f31303000000000000000000000000000000000000000000000006044820152606401610688565b600481905560408051818152600c918101919091527f6d617857697468647261775000000000000000000000000000000000000000006060820152602081018290527f8cf3e35f6221b16e1670a3413180c9484bf5aa71787905909fa82a6a2662e9ab9060800161074a565b33600090815260116020526040812090611617612937565b905060008054906101000a90046001600160a01b03166001600160a01b031663f4b9fa756040518163ffffffff1660e01b8152600401602060405180830381865afa15801561166a573d6000803e3d6000fd5b505050506040513d601f19601f8201168201806040525081019061168e9190613244565b60405163a9059cbb60e01b8152336004820152602481018390526001600160a01b03919091169063a9059cbb906044016020604051808303816000875af11580156116dd573d6000803e3d6000fd5b505050506040513d601f19601f8201168201806040525081019061170191906132df565b61170a57600080fd5b6009548254670de0b6b3a76400009161172291613277565b61172c9190613296565b6003830155600061173b611b34565b905080156117fa5761174b612dac565b600c81905543600f558354670de0b6b3a76400009161176991613277565b6117739190613296565b60048481019190915560015460405163a9059cbb60e01b81523392810192909252602482018390526001600160a01b03169063a9059cbb906044016020604051808303816000875af11580156117cd573d6000803e3d6000fd5b505050506040513d601f19601f820116820180604052508101906117f191906132df565b6117fa57600080fd5b60408051338152602081018490529081018290527f71bab65ced2e5750775a0613be067df48ef06cf92a496ebf7663ae066092495490606001611424565b33600090815260126020526040902054806118955760405162461bcd60e51b815260206004820152601060248201527f4e4f5448494e475f544f5f434c41494d000000000000000000000000000000006044820152606401610688565b80600754116118d85760405162461bcd60e51b815260206004820152600f60248201526e42414c414e43455f544f4f5f4c4f5760881b6044820152606401610688565b80600760008282546118ea91906132b8565b90915550506000546040805163f4b9fa7560e01b815290516001600160a01b039092169163f4b9fa75916004808201926020929091908290030181865afa158015611939573d6000803e3d6000fd5b505050506040513d601f19601f8201168201806040525081019061195d9190613244565b60405163a9059cbb60e01b8152336004820152602481018390526001600160a01b03919091169063a9059cbb906044016020604051808303816000875af11580156119ac573d6000803e3d6000fd5b505050506040513d601f19601f820116820180604052508101906119d091906132df565b6119d957600080fd5b3360008181526012602090815260408083209290925560075460065483519485529184018590529183019190915260608201527f9cdcf2f7714cca3508c7f0110b04a90a80a3a8dd0e35de99689db74d28c5383e9060800161074a565b6001600160a01b0381166000908152601160209081526040808320815160a08101835281548152600182015493810193909352600281015491830191909152600381015460608301526004015460808201819052670de0b6b3a7640000611a9b612dac565b8351611aa79190613277565b611ab19190613296565b611abb91906132b8565b9392505050565b6001600160a01b0381166000908152601160209081526040808320815160a0810183528154808252600183015494820194909452600282015492810192909252600381015460608301819052600490910154608083015260095491929091670de0b6b3a764000091611aa79190613277565b336000908152601160209081526040808320815160a08101835281548152600182015493810193909352600281015491830191909152600381015460608301526004015460808201819052670de0b6b3a7640000611b90612dac565b8351611b9c9190613277565b611ba69190613296565b611bb091906132b8565b91505090565b6002546001600160a01b03163314611bff5760405162461bcd60e51b815260206004820152600c60248201526b2ba927a723afa1a0a62622a960a11b6044820152606401610688565b6001805473ffffffffffffffffffffffffffffffffffffffff19166001600160a01b0383169081179091556040519081527fa5289ba11778999f4dfb9415023783188d42bbb5db0612cbfbe55999069612a09060200161074a565b60008054906101000a90046001600160a01b03166001600160a01b03166312d43a516040518163ffffffff1660e01b8152600401602060405180830381865afa158015611cab573d6000803e3d6000fd5b505050506040513d601f19601f82011682018060405250810190611ccf9190613244565b6001600160a01b0316336001600160a01b031614611d1a5760405162461bcd60e51b8152602060048201526008602482015267474f565f4f4e4c5960c01b6044820152606401610688565b6002805473ffffffffffffffffffffffffffffffffffffffff19166001600160a01b0383169081179091556040519081527f15057bbec20fe352ac8931e529ade6a9ce138c954ffc87d6aa3423dd066c4acd9060200161074a565b60008054906101000a90046001600160a01b03166001600160a01b031662b127836040518163ffffffff1660e01b8152600401602060405180830381865afa158015611dc5573d6000803e3d6000fd5b505050506040513d601f19601f82011682018060405250810190611de99190613244565b6001600160a01b0316336001600160a01b031614611e3a5760405162461bcd60e51b815260206004820152600e60248201526d43414c4c4241434b535f4f4e4c5960901b6044820152606401610688565b60065415611ea8578060076000828254611e5491906132b8565b9091555050600654611e6e82670de0b6b3a7640000613277565b611e789190613296565b60096000828254611e8991906132fa565b9250508190555080600a6000828254611ea291906132fa565b90915550505b50565b33600090815260116020526040902081611ef25760405162461bcd60e51b81526020600482015260086024820152670414d4f554e545f360c41b6044820152606401610688565b60008054906101000a90046001600160a01b03166001600160a01b031663f4b9fa756040518163ffffffff1660e01b8152600401602060405180830381865afa158015611f43573d6000803e3d6000fd5b505050506040513d601f19601f82011682018060405250810190611f679190613244565b6040516323b872dd60e01b8152336004820152306024820152604481018490526001600160a01b0391909116906323b872dd906064016020604051808303816000875af1158015611fbc573d6000803e3d6000fd5b505050506040513d601f19601f82011682018060405250810190611fe091906132df565b611fe957600080fd5b611ff16115ff565b816007600082825461200391906132fa565b92505081905550816006600082825461201c91906132fa565b90915550508054829082906000906120359084906132fa565b9091555050805460018201819055600954670de0b6b3a76400009161205a9190613277565b6120649190613296565b6003820155600c548154670de0b6b3a76400009161208191613277565b61208b9190613296565b600482015560075460065460408051338152602081018690529081019290925260608201527f91ede45f04a37a7c170f5c1207df3b6bc748dc1e04ad5e917a241d0f52feada3906080016109af565b6000546001600160a01b03161580156120fb57506001600160a01b03811615155b61210457600080fd5b6000805473ffffffffffffffffffffffffffffffffffffffff19166001600160a01b039290921691909117905561a8c06003556019600455617530600555565b600080600061217660405180606001604052806000815260200160006001600160a01b03168152602001600081525090565b606080612181612e76565b60008054604051632e3b564f60e11b81526001600160a01b038b8116600483015290911690635c76ac9e90602401600060405180830381865afa1580156121cc573d6000803e3d6000fd5b505050506040513d6000823e601f3d908101601f191682016040526121f491908101906133a6565b90506000815167ffffffffffffffff81111561221257612212613312565b60405190808252806020026020018201604052801561224b57816020015b612238612e9d565b8152602001906001900390816122305790505b50905060005b825181101561231b5760005483516001600160a01b039091169063b66e6b05908590849081106122835761228361344c565b60200260200101516040518263ffffffff1660e01b81526004016122a991815260200190565b6101e060405180830381865afa1580156122c7573d6000803e3d6000fd5b505050506040513d601f19601f820116820180604052508101906122eb9190613462565b8282815181106122fd576122fd61344c565b6020026020010181905250808061231390613545565b915050612251565b50612324612e76565b60005b60058110156125ba576000805460405163265aa62160e01b8152600481018490526001600160a01b039091169063265aa62190602401602060405180830381865afa15801561237a573d6000803e3d6000fd5b505050506040513d601f19601f8201168201806040525081019061239e9190613244565b6040516370a0823160e01b81526001600160a01b038f8116600483015291909116906370a0823190602401602060405180830381865afa1580156123e6573d6000803e3d6000fd5b505050506040513d601f19601f8201168201806040525081019061240a919061355e565b90508067ffffffffffffffff81111561242557612425613312565b60405190808252806020026020018201604052801561244e578160200160208202803683370190505b508383600581106124615761246161344c565b602002015260005b818110156125a55760005460405163265aa62160e01b8152600481018590526001600160a01b039091169063265aa62190602401602060405180830381865afa1580156124ba573d6000803e3d6000fd5b505050506040513d601f19601f820116820180604052508101906124de9190613244565b6001600160a01b0316632f745c598f836040518363ffffffff1660e01b815260040161251f9291906001600160a01b03929092168252602082015260400190565b602060405180830381865afa15801561253c573d6000803e3d6000fd5b505050506040513d601f19601f82011682018060405250810190612560919061355e565b8484600581106125725761257261344c565b602002015182815181106125885761258861344c565b60209081029190910101528061259d81613545565b915050612469565b505080806125b290613545565b915050612327565b5060008054906101000a90046001600160a01b03166001600160a01b031663f4b9fa756040518163ffffffff1660e01b8152600401602060405180830381865afa15801561260c573d6000803e3d6000fd5b505050506040513d601f19601f820116820180604052508101906126309190613244565b600054604051636eb1769f60e11b81526001600160a01b038e81166004830152918216602482015291169063dd62ed3e90604401602060405180830381865afa158015612681573d6000803e3d6000fd5b505050506040513d601f19601f820116820180604052508101906126a5919061355e565b60008054906101000a90046001600160a01b03166001600160a01b031663f4b9fa756040518163ffffffff1660e01b8152600401602060405180830381865afa1580156126f6573d6000803e3d6000fd5b505050506040513d601f19601f8201168201806040525081019061271a9190613244565b6040516370a0823160e01b81526001600160a01b038e8116600483015291909116906370a0823190602401602060405180830381865afa158015612762573d6000803e3d6000fd5b505050506040513d601f19601f82011682018060405250810190612786919061355e565b60008054906101000a90046001600160a01b03166001600160a01b031663fece4eac6040518163ffffffff1660e01b8152600401602060405180830381865afa1580156127d7573d6000803e3d6000fd5b505050506040513d601f19601f820116820180604052508101906127fb9190613244565b6001600160a01b031663dd62ed3e8e60008054906101000a90046001600160a01b03166040518363ffffffff1660e01b81526004016128509291906001600160a01b0392831681529116602082015260400190565b602060405180830381865afa15801561286d573d6000803e3d6000fd5b505050506040513d601f19601f82011682018060405250810190612891919061355e565b60008054906101000a90046001600160a01b03166001600160a01b03166392a88fa28f6040518263ffffffff1660e01b81526004016128df91906001600160a01b0391909116815260200190565b606060405180830381865afa1580156128fc573d6000803e3d6000fd5b505050506040513d601f19601f820116820180604052508101906129209190613577565b929e919d509b509099509297509095509350915050565b336000908152601160209081526040808320815160a0810183528154808252600183015494820194909452600282015492810192909252600381015460608301819052600490910154608083015260095491929091670de0b6b3a764000091611b9c9190613277565b6001600160a01b0381166000908152601160205260408120906129c283611ac2565b905060008054906101000a90046001600160a01b03166001600160a01b031663f4b9fa756040518163ffffffff1660e01b8152600401602060405180830381865afa158015612a15573d6000803e3d6000fd5b505050506040513d601f19601f82011682018060405250810190612a399190613244565b60405163a9059cbb60e01b81526001600160a01b03858116600483015260248201849052919091169063a9059cbb906044016020604051808303816000875af1158015612a8a573d6000803e3d6000fd5b505050506040513d601f19601f82011682018060405250810190612aae91906132df565b612ab757600080fd5b6009548254670de0b6b3a764000091612acf91613277565b612ad99190613296565b60038301556000612ae984611a36565b90508015612bab57612af9612dac565b600c81905543600f558354670de0b6b3a764000091612b1791613277565b612b219190613296565b60048481019190915560015460405163a9059cbb60e01b81526001600160a01b03878116938201939093526024810184905291169063a9059cbb906044016020604051808303816000875af1158015612b7e573d6000803e3d6000fd5b505050506040513d601f19601f82011682018060405250810190612ba291906132df565b612bab57600080fd5b604080516001600160a01b0386168152602081018490529081018290527f71bab65ced2e5750775a0613be067df48ef06cf92a496ebf7663ae06609249549060600160405180910390a150505050565b60008054906101000a90046001600160a01b03166001600160a01b031662b127836040518163ffffffff1660e01b8152600401602060405180830381865afa158015612c4b573d6000803e3d6000fd5b505050506040513d601f19601f82011682018060405250810190612c6f9190613244565b6001600160a01b0316336001600160a01b031614612cc05760405162461bcd60e51b815260206004820152600e60248201526d43414c4c4241434b535f4f4e4c5960901b6044820152606401610688565b60005460405163373873db60e11b81526001600160a01b03909116600482018190523060248301526044820184905290636e70e7b690606401600060405180830381600087803b158015612d1357600080fd5b505af1158015612d27573d6000803e3d6000fd5b505050508160076000828254612d3d91906132fa565b90915550612d4c905081611d75565b600754600654604080513381526001600160a01b038716602082015290810185905260608101849052608081019290925260a08201527ffe3518e5e73f574892bc6ff79a4ac4816e01c14b62127612ca3aa45667db361b9060c001611424565b6000600654600003612dbf5750600c5490565b6000600d54431115612e3d57600e544311612e0257600f5415612dee57600f54612de990436132b8565b612dfb565b600d54612dfb90436132b8565b9050612e3d565b600e54600f5411612e3d57600f5415612e2a57600f54600e54612e2591906132b8565b612e3a565b600d54600e54612e3a91906132b8565b90505b600654600b54612e4d9083613277565b612e5f90670de0b6b3a7640000613277565b612e699190613296565b600c54611bb091906132fa565b6040518060a001604052806005905b6060815260200190600190039081612e855790505090565b6040518060c00160405280612f0960405180610140016040528060006001600160a01b0316815260200160008152602001600081526020016000815260200160008152602001600081526020016000151581526020016000815260200160008152602001600081525090565b815260200160008152602001600081526020016000815260200160008152602001600081525090565b600060208284031215612f4457600080fd5b5035919050565b6001600160a01b0381168114611ea857600080fd5b60008060408385031215612f7357600080fd5b8235612f7e81612f4b565b946020939093013593505050565b600080600060608486031215612fa157600080fd5b505081359360208301359350604090920135919050565b60008060408385031215612fcb57600080fd5b823591506020830135612fdd81612f4b565b809150509250929050565b600060208284031215612ffa57600080fd5b8135611abb81612f4b565b600081518084526020808501945080840160005b838110156130da578151805180516001600160a01b0316895284810151858a0152604080820151818b0152606080830151818c0152608080840151818d015260a080850151818e015260c085015161307560c08f018215159052565b5060e085810151908e015261010080860151908e015261012094850151948d0194909452848801516101408d0152918401516101608c01528301516101808b01528201516101a08a015201516101c08801526101e09096019590820190600101613019565b509495945050505050565b60008260a08101836000805b6005811015613146578484038852825180518086526020918201918087019190855b8281101561312f57845184529381019392810192600101613113565b509a8b019a919650509390930192506001016130f1565b50919695505050505050565b60006101208083018a845260208a81860152896040860152885160608601526001600160a01b03818a0151166080860152604089015160a08601528260c0860152819250875180835261014086019350818901925060005b818110156131c6578351855293820193928201926001016131aa565b5050505082810360e08401526131dc8186613005565b90508281036101008401526131f181856130e5565b9a9950505050505050505050565b60008060006060848603121561321457600080fd5b833561321f81612f4b565b95602085013595506040909401359392505050565b805161323f81612f4b565b919050565b60006020828403121561325657600080fd5b8151611abb81612f4b565b634e487b7160e01b600052601160045260246000fd5b600081600019048311821515161561329157613291613261565b500290565b6000826132b357634e487b7160e01b600052601260045260246000fd5b500490565b6000828210156132ca576132ca613261565b500390565b8051801515811461323f57600080fd5b6000602082840312156132f157600080fd5b611abb826132cf565b6000821982111561330d5761330d613261565b500190565b634e487b7160e01b600052604160045260246000fd5b60405160c0810167ffffffffffffffff8111828210171561334b5761334b613312565b60405290565b604051610140810167ffffffffffffffff8111828210171561334b5761334b613312565b604051601f8201601f1916810167ffffffffffffffff8111828210171561339e5761339e613312565b604052919050565b600060208083850312156133b957600080fd5b825167ffffffffffffffff808211156133d157600080fd5b818501915085601f8301126133e557600080fd5b8151818111156133f7576133f7613312565b8060051b9150613408848301613375565b818152918301840191848101908884111561342257600080fd5b938501935b8385101561344057845182529385019390850190613427565b98975050505050505050565b634e487b7160e01b600052603260045260246000fd5b60008183036101e081121561347657600080fd5b61347e613328565b6101408083121561348e57600080fd5b613496613351565b92506134a185613234565b83526020850151602084015260408501516040840152606085015160608401526080850151608084015260a085015160a08401526134e160c086016132cf565b60c084015260e0858101519084015261010080860151908401526101208086015190840152918152908301516020820152610160830151604082015261018083015160608201526101a083015160808201526101c09092015160a083015250919050565b60006001820161355757613557613261565b5060010190565b60006020828403121561357057600080fd5b5051919050565b60006060828403121561358957600080fd5b6040516060810181811067ffffffffffffffff821117156135ac576135ac613312565b6040528251815260208301516135c181612f4b565b6020820152604092830151928101929092525091905056fea2646970667358221220832ce8cd3098941159f97ab74490b5f758e3c6325eb5eecedfe22b4ca67b5a4064736f6c634300080e0033",
  "linkReferences": {},
  "deployedLinkReferences": {}
}