{
  "_format": "hh-sol-artifact-1",
  "contractName": "Trading",
  "sourceName": "contracts/Trading.sol",
  "abi": [
    {
      "inputs": [
        {
          "internalType": "contract StorageInterface",
          "name": "_storageT",
          "type": "address"
        },
        {
          "internalType": "contract PairInfosInterface",
          "name": "_pairInfos",
          "type": "address"
        }
      ],
      "stateMutability": "nonpayable",
      "type": "constructor"
    },
    {
      "anonymous": false,
      "inputs": [
        {
          "indexed": false,
          "internalType": "string",
          "name": "name",
          "type": "string"
        },
        {
          "indexed": false,
          "internalType": "address",
          "name": "a",
          "type": "address"
        }
      ],
      "name": "AddressUpdated",
      "type": "event"
    },
    {
      "anonymous": false,
      "inputs": [
        {
          "indexed": false,
          "internalType": "uint256",
          "name": "orderId",
          "type": "uint256"
        },
        {
          "components": [
            {
              "components": [
                {
                  "internalType": "address",
                  "name": "trader",
                  "type": "address"
                },
                {
                  "internalType": "uint256",
                  "name": "pairIndex",
                  "type": "uint256"
                },
                {
                  "internalType": "uint256",
                  "name": "index",
                  "type": "uint256"
                },
                {
                  "internalType": "uint256",
                  "name": "initialPosToken",
                  "type": "uint256"
                },
                {
                  "internalType": "uint256",
                  "name": "positionSizeDai",
                  "type": "uint256"
                },
                {
                  "internalType": "uint256",
                  "name": "openPrice",
                  "type": "uint256"
                },
                {
                  "internalType": "bool",
                  "name": "buy",
                  "type": "bool"
                },
                {
                  "internalType": "uint256",
                  "name": "leverage",
                  "type": "uint256"
                },
                {
                  "internalType": "uint256",
                  "name": "tp",
                  "type": "uint256"
                },
                {
                  "internalType": "uint256",
                  "name": "sl",
                  "type": "uint256"
                }
              ],
              "internalType": "struct StorageInterface.Trade",
              "name": "trade",
              "type": "tuple"
            },
            {
              "internalType": "uint256",
              "name": "block",
              "type": "uint256"
            },
            {
              "internalType": "uint256",
              "name": "wantedPrice",
              "type": "uint256"
            },
            {
              "internalType": "uint256",
              "name": "slippageP",
              "type": "uint256"
            },
            {
              "internalType": "uint256",
              "name": "spreadReductionP",
              "type": "uint256"
            },
            {
              "internalType": "uint256",
              "name": "tokenId",
              "type": "uint256"
            }
          ],
          "indexed": false,
          "internalType": "struct StorageInterface.PendingMarketOrder",
          "name": "order",
          "type": "tuple"
        }
      ],
      "name": "ChainlinkCallbackTimeout",
      "type": "event"
    },
    {
      "anonymous": false,
      "inputs": [
        {
          "indexed": false,
          "internalType": "address",
          "name": "trader",
          "type": "address"
        },
        {
          "indexed": false,
          "internalType": "uint256",
          "name": "pairIndex",
          "type": "uint256"
        },
        {
          "indexed": false,
          "internalType": "uint256",
          "name": "index",
          "type": "uint256"
        }
      ],
      "name": "CouldNotCloseTrade",
      "type": "event"
    },
    {
      "anonymous": false,
      "inputs": [
        {
          "indexed": false,
          "internalType": "bool",
          "name": "done",
          "type": "bool"
        }
      ],
      "name": "Done",
      "type": "event"
    },
    {
      "anonymous": false,
      "inputs": [
        {
          "indexed": false,
          "internalType": "address",
          "name": "trader",
          "type": "address"
        },
        {
          "indexed": false,
          "internalType": "uint256",
          "name": "pairIndex",
          "type": "uint256"
        },
        {
          "indexed": false,
          "internalType": "bool",
          "name": "open",
          "type": "bool"
        },
        {
          "indexed": false,
          "internalType": "uint256",
          "name": "orderId",
          "type": "uint256"
        }
      ],
      "name": "MarketOrderInitiated",
      "type": "event"
    },
    {
      "anonymous": false,
      "inputs": [
        {
          "indexed": false,
          "internalType": "address",
          "name": "nftHolder",
          "type": "address"
        },
        {
          "indexed": false,
          "internalType": "address",
          "name": "trader",
          "type": "address"
        },
        {
          "indexed": false,
          "internalType": "uint256",
          "name": "pairIndex",
          "type": "uint256"
        },
        {
          "indexed": false,
          "internalType": "uint256",
          "name": "orderId",
          "type": "uint256"
        }
      ],
      "name": "NftOrderInitiated",
      "type": "event"
    },
    {
      "anonymous": false,
      "inputs": [
        {
          "indexed": false,
          "internalType": "address",
          "name": "nftHolder",
          "type": "address"
        },
        {
          "indexed": false,
          "internalType": "address",
          "name": "trader",
          "type": "address"
        },
        {
          "indexed": false,
          "internalType": "uint256",
          "name": "pairIndex",
          "type": "uint256"
        }
      ],
      "name": "NftOrderSameBlock",
      "type": "event"
    },
    {
      "anonymous": false,
      "inputs": [
        {
          "indexed": false,
          "internalType": "string",
          "name": "name",
          "type": "string"
        },
        {
          "indexed": false,
          "internalType": "uint256",
          "name": "value",
          "type": "uint256"
        }
      ],
      "name": "NumberUpdated",
      "type": "event"
    },
    {
      "anonymous": false,
      "inputs": [
        {
          "indexed": false,
          "internalType": "address",
          "name": "trader",
          "type": "address"
        },
        {
          "indexed": false,
          "internalType": "uint256",
          "name": "pairIndex",
          "type": "uint256"
        },
        {
          "indexed": false,
          "internalType": "uint256",
          "name": "index",
          "type": "uint256"
        }
      ],
      "name": "OpenLimitCanceled",
      "type": "event"
    },
    {
      "anonymous": false,
      "inputs": [
        {
          "indexed": false,
          "internalType": "address",
          "name": "trader",
          "type": "address"
        },
        {
          "indexed": false,
          "internalType": "uint256",
          "name": "pairIndex",
          "type": "uint256"
        },
        {
          "indexed": false,
          "internalType": "uint256",
          "name": "index",
          "type": "uint256"
        }
      ],
      "name": "OpenLimitPlaced",
      "type": "event"
    },
    {
      "anonymous": false,
      "inputs": [
        {
          "indexed": false,
          "internalType": "address",
          "name": "trader",
          "type": "address"
        },
        {
          "indexed": false,
          "internalType": "uint256",
          "name": "pairIndex",
          "type": "uint256"
        },
        {
          "indexed": false,
          "internalType": "uint256",
          "name": "index",
          "type": "uint256"
        },
        {
          "indexed": false,
          "internalType": "uint256",
          "name": "newPrice",
          "type": "uint256"
        },
        {
          "indexed": false,
          "internalType": "uint256",
          "name": "newTp",
          "type": "uint256"
        },
        {
          "indexed": false,
          "internalType": "uint256",
          "name": "newSl",
          "type": "uint256"
        }
      ],
      "name": "OpenLimitUpdated",
      "type": "event"
    },
    {
      "anonymous": false,
      "inputs": [
        {
          "indexed": false,
          "internalType": "bool",
          "name": "paused",
          "type": "bool"
        }
      ],
      "name": "Paused",
      "type": "event"
    },
    {
      "anonymous": false,
      "inputs": [
        {
          "indexed": false,
          "internalType": "address",
          "name": "trader",
          "type": "address"
        },
        {
          "indexed": false,
          "internalType": "uint256",
          "name": "pairIndex",
          "type": "uint256"
        },
        {
          "indexed": false,
          "internalType": "uint256",
          "name": "index",
          "type": "uint256"
        },
        {
          "indexed": false,
          "internalType": "uint256",
          "name": "newSl",
          "type": "uint256"
        },
        {
          "indexed": false,
          "internalType": "uint256",
          "name": "orderId",
          "type": "uint256"
        }
      ],
      "name": "SlUpdateInitiated",
      "type": "event"
    },
    {
      "anonymous": false,
      "inputs": [
        {
          "indexed": false,
          "internalType": "address",
          "name": "trader",
          "type": "address"
        },
        {
          "indexed": false,
          "internalType": "uint256",
          "name": "pairIndex",
          "type": "uint256"
        },
        {
          "indexed": false,
          "internalType": "uint256",
          "name": "index",
          "type": "uint256"
        },
        {
          "indexed": false,
          "internalType": "uint256",
          "name": "newSl",
          "type": "uint256"
        }
      ],
      "name": "SlUpdated",
      "type": "event"
    },
    {
      "anonymous": false,
      "inputs": [
        {
          "indexed": false,
          "internalType": "address",
          "name": "trader",
          "type": "address"
        },
        {
          "indexed": false,
          "internalType": "uint256",
          "name": "pairIndex",
          "type": "uint256"
        },
        {
          "indexed": false,
          "internalType": "uint256",
          "name": "index",
          "type": "uint256"
        },
        {
          "indexed": false,
          "internalType": "uint256",
          "name": "newTp",
          "type": "uint256"
        }
      ],
      "name": "TpUpdated",
      "type": "event"
    },
    {
      "inputs": [
        {
          "internalType": "uint256",
          "name": "_pairIndex",
          "type": "uint256"
        },
        {
          "internalType": "uint256",
          "name": "_index",
          "type": "uint256"
        }
      ],
      "name": "cancelOpenLimitOrder",
      "outputs": [],
      "stateMutability": "nonpayable",
      "type": "function"
    },
    {
      "inputs": [
        {
          "internalType": "uint256",
          "name": "_pairIndex",
          "type": "uint256"
        },
        {
          "internalType": "uint256",
          "name": "_index",
          "type": "uint256"
        }
      ],
      "name": "closeTradeMarket",
      "outputs": [],
      "stateMutability": "payable",
      "type": "function"
    },
    {
      "inputs": [
        {
          "internalType": "uint256",
          "name": "_order",
          "type": "uint256"
        }
      ],
      "name": "closeTradeMarketTimeout",
      "outputs": [],
      "stateMutability": "nonpayable",
      "type": "function"
    },
    {
      "inputs": [],
      "name": "done",
      "outputs": [],
      "stateMutability": "nonpayable",
      "type": "function"
    },
    {
      "inputs": [
        {
          "internalType": "enum StorageInterface.LimitOrder",
          "name": "_orderType",
          "type": "uint8"
        },
        {
          "internalType": "address",
          "name": "_trader",
          "type": "address"
        },
        {
          "internalType": "uint256",
          "name": "_pairIndex",
          "type": "uint256"
        },
        {
          "internalType": "uint256",
          "name": "_index",
          "type": "uint256"
        },
        {
          "internalType": "uint256",
          "name": "_nftId",
          "type": "uint256"
        },
        {
          "internalType": "uint256",
          "name": "_nftType",
          "type": "uint256"
        }
      ],
      "name": "executeNftOrder",
      "outputs": [],
      "stateMutability": "nonpayable",
      "type": "function"
    },
    {
      "inputs": [
        {
          "internalType": "contract StorageInterface",
          "name": "_storageT",
          "type": "address"
        },
        {
          "internalType": "contract PairInfosInterface",
          "name": "_pairInfos",
          "type": "address"
        }
      ],
      "name": "initialize",
      "outputs": [],
      "stateMutability": "nonpayable",
      "type": "function"
    },
    {
      "inputs": [],
      "name": "isDone",
      "outputs": [
        {
          "internalType": "bool",
          "name": "",
          "type": "bool"
        }
      ],
      "stateMutability": "view",
      "type": "function"
    },
    {
      "inputs": [],
      "name": "isPaused",
      "outputs": [
        {
          "internalType": "bool",
          "name": "",
          "type": "bool"
        }
      ],
      "stateMutability": "view",
      "type": "function"
    },
    {
      "inputs": [],
      "name": "limitOrdersTimelock",
      "outputs": [
        {
          "internalType": "uint256",
          "name": "",
          "type": "uint256"
        }
      ],
      "stateMutability": "view",
      "type": "function"
    },
    {
      "inputs": [],
      "name": "marketOrdersTimeout",
      "outputs": [
        {
          "internalType": "uint256",
          "name": "",
          "type": "uint256"
        }
      ],
      "stateMutability": "view",
      "type": "function"
    },
    {
      "inputs": [],
      "name": "maxPosDai",
      "outputs": [
        {
          "internalType": "uint256",
          "name": "",
          "type": "uint256"
        }
      ],
      "stateMutability": "view",
      "type": "function"
    },
    {
      "inputs": [],
      "name": "minExecutionFee",
      "outputs": [
        {
          "internalType": "uint256",
          "name": "",
          "type": "uint256"
        }
      ],
      "stateMutability": "view",
      "type": "function"
    },
    {
      "inputs": [
        {
          "components": [
            {
              "internalType": "address",
              "name": "trader",
              "type": "address"
            },
            {
              "internalType": "uint256",
              "name": "pairIndex",
              "type": "uint256"
            },
            {
              "internalType": "uint256",
              "name": "index",
              "type": "uint256"
            },
            {
              "internalType": "uint256",
              "name": "initialPosToken",
              "type": "uint256"
            },
            {
              "internalType": "uint256",
              "name": "positionSizeDai",
              "type": "uint256"
            },
            {
              "internalType": "uint256",
              "name": "openPrice",
              "type": "uint256"
            },
            {
              "internalType": "bool",
              "name": "buy",
              "type": "bool"
            },
            {
              "internalType": "uint256",
              "name": "leverage",
              "type": "uint256"
            },
            {
              "internalType": "uint256",
              "name": "tp",
              "type": "uint256"
            },
            {
              "internalType": "uint256",
              "name": "sl",
              "type": "uint256"
            }
          ],
          "internalType": "struct StorageInterface.Trade",
          "name": "t",
          "type": "tuple"
        },
        {
          "internalType": "enum RewardsInterface.OpenLimitOrderType",
          "name": "_type",
          "type": "uint8"
        },
        {
          "internalType": "uint256",
          "name": "_spreadReductionId",
          "type": "uint256"
        },
        {
          "internalType": "uint256",
          "name": "_slippageP",
          "type": "uint256"
        },
        {
          "internalType": "address",
          "name": "_referral",
          "type": "address"
        }
      ],
      "name": "openTrade",
      "outputs": [],
      "stateMutability": "payable",
      "type": "function"
    },
    {
      "inputs": [
        {
          "internalType": "uint256",
          "name": "_order",
          "type": "uint256"
        }
      ],
      "name": "openTradeMarketTimeout",
      "outputs": [],
      "stateMutability": "nonpayable",
      "type": "function"
    },
    {
      "inputs": [],
      "name": "pause",
      "outputs": [],
      "stateMutability": "nonpayable",
      "type": "function"
    },
    {
      "inputs": [
        {
          "internalType": "uint256",
          "name": "_blocks",
          "type": "uint256"
        }
      ],
      "name": "setLimitOrdersTimelock",
      "outputs": [],
      "stateMutability": "nonpayable",
      "type": "function"
    },
    {
      "inputs": [
        {
          "internalType": "uint256",
          "name": "_marketOrdersTimeout",
          "type": "uint256"
        }
      ],
      "name": "setMarketOrdersTimeout",
      "outputs": [],
      "stateMutability": "nonpayable",
      "type": "function"
    },
    {
      "inputs": [
        {
          "internalType": "uint256",
          "name": "_max",
          "type": "uint256"
        }
      ],
      "name": "setMaxPosDai",
      "outputs": [],
      "stateMutability": "nonpayable",
      "type": "function"
    },
    {
      "inputs": [
        {
          "internalType": "uint256",
          "name": "_minExecutionFee",
          "type": "uint256"
        }
      ],
      "name": "setMinExecutionFee",
      "outputs": [],
      "stateMutability": "nonpayable",
      "type": "function"
    },
    {
      "inputs": [
        {
          "internalType": "uint256",
          "name": "_pairIndex",
          "type": "uint256"
        },
        {
          "internalType": "uint256",
          "name": "_index",
          "type": "uint256"
        },
        {
          "internalType": "uint256",
          "name": "_price",
          "type": "uint256"
        },
        {
          "internalType": "uint256",
          "name": "_tp",
          "type": "uint256"
        },
        {
          "internalType": "uint256",
          "name": "_sl",
          "type": "uint256"
        }
      ],
      "name": "updateOpenLimitOrder",
      "outputs": [],
      "stateMutability": "nonpayable",
      "type": "function"
    },
    {
      "inputs": [
        {
          "internalType": "uint256",
          "name": "_pairIndex",
          "type": "uint256"
        },
        {
          "internalType": "uint256",
          "name": "_index",
          "type": "uint256"
        },
        {
          "internalType": "uint256",
          "name": "_newSl",
          "type": "uint256"
        }
      ],
      "name": "updateSl",
      "outputs": [],
      "stateMutability": "payable",
      "type": "function"
    },
    {
      "inputs": [
        {
          "internalType": "uint256",
          "name": "_pairIndex",
          "type": "uint256"
        },
        {
          "internalType": "uint256",
          "name": "_index",
          "type": "uint256"
        },
        {
          "internalType": "uint256",
          "name": "_newTp",
          "type": "uint256"
        }
      ],
      "name": "updateTp",
      "outputs": [],
      "stateMutability": "nonpayable",
      "type": "function"
    }
  ],
  "bytecode": "0x6080604052690fe1c215e8f838e00000600255601e600355601e6004553480156200002957600080fd5b5060405162005432380380620054328339810160408190526200004c9162000097565b600080546001600160a01b039384166001600160a01b03199182161790915560018054929093169116179055620000d6565b6001600160a01b03811681146200009457600080fd5b50565b60008060408385031215620000ab57600080fd5b8251620000b8816200007e565b6020840151909250620000cb816200007e565b809150509250929050565b61534c80620000e66000396000f3fe6080604052600436106101755760003560e01c80639aa7c0e5116100cb578063b8ebd5cc1161007f578063d4a1caa711610059578063d4a1caa714610393578063d8defd15146103b3578063fc2cee62146103d357600080fd5b8063b8ebd5cc14610340578063b9b6573a14610360578063be73fb991461038057600080fd5b8063ae8421e1116100b0578063ae8421e1146102f1578063b187bd2614610306578063b81bfa051461032057600080fd5b80639aa7c0e5146102cb578063a2a3c0cb146102de57600080fd5b806363ae21031161012d5780638f062227116101075780638f0622271461025c578063934d1cf41461028b578063990382cf146102ab57600080fd5b806363ae2103146102115780638456cb5914610227578063876d3abd1461023c57600080fd5b8063318a368b1161015e578063318a368b146101b9578063410c0b7c146101db578063485cc955146101f157600080fd5b80630890d22a1461017a578063279a165c146101a3575b600080fd5b34801561018657600080fd5b5061019060035481565b6040519081526020015b60405180910390f35b3480156101af57600080fd5b5061019060025481565b3480156101c557600080fd5b506101d96101d4366004614971565b6103f3565b005b3480156101e757600080fd5b5061019060045481565b3480156101fd57600080fd5b506101d961020c3660046149c4565b610753565b34801561021d57600080fd5b5061019060065481565b34801561023357600080fd5b506101d96107db565b34801561024857600080fd5b506101d96102573660046149fd565b6108e9565b34801561026857600080fd5b5060055461027b90610100900460ff1681565b604051901515815260200161019a565b34801561029757600080fd5b506101d96102a63660046149fd565b610bbc565b3480156102b757600080fd5b506101d96102c63660046149fd565b610d29565b6101d96102d9366004614ab8565b611088565b6101d96102ec366004614b97565b612238565b3480156102fd57600080fd5b506101d961289b565b34801561031257600080fd5b5060055461027b9060ff1681565b34801561032c57600080fd5b506101d961033b3660046149fd565b6129b3565b34801561034c57600080fd5b506101d961035b366004614bb9565b612b19565b34801561036c57600080fd5b506101d961037b366004614b97565b61367b565b6101d961038e366004614c16565b613a40565b34801561039f57600080fd5b506101d96103ae3660046149fd565b614348565b3480156103bf57600080fd5b506101d96103ce366004614c16565b6144ae565b3480156103df57600080fd5b506101d96103ee3660046149fd565b614741565b3233146103ff57600080fd5b600554610100900460ff16156104495760405162461bcd60e51b815260040161044090602080825260049082015263444f4e4560e01b604082015260600190565b60405180910390fd5b600054604051636e6f99cd60e11b815233600482015260248101879052604481018690526001600160a01b039091169063dcdf339a90606401602060405180830381865afa15801561049f573d6000803e3d6000fd5b505050506040513d601f19601f820116820180604052508101906104c39190614c4d565b6104fa5760405162461bcd60e51b81526020600482015260086024820152671393d7d31253525560c21b6044820152606401610440565b60008054604051632e21e28b60e21b815233600482015260248101889052604481018790526001600160a01b039091169063b8878a2c906064016101a060405180830381865afa158015610552573d6000803e3d6000fd5b505050506040513d601f19601f820116820180604052508101906105769190614c7c565b90506003548161016001514361058c9190614d45565b10156105cb5760405162461bcd60e51b815260206004820152600e60248201526d4c494d49545f54494d454c4f434b60901b6044820152606401610440565b8215806105e857508060a001516105e4578284116105e8565b8284105b61061f5760405162461bcd60e51b8152602060048201526008602482015267057524f4e475f54560c41b6044820152606401610440565b81158061063c57508060a001516106385781841061063c565b8184115b6106735760405162461bcd60e51b815260206004820152600860248201526715d493d391d7d4d360c21b6044820152606401610440565b6101208101849052610140810184905260e081018390526101008101829052600054604051635bb3b04560e11b81526001600160a01b039091169063b767608a906106c2908490600401614d5c565b600060405180830381600087803b1580156106dc57600080fd5b505af11580156106f0573d6000803e3d6000fd5b505060408051338152602081018a9052908101889052606081018790526080810186905260a081018590527f21e15d62c2ece17c1dc11c5fa45dcefdc6f99f199aa111d1363ff242f23e1c5c925060c001905060405180910390a1505050505050565b6000546001600160a01b031615801561077457506001600160a01b03821615155b61077d57600080fd5b600080546001600160a01b039384167fffffffffffffffffffffffff00000000000000000000000000000000000000009182161790915560018054929093169116179055690fe1c215e8f838e00000600255601e6003819055600455565b60008054906101000a90046001600160a01b03166001600160a01b03166312d43a516040518163ffffffff1660e01b8152600401602060405180830381865afa15801561082c573d6000803e3d6000fd5b505050506040513d601f19601f820116820180604052508101906108509190614dfc565b6001600160a01b0316336001600160a01b03161461089b5760405162461bcd60e51b8152602060048201526008602482015267474f565f4f4e4c5960c01b6044820152606401610440565b6005805460ff8082161560ff1990921682179092556040519116151581527f0e2fb031ee032dc02d8011dc50b816eb450cf856abd8261680dac74f72165bd2906020015b60405180910390a1565b3233146108f557600080fd5b600554610100900460ff16156109365760405162461bcd60e51b815260040161044090602080825260049082015263444f4e4560e01b604082015260600190565b6000805460405163b66e6b0560e01b8152600481018490526001600160a01b039091169063b66e6b05906024016101e060405180830381865afa158015610981573d6000803e3d6000fd5b505050506040513d601f19601f820116820180604052508101906109a59190614eac565b8051602082015191925090158015906109cf575060045482602001516109cb9190614f3d565b4310155b610a0a5760405162461bcd60e51b815260206004820152600c60248201526b15d0525517d512535153d55560a21b6044820152606401610440565b80516001600160a01b03163314610a545760405162461bcd60e51b815260206004820152600e60248201526d2727aa2faca7aaa92fa7a92222a960911b6044820152606401610440565b60008160e0015111610aa85760405162461bcd60e51b815260206004820152601760248201527f57524f4e475f4d41524b45545f4f524445525f545950450000000000000000006044820152606401610440565b600054608082015160405163373873db60e11b81526001600160a01b0390921660048301819052336024840152604483019190915290636e70e7b690606401600060405180830381600087803b158015610b0157600080fd5b505af1158015610b15573d6000803e3d6000fd5b5050600054604051630195728b60e71b815260048101879052600160248201526001600160a01b03909116925063cab945809150604401600060405180830381600087803b158015610b6657600080fd5b505af1158015610b7a573d6000803e3d6000fd5b505050507f3adaa586cdbe84dd24e45bd7dada6da933d7c2d1c7b4e4cd02fce033356decb18383604051610baf92919061500d565b60405180910390a1505050565b60008054906101000a90046001600160a01b03166001600160a01b03166312d43a516040518163ffffffff1660e01b8152600401602060405180830381865afa158015610c0d573d6000803e3d6000fd5b505050506040513d601f19601f82011682018060405250810190610c319190614dfc565b6001600160a01b0316336001600160a01b031614610c7c5760405162461bcd60e51b8152602060048201526008602482015267474f565f4f4e4c5960c01b6044820152606401610440565b60008111610cb65760405162461bcd60e51b8152602060048201526007602482015266056414c55455f360cc1b6044820152606401610440565b6002819055604080518181526009918101919091527f6d6178506f7344616900000000000000000000000000000000000000000000006060820152602081018290527f8cf3e35f6221b16e1670a3413180c9484bf5aa71787905909fa82a6a2662e9ab906080015b60405180910390a150565b323314610d3557600080fd5b600554610100900460ff1615610d765760405162461bcd60e51b815260040161044090602080825260049082015263444f4e4560e01b604082015260600190565b6000805460405163b66e6b0560e01b8152600481018490526001600160a01b039091169063b66e6b05906024016101e060405180830381865afa158015610dc1573d6000803e3d6000fd5b505050506040513d601f19601f82011682018060405250810190610de59190614eac565b805160208201519192509015801590610e0f57506004548260200151610e0b9190614f3d565b4310155b610e4a5760405162461bcd60e51b815260206004820152600c60248201526b15d0525517d512535153d55560a21b6044820152606401610440565b80516001600160a01b03163314610e945760405162461bcd60e51b815260206004820152600e60248201526d2727aa2faca7aaa92fa7a92222a960911b6044820152606401610440565b60e081015115610ee65760405162461bcd60e51b815260206004820152601760248201527f57524f4e475f4d41524b45545f4f524445525f545950450000000000000000006044820152606401610440565b60008054604051630195728b60e71b81526004810186905260248101929092526001600160a01b03169063cab9458090604401600060405180830381600087803b158015610f3357600080fd5b505af1158015610f47573d6000803e3d6000fd5b505050602082015160408084015190516024810192909252604482015260009150309060640160408051601f198184030181529181526020820180517bffffffffffffffffffffffffffffffffffffffffffffffffffffffff1663a2a3c0cb60e01b17905251610fb79190615022565b600060405180830381855af49150503d8060008114610ff2576040519150601f19603f3d011682016040523d82523d6000602084013e610ff7565b606091505b5050905080611049576020808301516040808501518151338152938401929092528201527f60e497734ddabcd7293fd91739aaf65cf525eb539c97be528125a235a89288d89060600160405180910390a15b7f3adaa586cdbe84dd24e45bd7dada6da933d7c2d1c7b4e4cd02fce033356decb1848460405161107a92919061500d565b60405180910390a150505050565b32331461109457600080fd5b600554610100900460ff16156110d55760405162461bcd60e51b815260040161044090602080825260049082015263444f4e4560e01b604082015260600190565b60055460ff16156111285760405162461bcd60e51b815260206004820152600660248201527f50415553454400000000000000000000000000000000000000000000000000006044820152606401610440565b6006543410156111635760405162461bcd60e51b8152600401610440906020808252600490820152632146454560e01b604082015260600190565b60008054906101000a90046001600160a01b03166001600160a01b031663c45a01556040518163ffffffff1660e01b8152600401602060405180830381865afa1580156111b4573d6000803e3d6000fd5b505050506040513d601f19601f820116820180604052508101906111d89190614dfc565b6001600160a01b031663269fda08346040518263ffffffff1660e01b81526004016000604051808303818588803b15801561121257600080fd5b505af1158015611226573d6000803e3d6000fd5b505050505060008060009054906101000a90046001600160a01b03166001600160a01b0316633078fff56040518163ffffffff1660e01b8152600401602060405180830381865afa15801561127f573d6000803e3d6000fd5b505050506040513d601f19601f820116820180604052508101906112a39190614dfc565b90506000816001600160a01b03166335b03c176040518163ffffffff1660e01b8152600401602060405180830381865afa1580156112e5573d6000803e3d6000fd5b505050506040513d601f19601f820116820180604052508101906113099190614dfc565b9050600080861161131b576000611396565b6000546001600160a01b0316633dae10a0611337600189614d45565b6040518263ffffffff1660e01b815260040161135591815260200190565b602060405180830381865afa158015611372573d6000803e3d6000fd5b505050506040513d601f19601f82011682018060405250810190611396919061505d565b905060008054906101000a90046001600160a01b03166001600160a01b031663f65d9dbe6040518163ffffffff1660e01b8152600401602060405180830381865afa1580156113e9573d6000803e3d6000fd5b505050506040513d601f19601f8201168201806040525081019061140d919061505d565b60005460208a0151604051634bf3ccad60e11b815233600482015260248101919091526001600160a01b03909116906397e7995a90604401602060405180830381865afa158015611462573d6000803e3d6000fd5b505050506040513d601f19601f82011682018060405250810190611486919061505d565b60005460208b0151604051639c8912f160e01b815233600482015260248101919091526001600160a01b0390911690639c8912f190604401602060405180830381865afa1580156114db573d6000803e3d6000fd5b505050506040513d601f19601f820116820180604052508101906114ff919061505d565b60005460208c01516040516307218dad60e21b815233600482015260248101919091526001600160a01b0390911690631c8636b490604401602060405180830381865afa158015611554573d6000803e3d6000fd5b505050506040513d601f19601f82011682018060405250810190611578919061505d565b6115829190614f3d565b61158c9190614f3d565b106115d95760405162461bcd60e51b815260206004820152601360248201527f4d41585f5452414445535f5045525f50414952000000000000000000000000006044820152606401610440565b60008054906101000a90046001600160a01b03166001600160a01b0316638049fde76040518163ffffffff1660e01b8152600401602060405180830381865afa15801561162a573d6000803e3d6000fd5b505050506040513d601f19601f8201168201806040525081019061164e919061505d565b60005460405163f7b3c6fd60e01b81523360048201526001600160a01b039091169063f7b3c6fd90602401602060405180830381865afa158015611696573d6000803e3d6000fd5b505050506040513d601f19601f820116820180604052508101906116ba919061505d565b106117075760405162461bcd60e51b815260206004820152601260248201527f4d41585f50454e44494e475f4f524445525300000000000000000000000000006044820152606401610440565b6002548860800151111561175d5760405162461bcd60e51b815260206004820152600d60248201527f41424f56455f4d41585f504f53000000000000000000000000000000000000006044820152606401610440565b602088015160405163066c581160e11b815260048101919091526001600160a01b03831690630cd8b02290602401602060405180830381865afa1580156117a8573d6000803e3d6000fd5b505050506040513d601f19601f820116820180604052508101906117cc919061505d565b8860e0015189608001516117e09190615076565b101561182e5760405162461bcd60e51b815260206004820152600d60248201527f42454c4f575f4d494e5f504f53000000000000000000000000000000000000006044820152606401610440565b60008860e001511180156118b45750602088015160405163059a992d60e41b815260048101919091526001600160a01b038316906359a992d090602401602060405180830381865afa158015611888573d6000803e3d6000fd5b505050506040513d601f19601f820116820180604052508101906118ac919061505d565b8860e0015110155b801561193257506020880151604051630a06da4f60e21b815260048101919091526001600160a01b0383169063281b693c90602401602060405180830381865afa158015611906573d6000803e3d6000fd5b505050506040513d601f19601f8201168201806040525081019061192a919061505d565b8860e0015111155b61197e5760405162461bcd60e51b815260206004820152601260248201527f4c455645524147455f494e434f525245435400000000000000000000000000006044820152606401610440565b85156119f25760405162461bcd60e51b815260206004820152602560248201527f4e4f5f434f52524553504f4e44494e475f4e46545f5350524541445f5245445560448201527f4354494f4e0000000000000000000000000000000000000000000000000000006064820152608401610440565b6101008801511580611a2657508760c00151611a19578760a0015188610100015110611a26565b8760a00151886101000151115b611a5d5760405162461bcd60e51b8152602060048201526008602482015267057524f4e475f54560c41b6044820152606401610440565b6101208801511580611a9157508760c00151611a84578760a0015188610120015111611a91565b8760a00151886101200151105b611ac85760405162461bcd60e51b815260206004820152600860248201526715d493d391d7d4d360c21b6044820152606401610440565b600154602089015160c08a015160e08b015160808c01516000946001600160a01b031693637ea95f3293869391929091611b0191615076565b6040516001600160e01b031960e087901b168152600481019490945260248401929092521515604483015260648201526084016040805180830381865afa158015611b50573d6000803e3d6000fd5b505050506040513d601f19601f82011682018060405250810190611b749190615095565b509050600160009054906101000a90046001600160a01b03166001600160a01b03166380f6cfc26040518163ffffffff1660e01b8152600401602060405180830381865afa158015611bca573d6000803e3d6000fd5b505050506040513d601f19601f82011682018060405250810190611bee919061505d565b60e08a0151611bfd9083615076565b1115611c4b5760405162461bcd60e51b815260206004820152601560248201527f50524943455f494d504143545f544f4f5f4849474800000000000000000000006044820152606401610440565b60005460808a015160405163373873db60e11b81523360048201526001600160a01b0390921660248301819052604483019190915290636e70e7b690606401600060405180830381600087803b158015611ca457600080fd5b505af1158015611cb8573d6000803e3d6000fd5b5060009250611cc5915050565b886002811115611cd757611cd76150b9565b14611f63576000805460208b015160405163226a27ad60e11b815233600482015260248101919091526001600160a01b03909116906344d44f5a90604401602060405180830381865afa158015611d32573d6000803e3d6000fd5b505050506040513d601f19601f82011682018060405250810190611d56919061505d565b905060008054906101000a90046001600160a01b03166001600160a01b031663d3b5fe70604051806101a00160405280336001600160a01b031681526020018d6020015181526020018481526020018d6080015181526020018681526020018d60c00151151581526020018d60e0015181526020018d610100015181526020018d610120015181526020018d60a0015181526020018d60a00151815260200143815260200160008152506040518263ffffffff1660e01b8152600401611e1c9190614d5c565b600060405180830381600087803b158015611e3657600080fd5b505af1158015611e4a573d6000803e3d6000fd5b50505050846001600160a01b0316635ad9f9936040518163ffffffff1660e01b8152600401602060405180830381865afa158015611e8c573d6000803e3d6000fd5b505050506040513d601f19601f82011682018060405250810190611eb09190614dfc565b6001600160a01b031663ec570610338c60200151848d6040518563ffffffff1660e01b8152600401611ee594939291906150cf565b600060405180830381600087803b158015611eff57600080fd5b505af1158015611f13573d6000803e3d6000fd5b5050506020808c0151604080513381529283019190915281018390527fdfabd6f206f17b7f2e1f9e0d33c40d30d1e8d7b6a4f520a03fdc1c1811059343915060600160405180910390a150612155565b6000846001600160a01b031663fa8dd4988b6020015160008d60e001518e60800151611f8f9190615076565b6040518463ffffffff1660e01b8152600401611fad9392919061510c565b6020604051808303816000875af1158015611fcc573d6000803e3d6000fd5b505050506040513d601f19601f82011682018060405250810190611ff0919061505d565b905060008054906101000a90046001600160a01b03166001600160a01b031663c76faf786040518060c00160405280604051806101400160405280336001600160a01b031681526020018f60200151815260200160008152602001600081526020018f608001518152602001600081526020018f60c00151151581526020018f60e0015181526020018f610100015181526020018f61012001518152508152602001600081526020018d60a0015181526020018a815260200186815260200160008152508360016040518463ffffffff1660e01b81526004016120d593929190615134565b600060405180830381600087803b1580156120ef57600080fd5b505af1158015612103573d6000803e3d6000fd5b5050505060208a810151604080513381529283019190915260018282015260608201839052517f38d5a346bb323dfce6ee611d2fbbfc595310c725ab7ab45bfe0adf3b81b7adab9181900360800190a1505b60008054906101000a90046001600160a01b03166001600160a01b031663c45a01556040518163ffffffff1660e01b8152600401602060405180830381865afa1580156121a6573d6000803e3d6000fd5b505050506040513d601f19601f820116820180604052508101906121ca9190614dfc565b604051639d1a107360e01b81523360048201526001600160a01b0387811660248301529190911690639d1a107390604401600060405180830381600087803b15801561221557600080fd5b505af1158015612229573d6000803e3d6000fd5b50505050505050505050505050565b32331461224457600080fd5b600554610100900460ff16156122855760405162461bcd60e51b815260040161044090602080825260049082015263444f4e4560e01b604082015260600190565b6006543410156122c05760405162461bcd60e51b8152600401610440906020808252600490820152632146454560e01b604082015260600190565b60008054906101000a90046001600160a01b03166001600160a01b031663c45a01556040518163ffffffff1660e01b8152600401602060405180830381865afa158015612311573d6000803e3d6000fd5b505050506040513d601f19601f820116820180604052508101906123359190614dfc565b6001600160a01b031663269fda08346040518263ffffffff1660e01b81526004016000604051808303818588803b15801561236f57600080fd5b505af1158015612383573d6000803e3d6000fd5b5050600080546040516351d407ff60e11b815233600482015260248101889052604481018790529194506001600160a01b0316925063a3a80ffe915060640161014060405180830381865afa1580156123e0573d6000803e3d6000fd5b505050506040513d601f19601f82011682018060405250810190612404919061515b565b60008054604051638c8ff1d560e01b8152336004820152602481018790526044810186905292935090916001600160a01b0390911690638c8ff1d59060640160c060405180830381865afa158015612460573d6000803e3d6000fd5b505050506040513d601f19601f820116820180604052508101906124849190615178565b905060008054906101000a90046001600160a01b03166001600160a01b0316638049fde76040518163ffffffff1660e01b8152600401602060405180830381865afa1580156124d7573d6000803e3d6000fd5b505050506040513d601f19601f820116820180604052508101906124fb919061505d565b60005460405163f7b3c6fd60e01b81523360048201526001600160a01b039091169063f7b3c6fd90602401602060405180830381865afa158015612543573d6000803e3d6000fd5b505050506040513d601f19601f82011682018060405250810190612567919061505d565b106125b45760405162461bcd60e51b815260206004820152601260248201527f4d41585f50454e44494e475f4f524445525300000000000000000000000000006044820152606401610440565b8060a00151156126065760405162461bcd60e51b815260206004820152601460248201527f414c52454144595f4245494e475f434c4f5345440000000000000000000000006044820152606401610440565b60008260e00151116126455760405162461bcd60e51b81526020600482015260086024820152674e4f5f545241444560c01b6044820152606401610440565b60008060009054906101000a90046001600160a01b03166001600160a01b0316633078fff56040518163ffffffff1660e01b8152600401602060405180830381865afa158015612699573d6000803e3d6000fd5b505050506040513d601f19601f820116820180604052508101906126bd9190614dfc565b6001600160a01b031663fa8dd4988660016402540be40086602001518860e0015189606001516126ed9190615076565b6126f79190615076565b6127019190615206565b6040518463ffffffff1660e01b815260040161271f9392919061510c565b6020604051808303816000875af115801561273e573d6000803e3d6000fd5b505050506040513d601f19601f82011682018060405250810190612762919061505d565b6000805460408051610200810182523360c0820190815260e082018b905261010082018a905261012082018590526101408201859052610160820185905261018082018590526101a082018590526101c082018590526101e08201859052815260208101849052808201849052606081018490526080810184905260a0810184905290516318edf5ef60e31b81529394506001600160a01b039091169263c76faf78926128159291869190600401615134565b600060405180830381600087803b15801561282f57600080fd5b505af1158015612843573d6000803e3d6000fd5b50506040805133815260208101899052600091810191909152606081018490527f38d5a346bb323dfce6ee611d2fbbfc595310c725ab7ab45bfe0adf3b81b7adab925060800190505b60405180910390a15050505050565b60008054906101000a90046001600160a01b03166001600160a01b03166312d43a516040518163ffffffff1660e01b8152600401602060405180830381865afa1580156128ec573d6000803e3d6000fd5b505050506040513d601f19601f820116820180604052508101906129109190614dfc565b6001600160a01b0316336001600160a01b03161461295b5760405162461bcd60e51b8152602060048201526008602482015267474f565f4f4e4c5960c01b6044820152606401610440565b6005805460ff610100808304821615810261ff001990931692909217928390556040517fc3a6f986261de9467c2838c6df8ef74f9107855159205600c0bc7a14cdfd3888936108df9390049091161515815260200190565b60008054906101000a90046001600160a01b03166001600160a01b03166312d43a516040518163ffffffff1660e01b8152600401602060405180830381865afa158015612a04573d6000803e3d6000fd5b505050506040513d601f19601f82011682018060405250810190612a289190614dfc565b6001600160a01b0316336001600160a01b031614612a735760405162461bcd60e51b8152602060048201526008602482015267474f565f4f4e4c5960c01b6044820152606401610440565b60008111612aad5760405162461bcd60e51b8152602060048201526007602482015266056414c55455f360cc1b6044820152606401610440565b6004819055604080518181526013918101919091527f6d61726b65744f726465727354696d656f7574000000000000000000000000006060820152602081018290527f8cf3e35f6221b16e1670a3413180c9484bf5aa71787905909fa82a6a2662e9ab90608001610d1e565b323314612b2557600080fd5b600554610100900460ff1615612b665760405162461bcd60e51b815260040161044090602080825260049082015263444f4e4560e01b604082015260600190565b612bc760405180610140016040528060006001600160a01b0316815260200160008152602001600081526020016000815260200160008152602001600081526020016000151581526020016000815260200160008152602001600081525090565b6003876003811115612bdb57612bdb6150b9565b03612c9857600054604051636e6f99cd60e11b81526001600160a01b03888116600483015260248201889052604482018790529091169063dcdf339a90606401602060405180830381865afa158015612c38573d6000803e3d6000fd5b505050506040513d601f19601f82011682018060405250810190612c5c9190614c4d565b612c935760405162461bcd60e51b81526020600482015260086024820152671393d7d31253525560c21b6044820152606401610440565b612e6a565b6000546040516351d407ff60e11b81526001600160a01b03888116600483015260248201889052604482018790529091169063a3a80ffe9060640161014060405180830381865afa158015612cf1573d6000803e3d6000fd5b505050506040513d601f19601f82011682018060405250810190612d15919061515b565b905060008160e0015111612d565760405162461bcd60e51b81526020600482015260086024820152674e4f5f545241444560c01b6044820152606401610440565b6001876003811115612d6a57612d6a6150b9565b141580612d7c57506000816101200151115b612dc85760405162461bcd60e51b815260206004820152600560248201527f4e4f5f534c0000000000000000000000000000000000000000000000000000006044820152606401610440565b6002876003811115612ddc57612ddc6150b9565b03612e6a576000612dec82614806565b905081610120015160001480612e1c57508160c00151612e13578161012001518110612e1c565b81610120015181115b612e685760405162461bcd60e51b815260206004820152600660248201527f4841535f534c00000000000000000000000000000000000000000000000000006044820152606401610440565b505b60008060009054906101000a90046001600160a01b03166001600160a01b0316633078fff56040518163ffffffff1660e01b8152600401602060405180830381865afa158015612ebe573d6000803e3d6000fd5b505050506040513d601f19601f82011682018060405250810190612ee29190614dfc565b90506000816001600160a01b0316635ad9f9936040518163ffffffff1660e01b8152600401602060405180830381865afa158015612f24573d6000803e3d6000fd5b505050506040513d601f19601f82011682018060405250810190612f489190614dfc565b9050600060405180608001604052808a6001600160a01b031681526020018981526020018881526020018b6003811115612f8457612f846150b9565b905260405163108c3d4960e11b81529091506001600160a01b038316906321187a9290612fb5908490600401615274565b602060405180830381865afa158015612fd2573d6000803e3d6000fd5b505050506040513d601f19601f82011682018060405250810190612ff69190614c4d565b158061306a5750604051633f1b72bf60e21b81526001600160a01b0383169063fc6dcafc90613029908490600401615274565b602060405180830381865afa158015613046573d6000803e3d6000fd5b505050506040513d601f19601f8201168201806040525081019061306a9190614c4d565b156135c457600060038b6003811115613085576130856150b9565b0361328f5760008054604051632e21e28b60e21b81526001600160a01b038d81166004830152602482018d9052604482018c90529091169063b8878a2c906064016101a060405180830381865afa1580156130e4573d6000803e3d6000fd5b505050506040513d601f19601f820116820180604052508101906131089190614c7c565b90508060c00151816060015161311e9190615076565b600154602083015160a0840151604051633f54af9960e11b81526000600482018190526024820193909352901515604482015260648101849052929450916001600160a01b0390911690637ea95f32906084016040805180830381865afa15801561318d573d6000803e3d6000fd5b505050506040513d601f19601f820116820180604052508101906131b19190615095565b509050600160009054906101000a90046001600160a01b03166001600160a01b03166380f6cfc26040518163ffffffff1660e01b8152600401602060405180830381865afa158015613207573d6000803e3d6000fd5b505050506040513d601f19601f8201168201806040525081019061322b919061505d565b60c083015161323a9083615076565b11156132885760405162461bcd60e51b815260206004820152601560248201527f50524943455f494d504143545f544f4f5f4849474800000000000000000000006044820152606401610440565b5050613345565b60008054604051638c8ff1d560e01b81526001600160a01b038d81166004830152602482018d9052604482018c905290911690638c8ff1d59060640160c060405180830381865afa1580156132e8573d6000803e3d6000fd5b505050506040513d601f19601f8201168201806040525081019061330c9190615178565b90506402540be4008660e001518260200151886060015161332d9190615076565b6133379190615076565b6133419190615206565b9150505b600054604051633348540360e11b8152336004820152602481018b9052604481018390526001600160a01b0390911690636690a80690606401600060405180830381600087803b15801561339857600080fd5b505af11580156133ac573d6000803e3d6000fd5b506000925050506001600160a01b03851663fa8dd4988b60038f60038111156133d7576133d76150b9565b146133e35760036133e6565b60025b856040518463ffffffff1660e01b81526004016134059392919061510c565b6020604051808303816000875af1158015613424573d6000803e3d6000fd5b505050506040513d601f19601f82011682018060405250810190613448919061505d565b905060008054906101000a90046001600160a01b03166001600160a01b031663817fa1a46040518060c00160405280336001600160a01b031681526020018b81526020018e6001600160a01b031681526020018d81526020018c81526020018f60038111156134b9576134b96150b9565b815250836040518363ffffffff1660e01b81526004016134da929190615282565b600060405180830381600087803b1580156134f457600080fd5b505af1158015613508573d6000803e3d6000fd5b505060405163308f221b60e21b81526001600160a01b038716925063c23c886c915061353a90869033906004016152e3565b600060405180830381600087803b15801561355457600080fd5b505af1158015613568573d6000803e3d6000fd5b5050604080513381526001600160a01b038f1660208201529081018d9052606081018490527f25a4615e0f832491882811af92c23aeadd8e4ea8679eda01bb90f5276ffdf44f9250608001905060405180910390a1505061366f565b6040516346ea285b60e01b81526001600160a01b038316906346ea285b906135f290849033906004016152e3565b600060405180830381600087803b15801561360c57600080fd5b505af1158015613620573d6000803e3d6000fd5b5050604080513381526001600160a01b038d1660208201529081018b90527fde7da272dc52e28c3b33c5c74b461da89b05bd790d845e82db2f69bbf08108e79250606001905060405180910390a15b50505050505050505050565b32331461368757600080fd5b600554610100900460ff16156136c85760405162461bcd60e51b815260040161044090602080825260049082015263444f4e4560e01b604082015260600190565b600054604051636e6f99cd60e11b815233600482015260248101849052604481018390526001600160a01b039091169063dcdf339a90606401602060405180830381865afa15801561371e573d6000803e3d6000fd5b505050506040513d601f19601f820116820180604052508101906137429190614c4d565b6137795760405162461bcd60e51b81526020600482015260086024820152671393d7d31253525560c21b6044820152606401610440565b60008054604051632e21e28b60e21b815233600482015260248101859052604481018490526001600160a01b039091169063b8878a2c906064016101a060405180830381865afa1580156137d1573d6000803e3d6000fd5b505050506040513d601f19601f820116820180604052508101906137f59190614c7c565b90506003548161016001514361380b9190614d45565b101561384a5760405162461bcd60e51b815260206004820152600e60248201526d4c494d49545f54494d454c4f434b60901b6044820152606401610440565b600054606082015160405163373873db60e11b81526001600160a01b0390921660048301819052336024840152604483019190915290636e70e7b690606401600060405180830381600087803b1580156138a357600080fd5b505af11580156138b7573d6000803e3d6000fd5b505060005460405163b4b0f56760e01b815233600482015260248101879052604481018690526001600160a01b03909116925063b4b0f5679150606401600060405180830381600087803b15801561390e57600080fd5b505af1158015613922573d6000803e3d6000fd5b5050505060008054906101000a90046001600160a01b03166001600160a01b031663c45a01556040518163ffffffff1660e01b8152600401602060405180830381865afa158015613977573d6000803e3d6000fd5b505050506040513d601f19601f8201168201806040525081019061399b9190614dfc565b6006546040516323caf73360e01b815233600482015260248101919091526001600160a01b0391909116906323caf73390604401600060405180830381600087803b1580156139e957600080fd5b505af11580156139fd573d6000803e3d6000fd5b505060408051338152602081018790529081018590527ff1b38881d7f4b2b12141c5f39c5124545d6112532eb6afbe9630cdbde3ee53e992506060019050610baf565b323314613a4c57600080fd5b600554610100900460ff1615613a8d5760405162461bcd60e51b815260040161044090602080825260049082015263444f4e4560e01b604082015260600190565b600080546040516351d407ff60e11b815233600482015260248101869052604481018590526001600160a01b039091169063a3a80ffe9060640161014060405180830381865afa158015613ae5573d6000803e3d6000fd5b505050506040513d601f19601f82011682018060405250810190613b09919061515b565b60008054604051638c8ff1d560e01b8152336004820152602481018890526044810187905292935090916001600160a01b0390911690638c8ff1d59060640160c060405180830381865afa158015613b65573d6000803e3d6000fd5b505050506040513d601f19601f82011682018060405250810190613b899190615178565b905060008260e0015111613bca5760405162461bcd60e51b81526020600482015260086024820152674e4f5f545241444560c01b6044820152606401610440565b60008260e001516064604b8560a00151613be49190615076565b613bee9190615206565b613bf89190615206565b9050831580613c3757508260c00151613c2357808360a00151613c1b9190614f3d565b841115613c37565b808360a00151613c339190614d45565b8410155b613c835760405162461bcd60e51b815260206004820152600a60248201527f534c5f544f4f5f424947000000000000000000000000000000000000000000006044820152606401610440565b6003546080830151613c959043614d45565b1015613cd45760405162461bcd60e51b815260206004820152600e60248201526d4c494d49545f54494d454c4f434b60901b6044820152606401610440565b60008060009054906101000a90046001600160a01b03166001600160a01b0316633078fff56040518163ffffffff1660e01b8152600401602060405180830381865afa158015613d28573d6000803e3d6000fd5b505050506040513d601f19601f82011682018060405250810190613d4c9190614dfc565b9050841580613e285750806001600160a01b03166335b03c176040518163ffffffff1660e01b8152600401602060405180830381865afa158015613d94573d6000803e3d6000fd5b505050506040513d601f19601f82011682018060405250810190613db89190614dfc565b6001600160a01b03166324abd3fb886040518263ffffffff1660e01b8152600401613de591815260200190565b602060405180830381865afa158015613e02573d6000803e3d6000fd5b505050506040513d601f19601f82011682018060405250810190613e269190614c4d565b155b15613eed5760005460405163a354418160e01b81523360048201526024810189905260448101889052606481018790526001600160a01b039091169063a354418190608401600060405180830381600087803b158015613e8757600080fd5b505af1158015613e9b573d6000803e3d6000fd5b505060408051338152602081018b9052908101899052606081018890527f1fc4a6c7ffe506697979b8ed54dc4135cd1ecd26a2745f70b760a2492222b3169250608001905060405180910390a161433f565b600654341015613f285760405162461bcd60e51b8152600401610440906020808252600490820152632146454560e01b604082015260600190565b60008054906101000a90046001600160a01b03166001600160a01b031663c45a01556040518163ffffffff1660e01b8152600401602060405180830381865afa158015613f79573d6000803e3d6000fd5b505050506040513d601f19601f82011682018060405250810190613f9d9190614dfc565b6001600160a01b031663269fda08346040518263ffffffff1660e01b81526004016000604051808303818588803b158015613fd757600080fd5b505af1158015613feb573d6000803e3d6000fd5b505050505060008460e001518460200151866060015161400b9190615076565b6140159190615076565b905060008054906101000a90046001600160a01b03166001600160a01b031663cfbacc148660200151846001600160a01b0316633c88e8826040518163ffffffff1660e01b8152600401602060405180830381865afa15801561407c573d6000803e3d6000fd5b505050506040513d601f19601f820116820180604052508101906140a0919061505d565b6140ab600286615206565b6140b59190615206565b6040516001600160e01b031960e085901b1681526004810192909252602482015260006044820181905260648201526084016020604051808303816000875af1158015614106573d6000803e3d6000fd5b505050506040513d601f19601f8201168201806040525081019061412a919061505d565b8560600181815161413b9190614d45565b905250600054604051631a97b52160e31b81526001600160a01b039091169063d4bda9089061416e908890600401615307565b600060405180830381600087803b15801561418857600080fd5b505af115801561419c573d6000803e3d6000fd5b505050506000826001600160a01b031663fa8dd4988a60046402540be400866141c59190615206565b6040518463ffffffff1660e01b81526004016141e39392919061510c565b6020604051808303816000875af1158015614202573d6000803e3d6000fd5b505050506040513d601f19601f82011682018060405250810190614226919061505d565b6040805160c08082018352338252602082018d81528284018d815260a0808d015160608601908152938d01511515608086019081529085018e81529551635c109dfd60e11b81526004810188905294516001600160a01b0390811660248701529251604486015290516064850152915160848401529051151560a4830152915160c482015291925084169063b8213bfa9060e401600060405180830381600087803b1580156142d457600080fd5b505af11580156142e8573d6000803e3d6000fd5b505060408051338152602081018d90529081018b9052606081018a9052608081018490527feab935bd2d632c4b4e1573d123433c1ec04a6fde3f29909c2bbe5d8ca4c01037925060a001905060405180910390a150505b50505050505050565b60008054906101000a90046001600160a01b03166001600160a01b03166312d43a516040518163ffffffff1660e01b8152600401602060405180830381865afa158015614399573d6000803e3d6000fd5b505050506040513d601f19601f820116820180604052508101906143bd9190614dfc565b6001600160a01b0316336001600160a01b0316146144085760405162461bcd60e51b8152602060048201526008602482015267474f565f4f4e4c5960c01b6044820152606401610440565b600081116144425760405162461bcd60e51b8152602060048201526007602482015266056414c55455f360cc1b6044820152606401610440565b6003819055604080518181526013918101919091527f6c696d69744f726465727354696d656c6f636b000000000000000000000000006060820152602081018290527f8cf3e35f6221b16e1670a3413180c9484bf5aa71787905909fa82a6a2662e9ab90608001610d1e565b3233146144ba57600080fd5b600554610100900460ff16156144fb5760405162461bcd60e51b815260040161044090602080825260049082015263444f4e4560e01b604082015260600190565b600080546040516351d407ff60e11b815233600482015260248101869052604481018590526001600160a01b039091169063a3a80ffe9060640161014060405180830381865afa158015614553573d6000803e3d6000fd5b505050506040513d601f19601f82011682018060405250810190614577919061515b565b60008054604051638c8ff1d560e01b8152336004820152602481018890526044810187905292935090916001600160a01b0390911690638c8ff1d59060640160c060405180830381865afa1580156145d3573d6000803e3d6000fd5b505050506040513d601f19601f820116820180604052508101906145f79190615178565b905060008260e00151116146385760405162461bcd60e51b81526020600482015260086024820152674e4f5f545241444560c01b6044820152606401610440565b600354606082015161464a9043614d45565b10156146895760405162461bcd60e51b815260206004820152600e60248201526d4c494d49545f54494d454c4f434b60901b6044820152606401610440565b600054604051637fdb96f360e01b81523360048201526024810187905260448101869052606481018590526001600160a01b0390911690637fdb96f390608401600060405180830381600087803b1580156146e357600080fd5b505af11580156146f7573d6000803e3d6000fd5b50506040805133815260208101899052908101879052606081018690527f7e06a81c7a47891ccc7455b5ccb2ed850e32bb655ccda67eb3ebaaeed83242a49250608001905061288c565b60008054906101000a90046001600160a01b03166001600160a01b03166312d43a516040518163ffffffff1660e01b8152600401602060405180830381865afa158015614792573d6000803e3d6000fd5b505050506040513d601f19601f820116820180604052508101906147b69190614dfc565b6001600160a01b0316336001600160a01b0316146148015760405162461bcd60e51b8152602060048201526008602482015267474f565f4f4e4c5960c01b6044820152606401610440565b600655565b6001548151602083015160408085015160a086015160c0870151600080549451638c8ff1d560e01b81526001600160a01b03808916600483015260248201889052604482018690529198821697636bc84d5997909690959493926402540be40092911690638c8ff1d59060640160c060405180830381865afa158015614890573d6000803e3d6000fd5b505050506040513d601f19601f820116820180604052508101906148b49190615178565b602001518a606001516148c79190615076565b6148d19190615206565b60e08a8101516040519189901b6001600160e01b03191682526001600160a01b039790971660048201526024810195909552604485019390935260648401919091521515608483015260a482015260c481019190915260e401602060405180830381865afa158015614947573d6000803e3d6000fd5b505050506040513d601f19601f8201168201806040525081019061496b919061505d565b92915050565b600080600080600060a0868803121561498957600080fd5b505083359560208501359550604085013594606081013594506080013592509050565b6001600160a01b03811681146149c157600080fd5b50565b600080604083850312156149d757600080fd5b82356149e2816149ac565b915060208301356149f2816149ac565b809150509250929050565b600060208284031215614a0f57600080fd5b5035919050565b604051610140810167ffffffffffffffff81118282101715614a4857634e487b7160e01b600052604160045260246000fd5b60405290565b6040516101a0810167ffffffffffffffff81118282101715614a4857634e487b7160e01b600052604160045260246000fd5b8035614a8b816149ac565b919050565b80151581146149c157600080fd5b8035614a8b81614a90565b803560038110614a8b57600080fd5b60008060008060008587036101c0811215614ad257600080fd5b61014080821215614ae257600080fd5b614aea614a16565b9150614af588614a80565b82526020880135602083015260408801356040830152606088013560608301526080880135608083015260a088013560a0830152614b3560c08901614a9e565b60c083015260e088013560e0830152610100808901358184015250610120808901358184015250819650614b6a818901614aa9565b9550505061016086013592506101808601359150614b8b6101a08701614a80565b90509295509295909350565b60008060408385031215614baa57600080fd5b50508035926020909101359150565b60008060008060008060c08789031215614bd257600080fd5b863560048110614be157600080fd5b95506020870135614bf1816149ac565b95989597505050506040840135936060810135936080820135935060a0909101359150565b600080600060608486031215614c2b57600080fd5b505081359360208301359350604090920135919050565b8051614a8b81614a90565b600060208284031215614c5f57600080fd5b8151614c6a81614a90565b9392505050565b8051614a8b816149ac565b60006101a08284031215614c8f57600080fd5b614c97614a4e565b614ca083614c71565b815260208301516020820152604083015160408201526060830151606082015260808301516080820152614cd660a08401614c42565b60a082015260c0838101519082015260e080840151908201526101008084015190820152610120808401519082015261014080840151908201526101608084015190820152610180928301519281019290925250919050565b634e487b7160e01b600052601160045260246000fd5b600082821015614d5757614d57614d2f565b500390565b81516001600160a01b031681526101a081016020830151602083015260408301516040830152606083015160608301526080830151608083015260a0830151614da960a084018215159052565b5060c0838101519083015260e08084015190830152610100808401519083015261012080840151908301526101408084015190830152610160808401519083015261018092830151929091019190915290565b600060208284031215614e0e57600080fd5b8151614c6a816149ac565b60006101408284031215614e2c57600080fd5b614e34614a16565b9050614e3f82614c71565b81526020820151602082015260408201516040820152606082015160608201526080820151608082015260a082015160a0820152614e7f60c08301614c42565b60c082015260e082015160e082015261010080830151818301525061012080830151818301525092915050565b60006101e08284031215614ebf57600080fd5b60405160c0810181811067ffffffffffffffff82111715614ef057634e487b7160e01b600052604160045260246000fd5b604052614efd8484614e19565b81526101408301516020820152610160830151604082015261018083015160608201526101a083015160808201526101c09092015160a083015250919050565b60008219821115614f5057614f50614d2f565b500190565b80516001600160a01b031682526020810151602083015260408101516040830152606081015160608301526080810151608083015260a081015160a083015260c0810151614fa760c084018215159052565b5060e08181015190830152610100808201519083015261012090810151910152565b614fd4828251614f55565b60208101516101408301526040810151610160830152606081015161018083015260808101516101a083015260a001516101c090910152565b8281526102008101614c6a6020830184614fc9565b6000825160005b818110156150435760208186018101518583015201615029565b81811115615052576000828501525b509190910192915050565b60006020828403121561506f57600080fd5b5051919050565b600081600019048311821515161561509057615090614d2f565b500290565b600080604083850312156150a857600080fd5b505080516020909101519092909150565b634e487b7160e01b600052602160045260246000fd5b6001600160a01b0385168152602081018490526040810183905260808101600383106150fd576150fd6150b9565b82606083015295945050505050565b8381526060810160058410615123576151236150b9565b602082019390935260400152919050565b61022081016151438286614fc9565b836101e0830152821515610200830152949350505050565b6000610140828403121561516e57600080fd5b614c6a8383614e19565b600060c0828403121561518a57600080fd5b60405160c0810181811067ffffffffffffffff821117156151bb57634e487b7160e01b600052604160045260246000fd5b8060405250825181526020830151602082015260408301516040820152606083015160608201526080830151608082015260a08301516151fa81614a90565b60a08201529392505050565b60008261522357634e487b7160e01b600052601260045260246000fd5b500490565b60048110615238576152386150b9565b9052565b6001600160a01b0381511682526020810151602083015260408101516040830152606081015161526f6060840182615228565b505050565b6080810161496b828461523c565b600060e0820190506001600160a01b038085511683526020850151602084015280604086015116604084015250606084015160608301526080840151608083015260a08401516152d560a0840182615228565b508260c08301529392505050565b60a081016152f1828561523c565b6001600160a01b03831660808301529392505050565b610140810161496b8284614f5556fea2646970667358221220896881124e81168a9b65bbc1b6f68b692e1f8a2ee4c4244f3b26b8a746ea7dc864736f6c634300080e0033",
  "linkReferences": {},
  "deployedLinkReferences": {}
}