{
  "address": "0x896875b453161e89660F89e6D9dDe935c793aDe8",
  "abi": [
    {
      "inputs": [
        {
          "internalType": "contract TokenInterfaceV5",
          "name": "_dai",
          "type": "address"
        },
        {
          "internalType": "contract TokenInterfaceV5",
          "name": "_linkErc677",
          "type": "address"
        }
      ],
      "stateMutability": "nonpayable",
      "type": "constructor"
    },
    {
      "anonymous": false,
      "inputs": [
        {
          "indexed": false,
          "internalType": "string",
          "name": "name",
          "type": "string"
        },
        {
          "indexed": false,
          "internalType": "address",
          "name": "a",
          "type": "address"
        }
      ],
      "name": "AddressUpdated",
      "type": "event"
    },
    {
      "anonymous": false,
      "inputs": [
        {
          "indexed": false,
          "internalType": "contract NftInterfaceV5[5]",
          "name": "nfts",
          "type": "address[5]"
        }
      ],
      "name": "NftsUpdated",
      "type": "event"
    },
    {
      "anonymous": false,
      "inputs": [
        {
          "indexed": false,
          "internalType": "string",
          "name": "name",
          "type": "string"
        },
        {
          "indexed": false,
          "internalType": "uint256",
          "name": "value",
          "type": "uint256"
        }
      ],
      "name": "NumberUpdated",
      "type": "event"
    },
    {
      "anonymous": false,
      "inputs": [
        {
          "indexed": false,
          "internalType": "string",
          "name": "name",
          "type": "string"
        },
        {
          "indexed": false,
          "internalType": "uint256",
          "name": "pairIndex",
          "type": "uint256"
        },
        {
          "indexed": false,
          "internalType": "uint256",
          "name": "value",
          "type": "uint256"
        }
      ],
      "name": "NumberUpdatedPair",
      "type": "event"
    },
    {
      "anonymous": false,
      "inputs": [
        {
          "indexed": false,
          "internalType": "uint256[5]",
          "name": "",
          "type": "uint256[5]"
        }
      ],
      "name": "SpreadReductionsUpdated",
      "type": "event"
    },
    {
      "anonymous": false,
      "inputs": [
        {
          "indexed": false,
          "internalType": "address",
          "name": "a",
          "type": "address"
        }
      ],
      "name": "SupportedTokenAdded",
      "type": "event"
    },
    {
      "anonymous": false,
      "inputs": [
        {
          "indexed": false,
          "internalType": "address",
          "name": "a",
          "type": "address"
        }
      ],
      "name": "TradingContractAdded",
      "type": "event"
    },
    {
      "anonymous": false,
      "inputs": [
        {
          "indexed": false,
          "internalType": "address",
          "name": "a",
          "type": "address"
        }
      ],
      "name": "TradingContractRemoved",
      "type": "event"
    },
    {
      "inputs": [],
      "name": "MINTER_ROLE",
      "outputs": [
        {
          "internalType": "bytes32",
          "name": "",
          "type": "bytes32"
        }
      ],
      "stateMutability": "view",
      "type": "function"
    },
    {
      "inputs": [],
      "name": "PRECISION",
      "outputs": [
        {
          "internalType": "uint256",
          "name": "",
          "type": "uint256"
        }
      ],
      "stateMutability": "view",
      "type": "function"
    },
    {
      "inputs": [
        {
          "internalType": "address",
          "name": "_token",
          "type": "address"
        }
      ],
      "name": "addSupportedToken",
      "outputs": [],
      "stateMutability": "nonpayable",
      "type": "function"
    },
    {
      "inputs": [
        {
          "internalType": "address",
          "name": "_trading",
          "type": "address"
        }
      ],
      "name": "addTradingContract",
      "outputs": [],
      "stateMutability": "nonpayable",
      "type": "function"
    },
    {
      "inputs": [],
      "name": "callbacks",
      "outputs": [
        {
          "internalType": "contract PausableInterfaceV5",
          "name": "",
          "type": "address"
        }
      ],
      "stateMutability": "view",
      "type": "function"
    },
    {
      "inputs": [],
      "name": "claimFees",
      "outputs": [],
      "stateMutability": "nonpayable",
      "type": "function"
    },
    {
      "inputs": [],
      "name": "dai",
      "outputs": [
        {
          "internalType": "contract TokenInterfaceV5",
          "name": "",
          "type": "address"
        }
      ],
      "stateMutability": "view",
      "type": "function"
    },
    {
      "inputs": [],
      "name": "defaultLeverageUnlocked",
      "outputs": [
        {
          "internalType": "uint256",
          "name": "",
          "type": "uint256"
        }
      ],
      "stateMutability": "view",
      "type": "function"
    },
    {
      "inputs": [],
      "name": "dev",
      "outputs": [
        {
          "internalType": "address",
          "name": "",
          "type": "address"
        }
      ],
      "stateMutability": "view",
      "type": "function"
    },
    {
      "inputs": [],
      "name": "devFeesDai",
      "outputs": [
        {
          "internalType": "uint256",
          "name": "",
          "type": "uint256"
        }
      ],
      "stateMutability": "view",
      "type": "function"
    },
    {
      "inputs": [],
      "name": "devFeesToken",
      "outputs": [
        {
          "internalType": "uint256",
          "name": "",
          "type": "uint256"
        }
      ],
      "stateMutability": "view",
      "type": "function"
    },
    {
      "inputs": [
        {
          "internalType": "uint256",
          "name": "_amount",
          "type": "uint256"
        }
      ],
      "name": "distributeLpRewards",
      "outputs": [],
      "stateMutability": "nonpayable",
      "type": "function"
    },
    {
      "inputs": [
        {
          "internalType": "address",
          "name": "trader",
          "type": "address"
        },
        {
          "internalType": "uint256",
          "name": "pairIndex",
          "type": "uint256"
        }
      ],
      "name": "firstEmptyOpenLimitIndex",
      "outputs": [
        {
          "internalType": "uint256",
          "name": "index",
          "type": "uint256"
        }
      ],
      "stateMutability": "view",
      "type": "function"
    },
    {
      "inputs": [
        {
          "internalType": "address",
          "name": "trader",
          "type": "address"
        },
        {
          "internalType": "uint256",
          "name": "pairIndex",
          "type": "uint256"
        }
      ],
      "name": "firstEmptyTradeIndex",
      "outputs": [
        {
          "internalType": "uint256",
          "name": "index",
          "type": "uint256"
        }
      ],
      "stateMutability": "view",
      "type": "function"
    },
    {
      "inputs": [
        {
          "internalType": "address",
          "name": "_trader",
          "type": "address"
        }
      ],
      "name": "getLeverageUnlocked",
      "outputs": [
        {
          "internalType": "uint256",
          "name": "",
          "type": "uint256"
        }
      ],
      "stateMutability": "view",
      "type": "function"
    },
    {
      "inputs": [
        {
          "internalType": "address",
          "name": "_trader",
          "type": "address"
        },
        {
          "internalType": "uint256",
          "name": "_pairIndex",
          "type": "uint256"
        },
        {
          "internalType": "uint256",
          "name": "_index",
          "type": "uint256"
        }
      ],
      "name": "getOpenLimitOrder",
      "outputs": [
        {
          "components": [
            {
              "internalType": "address",
              "name": "trader",
              "type": "address"
            },
            {
              "internalType": "uint256",
              "name": "pairIndex",
              "type": "uint256"
            },
            {
              "internalType": "uint256",
              "name": "index",
              "type": "uint256"
            },
            {
              "internalType": "uint256",
              "name": "positionSize",
              "type": "uint256"
            },
            {
              "internalType": "uint256",
              "name": "spreadReductionP",
              "type": "uint256"
            },
            {
              "internalType": "bool",
              "name": "buy",
              "type": "bool"
            },
            {
              "internalType": "uint256",
              "name": "leverage",
              "type": "uint256"
            },
            {
              "internalType": "uint256",
              "name": "tp",
              "type": "uint256"
            },
            {
              "internalType": "uint256",
              "name": "sl",
              "type": "uint256"
            },
            {
              "internalType": "uint256",
              "name": "minPrice",
              "type": "uint256"
            },
            {
              "internalType": "uint256",
              "name": "maxPrice",
              "type": "uint256"
            },
            {
              "internalType": "uint256",
              "name": "block",
              "type": "uint256"
            },
            {
              "internalType": "uint256",
              "name": "tokenId",
              "type": "uint256"
            }
          ],
          "internalType": "struct GFarmTradingStorageV5.OpenLimitOrder",
          "name": "",
          "type": "tuple"
        }
      ],
      "stateMutability": "view",
      "type": "function"
    },
    {
      "inputs": [],
      "name": "getOpenLimitOrders",
      "outputs": [
        {
          "components": [
            {
              "internalType": "address",
              "name": "trader",
              "type": "address"
            },
            {
              "internalType": "uint256",
              "name": "pairIndex",
              "type": "uint256"
            },
            {
              "internalType": "uint256",
              "name": "index",
              "type": "uint256"
            },
            {
              "internalType": "uint256",
              "name": "positionSize",
              "type": "uint256"
            },
            {
              "internalType": "uint256",
              "name": "spreadReductionP",
              "type": "uint256"
            },
            {
              "internalType": "bool",
              "name": "buy",
              "type": "bool"
            },
            {
              "internalType": "uint256",
              "name": "leverage",
              "type": "uint256"
            },
            {
              "internalType": "uint256",
              "name": "tp",
              "type": "uint256"
            },
            {
              "internalType": "uint256",
              "name": "sl",
              "type": "uint256"
            },
            {
              "internalType": "uint256",
              "name": "minPrice",
              "type": "uint256"
            },
            {
              "internalType": "uint256",
              "name": "maxPrice",
              "type": "uint256"
            },
            {
              "internalType": "uint256",
              "name": "block",
              "type": "uint256"
            },
            {
              "internalType": "uint256",
              "name": "tokenId",
              "type": "uint256"
            }
          ],
          "internalType": "struct GFarmTradingStorageV5.OpenLimitOrder[]",
          "name": "",
          "type": "tuple[]"
        }
      ],
      "stateMutability": "view",
      "type": "function"
    },
    {
      "inputs": [
        {
          "internalType": "address",
          "name": "_trader",
          "type": "address"
        }
      ],
      "name": "getPendingOrderIds",
      "outputs": [
        {
          "internalType": "uint256[]",
          "name": "",
          "type": "uint256[]"
        }
      ],
      "stateMutability": "view",
      "type": "function"
    },
    {
      "inputs": [
        {
          "internalType": "address",
          "name": "_trader",
          "type": "address"
        }
      ],
      "name": "getReferral",
      "outputs": [
        {
          "internalType": "address",
          "name": "",
          "type": "address"
        }
      ],
      "stateMutability": "view",
      "type": "function"
    },
    {
      "inputs": [],
      "name": "getSpreadReductionsArray",
      "outputs": [
        {
          "internalType": "uint256[5]",
          "name": "",
          "type": "uint256[5]"
        }
      ],
      "stateMutability": "view",
      "type": "function"
    },
    {
      "inputs": [],
      "name": "getSupportedTokens",
      "outputs": [
        {
          "internalType": "address[]",
          "name": "",
          "type": "address[]"
        }
      ],
      "stateMutability": "view",
      "type": "function"
    },
    {
      "inputs": [],
      "name": "gov",
      "outputs": [
        {
          "internalType": "address",
          "name": "",
          "type": "address"
        }
      ],
      "stateMutability": "view",
      "type": "function"
    },
    {
      "inputs": [],
      "name": "govFeesDai",
      "outputs": [
        {
          "internalType": "uint256",
          "name": "",
          "type": "uint256"
        }
      ],
      "stateMutability": "view",
      "type": "function"
    },
    {
      "inputs": [],
      "name": "govFeesToken",
      "outputs": [
        {
          "internalType": "uint256",
          "name": "",
          "type": "uint256"
        }
      ],
      "stateMutability": "view",
      "type": "function"
    },
    {
      "inputs": [
        {
          "internalType": "uint256",
          "name": "_pairIndex",
          "type": "uint256"
        },
        {
          "internalType": "uint256",
          "name": "_leveragedPositionSize",
          "type": "uint256"
        },
        {
          "internalType": "bool",
          "name": "_dai",
          "type": "bool"
        },
        {
          "internalType": "bool",
          "name": "_fullFee",
          "type": "bool"
        }
      ],
      "name": "handleDevGovFees",
      "outputs": [
        {
          "internalType": "uint256",
          "name": "fee",
          "type": "uint256"
        }
      ],
      "stateMutability": "nonpayable",
      "type": "function"
    },
    {
      "inputs": [
        {
          "internalType": "address",
          "name": "_a",
          "type": "address"
        },
        {
          "internalType": "uint256",
          "name": "_amount",
          "type": "uint256"
        },
        {
          "internalType": "bool",
          "name": "_mint",
          "type": "bool"
        }
      ],
      "name": "handleTokens",
      "outputs": [],
      "stateMutability": "nonpayable",
      "type": "function"
    },
    {
      "inputs": [
        {
          "internalType": "address",
          "name": "trader",
          "type": "address"
        },
        {
          "internalType": "uint256",
          "name": "pairIndex",
          "type": "uint256"
        },
        {
          "internalType": "uint256",
          "name": "index",
          "type": "uint256"
        }
      ],
      "name": "hasOpenLimitOrder",
      "outputs": [
        {
          "internalType": "bool",
          "name": "",
          "type": "bool"
        }
      ],
      "stateMutability": "view",
      "type": "function"
    },
    {
      "inputs": [
        {
          "internalType": "uint256",
          "name": "_nftId",
          "type": "uint256"
        },
        {
          "internalType": "uint256",
          "name": "_amount",
          "type": "uint256"
        }
      ],
      "name": "increaseNftRewards",
      "outputs": [],
      "stateMutability": "nonpayable",
      "type": "function"
    },
    {
      "inputs": [
        {
          "internalType": "address",
          "name": "_referral",
          "type": "address"
        },
        {
          "internalType": "uint256",
          "name": "_amount",
          "type": "uint256"
        }
      ],
      "name": "increaseReferralRewards",
      "outputs": [],
      "stateMutability": "nonpayable",
      "type": "function"
    },
    {
      "inputs": [
        {
          "internalType": "address",
          "name": "",
          "type": "address"
        }
      ],
      "name": "isTradingContract",
      "outputs": [
        {
          "internalType": "bool",
          "name": "",
          "type": "bool"
        }
      ],
      "stateMutability": "view",
      "type": "function"
    },
    {
      "inputs": [],
      "name": "linkErc677",
      "outputs": [
        {
          "internalType": "contract TokenInterfaceV5",
          "name": "",
          "type": "address"
        }
      ],
      "stateMutability": "view",
      "type": "function"
    },
    {
      "inputs": [],
      "name": "maxGainP",
      "outputs": [
        {
          "internalType": "uint256",
          "name": "",
          "type": "uint256"
        }
      ],
      "stateMutability": "view",
      "type": "function"
    },
    {
      "inputs": [],
      "name": "maxPendingMarketOrders",
      "outputs": [
        {
          "internalType": "uint256",
          "name": "",
          "type": "uint256"
        }
      ],
      "stateMutability": "view",
      "type": "function"
    },
    {
      "inputs": [],
      "name": "maxSlP",
      "outputs": [
        {
          "internalType": "uint256",
          "name": "",
          "type": "uint256"
        }
      ],
      "stateMutability": "view",
      "type": "function"
    },
    {
      "inputs": [],
      "name": "maxTradesPerBlock",
      "outputs": [
        {
          "internalType": "uint256",
          "name": "",
          "type": "uint256"
        }
      ],
      "stateMutability": "view",
      "type": "function"
    },
    {
      "inputs": [],
      "name": "maxTradesPerPair",
      "outputs": [
        {
          "internalType": "uint256",
          "name": "",
          "type": "uint256"
        }
      ],
      "stateMutability": "view",
      "type": "function"
    },
    {
      "inputs": [
        {
          "internalType": "uint256",
          "name": "",
          "type": "uint256"
        }
      ],
      "name": "nftLastSuccess",
      "outputs": [
        {
          "internalType": "uint256",
          "name": "",
          "type": "uint256"
        }
      ],
      "stateMutability": "view",
      "type": "function"
    },
    {
      "inputs": [],
      "name": "nftRewards",
      "outputs": [
        {
          "internalType": "uint256",
          "name": "",
          "type": "uint256"
        }
      ],
      "stateMutability": "view",
      "type": "function"
    },
    {
      "inputs": [],
      "name": "nftSuccessTimelock",
      "outputs": [
        {
          "internalType": "uint256",
          "name": "",
          "type": "uint256"
        }
      ],
      "stateMutability": "view",
      "type": "function"
    },
    {
      "inputs": [
        {
          "internalType": "uint256",
          "name": "",
          "type": "uint256"
        }
      ],
      "name": "nfts",
      "outputs": [
        {
          "internalType": "contract NftInterfaceV5",
          "name": "",
          "type": "address"
        }
      ],
      "stateMutability": "view",
      "type": "function"
    },
    {
      "inputs": [
        {
          "internalType": "uint256",
          "name": "",
          "type": "uint256"
        },
        {
          "internalType": "uint256",
          "name": "",
          "type": "uint256"
        }
      ],
      "name": "openInterestDai",
      "outputs": [
        {
          "internalType": "uint256",
          "name": "",
          "type": "uint256"
        }
      ],
      "stateMutability": "view",
      "type": "function"
    },
    {
      "inputs": [
        {
          "internalType": "address",
          "name": "",
          "type": "address"
        },
        {
          "internalType": "uint256",
          "name": "",
          "type": "uint256"
        },
        {
          "internalType": "uint256",
          "name": "",
          "type": "uint256"
        }
      ],
      "name": "openLimitOrderIds",
      "outputs": [
        {
          "internalType": "uint256",
          "name": "",
          "type": "uint256"
        }
      ],
      "stateMutability": "view",
      "type": "function"
    },
    {
      "inputs": [
        {
          "internalType": "uint256",
          "name": "",
          "type": "uint256"
        }
      ],
      "name": "openLimitOrders",
      "outputs": [
        {
          "internalType": "address",
          "name": "trader",
          "type": "address"
        },
        {
          "internalType": "uint256",
          "name": "pairIndex",
          "type": "uint256"
        },
        {
          "internalType": "uint256",
          "name": "index",
          "type": "uint256"
        },
        {
          "internalType": "uint256",
          "name": "positionSize",
          "type": "uint256"
        },
        {
          "internalType": "uint256",
          "name": "spreadReductionP",
          "type": "uint256"
        },
        {
          "internalType": "bool",
          "name": "buy",
          "type": "bool"
        },
        {
          "internalType": "uint256",
          "name": "leverage",
          "type": "uint256"
        },
        {
          "internalType": "uint256",
          "name": "tp",
          "type": "uint256"
        },
        {
          "internalType": "uint256",
          "name": "sl",
          "type": "uint256"
        },
        {
          "internalType": "uint256",
          "name": "minPrice",
          "type": "uint256"
        },
        {
          "internalType": "uint256",
          "name": "maxPrice",
          "type": "uint256"
        },
        {
          "internalType": "uint256",
          "name": "block",
          "type": "uint256"
        },
        {
          "internalType": "uint256",
          "name": "tokenId",
          "type": "uint256"
        }
      ],
      "stateMutability": "view",
      "type": "function"
    },
    {
      "inputs": [
        {
          "internalType": "address",
          "name": "",
          "type": "address"
        },
        {
          "internalType": "uint256",
          "name": "",
          "type": "uint256"
        }
      ],
      "name": "openLimitOrdersCount",
      "outputs": [
        {
          "internalType": "uint256",
          "name": "",
          "type": "uint256"
        }
      ],
      "stateMutability": "view",
      "type": "function"
    },
    {
      "inputs": [
        {
          "internalType": "address",
          "name": "",
          "type": "address"
        },
        {
          "internalType": "uint256",
          "name": "",
          "type": "uint256"
        },
        {
          "internalType": "uint256",
          "name": "",
          "type": "uint256"
        }
      ],
      "name": "openTrades",
      "outputs": [
        {
          "internalType": "address",
          "name": "trader",
          "type": "address"
        },
        {
          "internalType": "uint256",
          "name": "pairIndex",
          "type": "uint256"
        },
        {
          "internalType": "uint256",
          "name": "index",
          "type": "uint256"
        },
        {
          "internalType": "uint256",
          "name": "initialPosToken",
          "type": "uint256"
        },
        {
          "internalType": "uint256",
          "name": "positionSizeDai",
          "type": "uint256"
        },
        {
          "internalType": "uint256",
          "name": "openPrice",
          "type": "uint256"
        },
        {
          "internalType": "bool",
          "name": "buy",
          "type": "bool"
        },
        {
          "internalType": "uint256",
          "name": "leverage",
          "type": "uint256"
        },
        {
          "internalType": "uint256",
          "name": "tp",
          "type": "uint256"
        },
        {
          "internalType": "uint256",
          "name": "sl",
          "type": "uint256"
        }
      ],
      "stateMutability": "view",
      "type": "function"
    },
    {
      "inputs": [
        {
          "internalType": "address",
          "name": "",
          "type": "address"
        },
        {
          "internalType": "uint256",
          "name": "",
          "type": "uint256"
        }
      ],
      "name": "openTradesCount",
      "outputs": [
        {
          "internalType": "uint256",
          "name": "",
          "type": "uint256"
        }
      ],
      "stateMutability": "view",
      "type": "function"
    },
    {
      "inputs": [
        {
          "internalType": "address",
          "name": "",
          "type": "address"
        },
        {
          "internalType": "uint256",
          "name": "",
          "type": "uint256"
        },
        {
          "internalType": "uint256",
          "name": "",
          "type": "uint256"
        }
      ],
      "name": "openTradesInfo",
      "outputs": [
        {
          "internalType": "uint256",
          "name": "tokenId",
          "type": "uint256"
        },
        {
          "internalType": "uint256",
          "name": "tokenPriceDai",
          "type": "uint256"
        },
        {
          "internalType": "uint256",
          "name": "openInterestDai",
          "type": "uint256"
        },
        {
          "internalType": "uint256",
          "name": "tpLastUpdated",
          "type": "uint256"
        },
        {
          "internalType": "uint256",
          "name": "slLastUpdated",
          "type": "uint256"
        },
        {
          "internalType": "bool",
          "name": "beingMarketClosed",
          "type": "bool"
        }
      ],
      "stateMutability": "view",
      "type": "function"
    },
    {
      "inputs": [
        {
          "internalType": "uint256",
          "name": "",
          "type": "uint256"
        },
        {
          "internalType": "uint256",
          "name": "",
          "type": "uint256"
        }
      ],
      "name": "pairTraders",
      "outputs": [
        {
          "internalType": "address",
          "name": "",
          "type": "address"
        }
      ],
      "stateMutability": "view",
      "type": "function"
    },
    {
      "inputs": [
        {
          "internalType": "uint256",
          "name": "_pairIndex",
          "type": "uint256"
        }
      ],
      "name": "pairTradersArray",
      "outputs": [
        {
          "internalType": "address[]",
          "name": "",
          "type": "address[]"
        }
      ],
      "stateMutability": "view",
      "type": "function"
    },
    {
      "inputs": [
        {
          "internalType": "address",
          "name": "",
          "type": "address"
        },
        {
          "internalType": "uint256",
          "name": "",
          "type": "uint256"
        }
      ],
      "name": "pairTradersId",
      "outputs": [
        {
          "internalType": "uint256",
          "name": "",
          "type": "uint256"
        }
      ],
      "stateMutability": "view",
      "type": "function"
    },
    {
      "inputs": [
        {
          "internalType": "address",
          "name": "",
          "type": "address"
        },
        {
          "internalType": "uint256",
          "name": "",
          "type": "uint256"
        }
      ],
      "name": "pendingMarketCloseCount",
      "outputs": [
        {
          "internalType": "uint256",
          "name": "",
          "type": "uint256"
        }
      ],
      "stateMutability": "view",
      "type": "function"
    },
    {
      "inputs": [
        {
          "internalType": "address",
          "name": "",
          "type": "address"
        },
        {
          "internalType": "uint256",
          "name": "",
          "type": "uint256"
        }
      ],
      "name": "pendingMarketOpenCount",
      "outputs": [
        {
          "internalType": "uint256",
          "name": "",
          "type": "uint256"
        }
      ],
      "stateMutability": "view",
      "type": "function"
    },
    {
      "inputs": [
        {
          "internalType": "address",
          "name": "",
          "type": "address"
        },
        {
          "internalType": "uint256",
          "name": "",
          "type": "uint256"
        }
      ],
      "name": "pendingOrderIds",
      "outputs": [
        {
          "internalType": "uint256",
          "name": "",
          "type": "uint256"
        }
      ],
      "stateMutability": "view",
      "type": "function"
    },
    {
      "inputs": [
        {
          "internalType": "address",
          "name": "_trader",
          "type": "address"
        }
      ],
      "name": "pendingOrderIdsCount",
      "outputs": [
        {
          "internalType": "uint256",
          "name": "",
          "type": "uint256"
        }
      ],
      "stateMutability": "view",
      "type": "function"
    },
    {
      "inputs": [],
      "name": "pool",
      "outputs": [
        {
          "internalType": "contract PoolInterfaceV5",
          "name": "",
          "type": "address"
        }
      ],
      "stateMutability": "view",
      "type": "function"
    },
    {
      "inputs": [],
      "name": "priceAggregator",
      "outputs": [
        {
          "internalType": "contract AggregatorInterfaceV5",
          "name": "",
          "type": "address"
        }
      ],
      "stateMutability": "view",
      "type": "function"
    },
    {
      "inputs": [
        {
          "internalType": "address",
          "name": "_trading",
          "type": "address"
        }
      ],
      "name": "removeTradingContract",
      "outputs": [],
      "stateMutability": "nonpayable",
      "type": "function"
    },
    {
      "inputs": [
        {
          "internalType": "uint256",
          "name": "",
          "type": "uint256"
        }
      ],
      "name": "reqID_pendingMarketOrder",
      "outputs": [
        {
          "components": [
            {
              "internalType": "address",
              "name": "trader",
              "type": "address"
            },
            {
              "internalType": "uint256",
              "name": "pairIndex",
              "type": "uint256"
            },
            {
              "internalType": "uint256",
              "name": "index",
              "type": "uint256"
            },
            {
              "internalType": "uint256",
              "name": "initialPosToken",
              "type": "uint256"
            },
            {
              "internalType": "uint256",
              "name": "positionSizeDai",
              "type": "uint256"
            },
            {
              "internalType": "uint256",
              "name": "openPrice",
              "type": "uint256"
            },
            {
              "internalType": "bool",
              "name": "buy",
              "type": "bool"
            },
            {
              "internalType": "uint256",
              "name": "leverage",
              "type": "uint256"
            },
            {
              "internalType": "uint256",
              "name": "tp",
              "type": "uint256"
            },
            {
              "internalType": "uint256",
              "name": "sl",
              "type": "uint256"
            }
          ],
          "internalType": "struct GFarmTradingStorageV5.Trade",
          "name": "trade",
          "type": "tuple"
        },
        {
          "internalType": "uint256",
          "name": "block",
          "type": "uint256"
        },
        {
          "internalType": "uint256",
          "name": "wantedPrice",
          "type": "uint256"
        },
        {
          "internalType": "uint256",
          "name": "slippageP",
          "type": "uint256"
        },
        {
          "internalType": "uint256",
          "name": "spreadReductionP",
          "type": "uint256"
        },
        {
          "internalType": "uint256",
          "name": "tokenId",
          "type": "uint256"
        }
      ],
      "stateMutability": "view",
      "type": "function"
    },
    {
      "inputs": [
        {
          "internalType": "uint256",
          "name": "",
          "type": "uint256"
        }
      ],
      "name": "reqID_pendingNftOrder",
      "outputs": [
        {
          "internalType": "address",
          "name": "nftHolder",
          "type": "address"
        },
        {
          "internalType": "uint256",
          "name": "nftId",
          "type": "uint256"
        },
        {
          "internalType": "address",
          "name": "trader",
          "type": "address"
        },
        {
          "internalType": "uint256",
          "name": "pairIndex",
          "type": "uint256"
        },
        {
          "internalType": "uint256",
          "name": "index",
          "type": "uint256"
        },
        {
          "internalType": "enum GFarmTradingStorageV5.LimitOrder",
          "name": "orderType",
          "type": "uint8"
        }
      ],
      "stateMutability": "view",
      "type": "function"
    },
    {
      "inputs": [
        {
          "internalType": "address",
          "name": "_callbacks",
          "type": "address"
        }
      ],
      "name": "setCallbacks",
      "outputs": [],
      "stateMutability": "nonpayable",
      "type": "function"
    },
    {
      "inputs": [
        {
          "internalType": "uint256",
          "name": "_lev",
          "type": "uint256"
        }
      ],
      "name": "setDefaultLeverageUnlocked",
      "outputs": [],
      "stateMutability": "nonpayable",
      "type": "function"
    },
    {
      "inputs": [
        {
          "internalType": "address",
          "name": "_dev",
          "type": "address"
        }
      ],
      "name": "setDev",
      "outputs": [],
      "stateMutability": "nonpayable",
      "type": "function"
    },
    {
      "inputs": [
        {
          "internalType": "address",
          "name": "_gov",
          "type": "address"
        }
      ],
      "name": "setGov",
      "outputs": [],
      "stateMutability": "nonpayable",
      "type": "function"
    },
    {
      "inputs": [
        {
          "internalType": "address",
          "name": "_trader",
          "type": "address"
        },
        {
          "internalType": "uint256",
          "name": "_newLeverage",
          "type": "uint256"
        }
      ],
      "name": "setLeverageUnlocked",
      "outputs": [],
      "stateMutability": "nonpayable",
      "type": "function"
    },
    {
      "inputs": [
        {
          "internalType": "uint256",
          "name": "_max",
          "type": "uint256"
        }
      ],
      "name": "setMaxGainP",
      "outputs": [],
      "stateMutability": "nonpayable",
      "type": "function"
    },
    {
      "inputs": [
        {
          "internalType": "uint256",
          "name": "_pairIndex",
          "type": "uint256"
        },
        {
          "internalType": "uint256",
          "name": "_newMaxOpenInterest",
          "type": "uint256"
        }
      ],
      "name": "setMaxOpenInterestDai",
      "outputs": [],
      "stateMutability": "nonpayable",
      "type": "function"
    },
    {
      "inputs": [
        {
          "internalType": "uint256",
          "name": "_maxPendingMarketOrders",
          "type": "uint256"
        }
      ],
      "name": "setMaxPendingMarketOrders",
      "outputs": [],
      "stateMutability": "nonpayable",
      "type": "function"
    },
    {
      "inputs": [
        {
          "internalType": "uint256",
          "name": "_max",
          "type": "uint256"
        }
      ],
      "name": "setMaxSlP",
      "outputs": [],
      "stateMutability": "nonpayable",
      "type": "function"
    },
    {
      "inputs": [
        {
          "internalType": "uint256",
          "name": "_maxTradesPerBlock",
          "type": "uint256"
        }
      ],
      "name": "setMaxTradesPerBlock",
      "outputs": [],
      "stateMutability": "nonpayable",
      "type": "function"
    },
    {
      "inputs": [
        {
          "internalType": "uint256",
          "name": "_maxTradesPerPair",
          "type": "uint256"
        }
      ],
      "name": "setMaxTradesPerPair",
      "outputs": [],
      "stateMutability": "nonpayable",
      "type": "function"
    },
    {
      "inputs": [
        {
          "internalType": "uint256",
          "name": "_blocks",
          "type": "uint256"
        }
      ],
      "name": "setNftSuccessTimelock",
      "outputs": [],
      "stateMutability": "nonpayable",
      "type": "function"
    },
    {
      "inputs": [
        {
          "internalType": "address",
          "name": "_pool",
          "type": "address"
        }
      ],
      "name": "setPool",
      "outputs": [],
      "stateMutability": "nonpayable",
      "type": "function"
    },
    {
      "inputs": [
        {
          "internalType": "address",
          "name": "_aggregator",
          "type": "address"
        }
      ],
      "name": "setPriceAggregator",
      "outputs": [],
      "stateMutability": "nonpayable",
      "type": "function"
    },
    {
      "inputs": [
        {
          "internalType": "uint256[5]",
          "name": "_r",
          "type": "uint256[5]"
        }
      ],
      "name": "setSpreadReductionsP",
      "outputs": [],
      "stateMutability": "nonpayable",
      "type": "function"
    },
    {
      "inputs": [
        {
          "internalType": "address",
          "name": "_tokenDaiRouter",
          "type": "address"
        }
      ],
      "name": "setTokenDaiRouter",
      "outputs": [],
      "stateMutability": "nonpayable",
      "type": "function"
    },
    {
      "inputs": [
        {
          "internalType": "address",
          "name": "_trading",
          "type": "address"
        }
      ],
      "name": "setTrading",
      "outputs": [],
      "stateMutability": "nonpayable",
      "type": "function"
    },
    {
      "inputs": [
        {
          "internalType": "address",
          "name": "_vault",
          "type": "address"
        }
      ],
      "name": "setVault",
      "outputs": [],
      "stateMutability": "nonpayable",
      "type": "function"
    },
    {
      "inputs": [
        {
          "internalType": "uint256",
          "name": "",
          "type": "uint256"
        }
      ],
      "name": "spreadReductionsP",
      "outputs": [
        {
          "internalType": "uint256",
          "name": "",
          "type": "uint256"
        }
      ],
      "stateMutability": "view",
      "type": "function"
    },
    {
      "inputs": [
        {
          "components": [
            {
              "internalType": "address",
              "name": "trader",
              "type": "address"
            },
            {
              "internalType": "uint256",
              "name": "pairIndex",
              "type": "uint256"
            },
            {
              "internalType": "uint256",
              "name": "index",
              "type": "uint256"
            },
            {
              "internalType": "uint256",
              "name": "positionSize",
              "type": "uint256"
            },
            {
              "internalType": "uint256",
              "name": "spreadReductionP",
              "type": "uint256"
            },
            {
              "internalType": "bool",
              "name": "buy",
              "type": "bool"
            },
            {
              "internalType": "uint256",
              "name": "leverage",
              "type": "uint256"
            },
            {
              "internalType": "uint256",
              "name": "tp",
              "type": "uint256"
            },
            {
              "internalType": "uint256",
              "name": "sl",
              "type": "uint256"
            },
            {
              "internalType": "uint256",
              "name": "minPrice",
              "type": "uint256"
            },
            {
              "internalType": "uint256",
              "name": "maxPrice",
              "type": "uint256"
            },
            {
              "internalType": "uint256",
              "name": "block",
              "type": "uint256"
            },
            {
              "internalType": "uint256",
              "name": "tokenId",
              "type": "uint256"
            }
          ],
          "internalType": "struct GFarmTradingStorageV5.OpenLimitOrder",
          "name": "o",
          "type": "tuple"
        }
      ],
      "name": "storeOpenLimitOrder",
      "outputs": [],
      "stateMutability": "nonpayable",
      "type": "function"
    },
    {
      "inputs": [
        {
          "components": [
            {
              "components": [
                {
                  "internalType": "address",
                  "name": "trader",
                  "type": "address"
                },
                {
                  "internalType": "uint256",
                  "name": "pairIndex",
                  "type": "uint256"
                },
                {
                  "internalType": "uint256",
                  "name": "index",
                  "type": "uint256"
                },
                {
                  "internalType": "uint256",
                  "name": "initialPosToken",
                  "type": "uint256"
                },
                {
                  "internalType": "uint256",
                  "name": "positionSizeDai",
                  "type": "uint256"
                },
                {
                  "internalType": "uint256",
                  "name": "openPrice",
                  "type": "uint256"
                },
                {
                  "internalType": "bool",
                  "name": "buy",
                  "type": "bool"
                },
                {
                  "internalType": "uint256",
                  "name": "leverage",
                  "type": "uint256"
                },
                {
                  "internalType": "uint256",
                  "name": "tp",
                  "type": "uint256"
                },
                {
                  "internalType": "uint256",
                  "name": "sl",
                  "type": "uint256"
                }
              ],
              "internalType": "struct GFarmTradingStorageV5.Trade",
              "name": "trade",
              "type": "tuple"
            },
            {
              "internalType": "uint256",
              "name": "block",
              "type": "uint256"
            },
            {
              "internalType": "uint256",
              "name": "wantedPrice",
              "type": "uint256"
            },
            {
              "internalType": "uint256",
              "name": "slippageP",
              "type": "uint256"
            },
            {
              "internalType": "uint256",
              "name": "spreadReductionP",
              "type": "uint256"
            },
            {
              "internalType": "uint256",
              "name": "tokenId",
              "type": "uint256"
            }
          ],
          "internalType": "struct GFarmTradingStorageV5.PendingMarketOrder",
          "name": "_order",
          "type": "tuple"
        },
        {
          "internalType": "uint256",
          "name": "_id",
          "type": "uint256"
        },
        {
          "internalType": "bool",
          "name": "_open",
          "type": "bool"
        }
      ],
      "name": "storePendingMarketOrder",
      "outputs": [],
      "stateMutability": "nonpayable",
      "type": "function"
    },
    {
      "inputs": [
        {
          "components": [
            {
              "internalType": "address",
              "name": "nftHolder",
              "type": "address"
            },
            {
              "internalType": "uint256",
              "name": "nftId",
              "type": "uint256"
            },
            {
              "internalType": "address",
              "name": "trader",
              "type": "address"
            },
            {
              "internalType": "uint256",
              "name": "pairIndex",
              "type": "uint256"
            },
            {
              "internalType": "uint256",
              "name": "index",
              "type": "uint256"
            },
            {
              "internalType": "enum GFarmTradingStorageV5.LimitOrder",
              "name": "orderType",
              "type": "uint8"
            }
          ],
          "internalType": "struct GFarmTradingStorageV5.PendingNftOrder",
          "name": "_nftOrder",
          "type": "tuple"
        },
        {
          "internalType": "uint256",
          "name": "_orderId",
          "type": "uint256"
        }
      ],
      "name": "storePendingNftOrder",
      "outputs": [],
      "stateMutability": "nonpayable",
      "type": "function"
    },
    {
      "inputs": [
        {
          "components": [
            {
              "internalType": "address",
              "name": "trader",
              "type": "address"
            },
            {
              "internalType": "uint256",
              "name": "pairIndex",
              "type": "uint256"
            },
            {
              "internalType": "uint256",
              "name": "index",
              "type": "uint256"
            },
            {
              "internalType": "uint256",
              "name": "initialPosToken",
              "type": "uint256"
            },
            {
              "internalType": "uint256",
              "name": "positionSizeDai",
              "type": "uint256"
            },
            {
              "internalType": "uint256",
              "name": "openPrice",
              "type": "uint256"
            },
            {
              "internalType": "bool",
              "name": "buy",
              "type": "bool"
            },
            {
              "internalType": "uint256",
              "name": "leverage",
              "type": "uint256"
            },
            {
              "internalType": "uint256",
              "name": "tp",
              "type": "uint256"
            },
            {
              "internalType": "uint256",
              "name": "sl",
              "type": "uint256"
            }
          ],
          "internalType": "struct GFarmTradingStorageV5.Trade",
          "name": "_trade",
          "type": "tuple"
        },
        {
          "components": [
            {
              "internalType": "uint256",
              "name": "tokenId",
              "type": "uint256"
            },
            {
              "internalType": "uint256",
              "name": "tokenPriceDai",
              "type": "uint256"
            },
            {
              "internalType": "uint256",
              "name": "openInterestDai",
              "type": "uint256"
            },
            {
              "internalType": "uint256",
              "name": "tpLastUpdated",
              "type": "uint256"
            },
            {
              "internalType": "uint256",
              "name": "slLastUpdated",
              "type": "uint256"
            },
            {
              "internalType": "bool",
              "name": "beingMarketClosed",
              "type": "bool"
            }
          ],
          "internalType": "struct GFarmTradingStorageV5.TradeInfo",
          "name": "_tradeInfo",
          "type": "tuple"
        }
      ],
      "name": "storeTrade",
      "outputs": [],
      "stateMutability": "nonpayable",
      "type": "function"
    },
    {
      "inputs": [
        {
          "internalType": "uint256",
          "name": "",
          "type": "uint256"
        }
      ],
      "name": "supportedTokens",
      "outputs": [
        {
          "internalType": "address",
          "name": "",
          "type": "address"
        }
      ],
      "stateMutability": "view",
      "type": "function"
    },
    {
      "inputs": [],
      "name": "tokenDaiRouter",
      "outputs": [
        {
          "internalType": "address",
          "name": "",
          "type": "address"
        }
      ],
      "stateMutability": "view",
      "type": "function"
    },
    {
      "inputs": [],
      "name": "tokensBurned",
      "outputs": [
        {
          "internalType": "uint256",
          "name": "",
          "type": "uint256"
        }
      ],
      "stateMutability": "view",
      "type": "function"
    },
    {
      "inputs": [],
      "name": "tokensMinted",
      "outputs": [
        {
          "internalType": "uint256",
          "name": "",
          "type": "uint256"
        }
      ],
      "stateMutability": "view",
      "type": "function"
    },
    {
      "inputs": [
        {
          "internalType": "address",
          "name": "",
          "type": "address"
        }
      ],
      "name": "traders",
      "outputs": [
        {
          "internalType": "uint256",
          "name": "leverageUnlocked",
          "type": "uint256"
        },
        {
          "internalType": "address",
          "name": "referral",
          "type": "address"
        },
        {
          "internalType": "uint256",
          "name": "referralRewardsTotal",
          "type": "uint256"
        }
      ],
      "stateMutability": "view",
      "type": "function"
    },
    {
      "inputs": [
        {
          "internalType": "uint256",
          "name": "",
          "type": "uint256"
        }
      ],
      "name": "tradesPerBlock",
      "outputs": [
        {
          "internalType": "uint256",
          "name": "",
          "type": "uint256"
        }
      ],
      "stateMutability": "view",
      "type": "function"
    },
    {
      "inputs": [],
      "name": "trading",
      "outputs": [
        {
          "internalType": "contract PausableInterfaceV5",
          "name": "",
          "type": "address"
        }
      ],
      "stateMutability": "view",
      "type": "function"
    },
    {
      "inputs": [
        {
          "internalType": "address",
          "name": "_from",
          "type": "address"
        },
        {
          "internalType": "address",
          "name": "_to",
          "type": "address"
        },
        {
          "internalType": "uint256",
          "name": "_amount",
          "type": "uint256"
        }
      ],
      "name": "transferDai",
      "outputs": [],
      "stateMutability": "nonpayable",
      "type": "function"
    },
    {
      "inputs": [
        {
          "internalType": "address",
          "name": "_from",
          "type": "address"
        },
        {
          "internalType": "uint256",
          "name": "_pairIndex",
          "type": "uint256"
        },
        {
          "internalType": "uint256",
          "name": "_leveragedPosDai",
          "type": "uint256"
        }
      ],
      "name": "transferLinkToAggregator",
      "outputs": [],
      "stateMutability": "nonpayable",
      "type": "function"
    },
    {
      "inputs": [
        {
          "internalType": "address",
          "name": "_trader",
          "type": "address"
        },
        {
          "internalType": "uint256",
          "name": "_pairIndex",
          "type": "uint256"
        },
        {
          "internalType": "uint256",
          "name": "_index",
          "type": "uint256"
        }
      ],
      "name": "unregisterOpenLimitOrder",
      "outputs": [],
      "stateMutability": "nonpayable",
      "type": "function"
    },
    {
      "inputs": [
        {
          "internalType": "uint256",
          "name": "_id",
          "type": "uint256"
        },
        {
          "internalType": "bool",
          "name": "_open",
          "type": "bool"
        }
      ],
      "name": "unregisterPendingMarketOrder",
      "outputs": [],
      "stateMutability": "nonpayable",
      "type": "function"
    },
    {
      "inputs": [
        {
          "internalType": "uint256",
          "name": "_order",
          "type": "uint256"
        }
      ],
      "name": "unregisterPendingNftOrder",
      "outputs": [],
      "stateMutability": "nonpayable",
      "type": "function"
    },
    {
      "inputs": [
        {
          "internalType": "address",
          "name": "trader",
          "type": "address"
        },
        {
          "internalType": "uint256",
          "name": "pairIndex",
          "type": "uint256"
        },
        {
          "internalType": "uint256",
          "name": "index",
          "type": "uint256"
        }
      ],
      "name": "unregisterTrade",
      "outputs": [],
      "stateMutability": "nonpayable",
      "type": "function"
    },
    {
      "inputs": [
        {
          "internalType": "contract NftInterfaceV5[5]",
          "name": "_nfts",
          "type": "address[5]"
        }
      ],
      "name": "updateNfts",
      "outputs": [],
      "stateMutability": "nonpayable",
      "type": "function"
    },
    {
      "inputs": [
        {
          "components": [
            {
              "internalType": "address",
              "name": "trader",
              "type": "address"
            },
            {
              "internalType": "uint256",
              "name": "pairIndex",
              "type": "uint256"
            },
            {
              "internalType": "uint256",
              "name": "index",
              "type": "uint256"
            },
            {
              "internalType": "uint256",
              "name": "positionSize",
              "type": "uint256"
            },
            {
              "internalType": "uint256",
              "name": "spreadReductionP",
              "type": "uint256"
            },
            {
              "internalType": "bool",
              "name": "buy",
              "type": "bool"
            },
            {
              "internalType": "uint256",
              "name": "leverage",
              "type": "uint256"
            },
            {
              "internalType": "uint256",
              "name": "tp",
              "type": "uint256"
            },
            {
              "internalType": "uint256",
              "name": "sl",
              "type": "uint256"
            },
            {
              "internalType": "uint256",
              "name": "minPrice",
              "type": "uint256"
            },
            {
              "internalType": "uint256",
              "name": "maxPrice",
              "type": "uint256"
            },
            {
              "internalType": "uint256",
              "name": "block",
              "type": "uint256"
            },
            {
              "internalType": "uint256",
              "name": "tokenId",
              "type": "uint256"
            }
          ],
          "internalType": "struct GFarmTradingStorageV5.OpenLimitOrder",
          "name": "_o",
          "type": "tuple"
        }
      ],
      "name": "updateOpenLimitOrder",
      "outputs": [],
      "stateMutability": "nonpayable",
      "type": "function"
    },
    {
      "inputs": [
        {
          "internalType": "address",
          "name": "_trader",
          "type": "address"
        },
        {
          "internalType": "uint256",
          "name": "_pairIndex",
          "type": "uint256"
        },
        {
          "internalType": "uint256",
          "name": "_index",
          "type": "uint256"
        },
        {
          "internalType": "uint256",
          "name": "_newSl",
          "type": "uint256"
        }
      ],
      "name": "updateSl",
      "outputs": [],
      "stateMutability": "nonpayable",
      "type": "function"
    },
    {
      "inputs": [
        {
          "internalType": "contract TokenInterfaceV5",
          "name": "_newToken",
          "type": "address"
        }
      ],
      "name": "updateToken",
      "outputs": [],
      "stateMutability": "nonpayable",
      "type": "function"
    },
    {
      "inputs": [
        {
          "internalType": "address",
          "name": "_trader",
          "type": "address"
        },
        {
          "internalType": "uint256",
          "name": "_pairIndex",
          "type": "uint256"
        },
        {
          "internalType": "uint256",
          "name": "_index",
          "type": "uint256"
        },
        {
          "internalType": "uint256",
          "name": "_newTp",
          "type": "uint256"
        }
      ],
      "name": "updateTp",
      "outputs": [],
      "stateMutability": "nonpayable",
      "type": "function"
    },
    {
      "inputs": [
        {
          "components": [
            {
              "internalType": "address",
              "name": "trader",
              "type": "address"
            },
            {
              "internalType": "uint256",
              "name": "pairIndex",
              "type": "uint256"
            },
            {
              "internalType": "uint256",
              "name": "index",
              "type": "uint256"
            },
            {
              "internalType": "uint256",
              "name": "initialPosToken",
              "type": "uint256"
            },
            {
              "internalType": "uint256",
              "name": "positionSizeDai",
              "type": "uint256"
            },
            {
              "internalType": "uint256",
              "name": "openPrice",
              "type": "uint256"
            },
            {
              "internalType": "bool",
              "name": "buy",
              "type": "bool"
            },
            {
              "internalType": "uint256",
              "name": "leverage",
              "type": "uint256"
            },
            {
              "internalType": "uint256",
              "name": "tp",
              "type": "uint256"
            },
            {
              "internalType": "uint256",
              "name": "sl",
              "type": "uint256"
            }
          ],
          "internalType": "struct GFarmTradingStorageV5.Trade",
          "name": "_t",
          "type": "tuple"
        }
      ],
      "name": "updateTrade",
      "outputs": [],
      "stateMutability": "nonpayable",
      "type": "function"
    },
    {
      "inputs": [],
      "name": "vault",
      "outputs": [
        {
          "internalType": "address",
          "name": "",
          "type": "address"
        }
      ],
      "stateMutability": "view",
      "type": "function"
    }
  ],
  "transactionHash": "0xadfe008f2cc4949caf5c384fd1c2ee8acdb5ba7590bbbd2515e4c1d56a72c310",
  "args": [
    "0x9daCd4B76b748674a46f8554c8b56bb10A95ef04",
    "0x84b9B910527Ad5C03A9Ca831909E21e236EA7b06"
  ],
  "numDeployments": 1,
  "solcInputHash": "ed85f729ad2a883999cc9715ad00c839",
  "bytecode": "0x61016060405273f9a4c522e327935bd1f5a338c121e14e4cc1f89860c09081527377cd42b925e1a82f41d852d6be727cfc88fddbbc60e052733378ad81d09de23725ee9b9270635c97ed601921610100527302e2c5825c1a3b69c0417706dbe1327c2af3e6c261012052732d266a94469d05c9e06d52a4d0d9c23b157767c261014052620000929060049060056200015d565b506003600b556005600c819055600d819055610384600e556050600f908155603260108190556011556040805160a08101825291825260146020830152601990820152601e606082015260236080820152620000f29160129190620001ba565b503480156200010057600080fd5b5060405162004fa438038062004fa4833981016040819052620001239162000224565b6001600160a01b039182166080521660a05260178054336001600160a01b031991821681179092556018805490911690911790556200025c565b8260058101928215620001a8579160200282015b82811115620001a857825182546001600160a01b0319166001600160a01b0390911617825560209092019160019091019062000171565b50620001b6929150620001f0565b5090565b8260058101928215620001a8579160200282015b82811115620001a8578251829060ff16905591602001919060010190620001ce565b5b80821115620001b65760008155600101620001f1565b80516001600160a01b03811681146200021f57600080fd5b919050565b600080604083850312156200023857600080fd5b620002438362000207565b9150620002536020840162000207565b90509250929050565b60805160a051614cff620002a5600039600081816111e10152611a4b01526000818161113d01528181611cf101528181611d4e015281816135be015261365b0152614cff6000f3fe608060405234801561001057600080fd5b50600436106106715760003560e01c806392a88fa211610350578063d477f05f116101c8578063eda00d5411610104578063f7b3c6fd116100ad578063fbfa77cf11610087578063fbfa77cf146111ad578063fdb59413146111c0578063fe0fc8d6146111c9578063fece4eac146111dc57600080fd5b8063f7b3c6fd14611168578063f823e2ae14611191578063f8d24b48146111a457600080fd5b8063f2c13bdf116100de578063f2c13bdf14611125578063f4b9fa7514611138578063f65d9dbe1461115f57600080fd5b8063eda00d54146110d8578063ee92a4ff14611109578063f013d2781461111257600080fd5b8063e378b36711610171578063e7873b581161014b578063e7873b58146110a0578063ea5c3c33146110a9578063ec44acf2146110b2578063ecf56a1f146110c557600080fd5b8063e378b36714611067578063e3cbe3a71461107a578063e3f04eba1461108d57600080fd5b8063dc2123ff116101a2578063dc2123ff1461102e578063dcdf339a14611041578063e212991a1461105457600080fd5b8063d477f05f14610fe1578063d4bda90814610ff4578063d53913931461100757600080fd5b8063b7682d5411610297578063c76faf7811610240578063cfbacc141161021a578063cfbacc1414610fab578063d294f09314610fbe578063d3b5fe7014610fc6578063d3c7c2c714610fd957600080fd5b8063c76faf7814610f72578063cab9458014610f85578063cfad57a214610f9857600080fd5b8063c122fea611610271578063c122fea614610f43578063c311ab3114610f4c578063c625562614610f5f57600080fd5b8063b7682d5414610ee5578063b8878a2c14610f10578063bcc9f1d314610f3057600080fd5b8063a553906c116102f9578063b4b0f567116102d3578063b4b0f56714610ded578063b66e6b0514610e00578063b767608a14610ed257600080fd5b8063a553906c14610dae578063aa3b7d7714610dc1578063aaf5eb6814610de157600080fd5b80639c8912f11161032a5780639c8912f114610c9c578063a354418114610cc7578063a3a80ffe14610cda57600080fd5b806392a88fa214610bb257806397e7995a14610c0d57806399794d3514610c3857600080fd5b80635378143e116104ee5780636e70e7b61161042a578063817fa1a4116103d35780638bf7f5f9116103ad5780638bf7f5f914610af35780638c8ff1d514610b0657806390d112b914610b8c57806391cca3db14610b9f57600080fd5b8063817fa1a414610ac25780638a0bd70214610ad55780638bbb644c14610aea57600080fd5b80637ad3def2116104045780637ad3def214610a935780637fdb96f314610aa65780638049fde714610ab957600080fd5b80636e70e7b614610a645780637395d79e14610a77578063796d82d914610a8a57600080fd5b80635fbfe8cc1161049757806368ca199d1161047157806368ca199d146109ec5780636d69fcaf14610a155780636d81d98114610a285780636de9f32b14610a5b57600080fd5b80635fbfe8cc146109a65780636690a806146109c65780636817031b146109d957600080fd5b80635ad9f993116104c85780635ad9f9931461096a5780635b621e32146109735780635c76ac9e1461098657600080fd5b80635378143e1461093957806356a6796f1461094c5780635a9125511461096157600080fd5b806328daca21116105bd57806343b8fab51161056657806344d44f5a1161054057806344d44f5a146108e05780634daf04b1146108f35780635070e8371461090657806352e5398f1461091957600080fd5b806343b8fab51461088f5780634415b369146108a25780634437152a146108cd57600080fd5b8063321495921161059757806332149592146107ce5780633b0f0f2f1461084d5780633dae10a01461087c57600080fd5b806328daca2114610795578063292c1617146107a85780633078fff5146107bb57600080fd5b806318407fe01161061f57806321f7a30b116105f957806321f7a30b1461075c578063265aa6211461076f57806328b1f8871461078257600080fd5b806318407fe0146107075780631c8636b41461071e578063201d8bdb1461074957600080fd5b806312d43a511161065057806312d43a51146106ce57806313b36ff6146106e157806316f0115b146106f457600080fd5b8062b127831461067657806306aef7de146106a6578063099fa934146106bb575b600080fd5b600354610689906001600160a01b031681565b6040516001600160a01b0390911681526020015b60405180910390f35b6106b96106b4366004614284565b611203565b005b6106b96106c936600461430b565b611276565b601754610689906001600160a01b031681565b6106b96106ef36600461430b565b611307565b600154610689906001600160a01b031681565b610710601c5481565b60405190815260200161069d565b61071061072c366004614334565b602460209081526000928352604080842090915290825290205481565b6106b961075736600461430b565b611399565b6106b961076a366004614334565b611401565b61068961077d36600461430b565b611451565b6106b9610790366004614334565b611471565b6107106107a3366004614360565b6114a9565b6107106107b6366004614334565b6114ce565b600054610689906001600160a01b031681565b6107e16107dc36600461430b565b611532565b604080516001600160a01b03909e168e5260208e019c909c529a8c019990995260608b019790975260808a019590955292151560a089015260c088019190915260e08701526101008601526101208501526101408401526101608301526101808201526101a00161069d565b61068961085b366004614382565b6001600160a01b039081166000908152602160205260409020600101541690565b61071061088a36600461430b565b6115b9565b6106b961089d36600461430b565b6115d0565b6107106108b0366004614334565b602e60209081526000928352604080842090915290825290205481565b6106b96108db366004614382565b611660565b6107106108ee366004614334565b6116e5565b6106b9610901366004614382565b61171c565b6106b9610914366004614382565b6117ba565b61071061092736600461430b565b60306020526000908152604090205481565b6106b96109473660046143b8565b611858565b610954611879565b60405161069d91906143fa565b610710600f5481565b610710601f5481565b6106b9610981366004614382565b6118b5565b610999610994366004614382565b611930565b60405161069d919061442b565b6109b96109b436600461430b565b61199c565b60405161069d919061446f565b6106b96109d43660046144b0565b611a07565b6106b96109e7366004614382565b611b5c565b6107106109fa366004614382565b6001600160a01b031660009081526021602052604090205490565b6106b9610a23366004614382565b611bfa565b610a4b610a36366004614382565b60326020526000908152604090205460ff1681565b604051901515815260200161069d565b610710601e5481565b6106b9610a723660046144e5565b611c9f565b6106b9610a85366004614360565b611d7d565b610710600c5481565b6106b9610aa1366004614382565b611dbc565b6106b9610ab4366004614526565b611f88565b610710600d5481565b6106b9610ad0366004614561565b612011565b610add6120c9565b60405161069d9190614686565b61071060105481565b6106b9610b0136600461430b565b6121b8565b610b5d610b143660046144b0565b6023602090815260009384526040808520825292845282842090528252902080546001820154600283015460038401546004850154600590950154939492939192909160ff1686565b6040805196875260208701959095529385019290925260608401526080830152151560a082015260c00161069d565b6106b9610b9a3660046144b0565b612248565b601854610689906001600160a01b031681565b610bea610bc0366004614382565b60216020526000908152604090208054600182015460029092015490916001600160a01b03169083565b604080519384526001600160a01b0390921660208401529082015260600161069d565b610710610c1b366004614334565b602660209081526000928352604080842090915290825290205481565b610c8a610c4636600461430b565b6029602052600090815260409020805460018201546002830154600384015460048501546005909501546001600160a01b0394851695939490921692909160ff1686565b60405161069d969594939291906146df565b610710610caa366004614334565b602b60209081526000928352604080842090915290825290205481565b6106b9610cd5366004614526565b612550565b610d58610ce83660046144b0565b602260209081526000938452604080852082529284528284209052825290208054600182015460028301546003840154600485015460058601546006870154600788015460088901546009909901546001600160a01b03909816989697959694959394929360ff9092169290918a565b604080516001600160a01b03909b168b5260208b0199909952978901969096526060880194909452608087019290925260a0860152151560c085015260e08401526101008301526101208201526101400161069d565b6106b9610dbc366004614382565b6125d9565b610710610dcf36600461430b565b60316020526000908152604090205481565b6107106402540be40081565b6106b9610dfb3660046144b0565b612677565b610ec0610e0e36600461430b565b60286020908152600091825260409182902082516101408101845281546001600160a01b031681526001820154928101929092526002810154928201929092526003820154606082015260048201546080820152600582015460a0820152600682015460ff16151560c0820152600782015460e082015260088201546101008201526009820154610120820152600a820154600b830154600c840154600d850154600e90950154939492939192909186565b60405161069d9695949392919061473b565b6106b9610ee03660046147e1565b612970565b610710610ef3366004614334565b602c60209081526000928352604080842090915290825290205481565b610f23610f1e3660046144b0565b612a8c565b60405161069d91906147fa565b610710610f3e366004614334565b612c10565b610710600e5481565b6106b9610f5a3660046148a2565b612c41565b610689610f6d36600461430b565b612e9f565b6106b9610f80366004614932565b612ec9565b6106b9610f933660046149c4565b613099565b6106b9610fa6366004614382565b613389565b610710610fb93660046149f4565b61340d565b6106b9613554565b6106b9610fd4366004614a3e565b6136e1565b6109b96139e4565b6106b9610fef366004614382565b613a45565b6106b9611002366004614af1565b613ac9565b6107107f9f2df0fed2c77648de5860a4cc508cd0818c85b8b8a1ab4ceeef8d981c8956a681565b6106b961103c36600461430b565b613b53565b610a4b61104f3660046144b0565b613be3565b6106b961106236600461430b565b613c7f565b6106b9611075366004614360565b613d02565b610689611088366004614360565b613da0565b6106b961109b36600461430b565b613dd8565b610710601d5481565b610710601a5481565b600254610689906001600160a01b031681565b6106b96110d336600461430b565b613e4e565b6107106110e63660046144b0565b602560209081526000938452604080852082529284528284209052825290205481565b61071060195481565b6106b9611120366004614b0e565b613ede565b600a54610689906001600160a01b031681565b6106897f000000000000000000000000000000000000000000000000000000000000000081565b610710600b5481565b610710611176366004614382565b6001600160a01b03166000908152602a602052604090205490565b6106b961119f366004614382565b613f88565b61071060115481565b600954610689906001600160a01b031681565b610710601b5481565b6106b96111d7366004614382565b614006565b6106897f000000000000000000000000000000000000000000000000000000000000000081565b6017546001600160a01b0316331461121a57600080fd5b80516001600160a01b031661122e57600080fd5b61123b600482600561412f565b507f89a3bfeda71ede5f8735aa09127c97cd56aa3803356c52f7c30caf418238b4648160405161126b9190614b46565b60405180910390a150565b6017546001600160a01b0316331461128d57600080fd5b603281101561129b57600080fd5b600f819055604080518181526006918101919091527f6d6178536c5000000000000000000000000000000000000000000000000000006060820152602081018290527f8cf3e35f6221b16e1670a3413180c9484bf5aa71787905909fa82a6a2662e9ab9060800161126b565b6017546001600160a01b0316331461131e57600080fd5b61012c81101561132d57600080fd5b600e819055604080518181526008918101919091527f6d61784761696e500000000000000000000000000000000000000000000000006060820152602081018290527f8cf3e35f6221b16e1670a3413180c9484bf5aa71787905909fa82a6a2662e9ab9060800161126b565b3360009081526032602052604090205460ff166113b557600080fd5b600090815260296020526040812080546001600160a01b03199081168255600182018390556002820180549091169055600381018290556004810191909155600501805460ff19169055565b3360009081526032602052604090205460ff1661141d57600080fd5b6001600160a01b03821660009081526021602052604081206002018054839290611448908490614b8d565b90915550505050565b6004816005811061146157600080fd5b01546001600160a01b0316905081565b3360009081526032602052604090205460ff1661148d57600080fd5b6001600160a01b03909116600090815260216020526040902055565b602f60205281600052604060002081600381106114c557600080fd5b01549150829050565b6000805b600b5481101561152b576001600160a01b0384166000908152602260209081526040808320868452825280832084845290915281206007015490036115195780915061152b565b8061152381614ba5565b9150506114d2565b5092915050565b6027818154811061154257600080fd5b60009182526020909120600d9091020180546001820154600283015460038401546004850154600586015460068701546007880154600889015460098a0154600a8b0154600b8c0154600c909c01546001600160a01b03909b169c50989a97999698959760ff90951696939592949193909291908d565b601281600581106115c957600080fd5b0154905081565b6017546001600160a01b031633146115e757600080fd5b600081116115f457600080fd5b6010819055604080518181526017918101919091527f64656661756c744c65766572616765556e6c6f636b65640000000000000000006060820152602081018290527f8cf3e35f6221b16e1670a3413180c9484bf5aa71787905909fa82a6a2662e9ab9060800161126b565b6017546001600160a01b0316331461167757600080fd5b6001600160a01b03811661168a57600080fd5b600180546001600160a01b0319166001600160a01b03831690811790915560408051818152600491810191909152631c1bdbdb60e21b60608201526020810191909152600080516020614caa8339815191529060800161126b565b6000805b600b5481101561152b576116fe848483613be3565b61170a5780915061152b565b8061171481614ba5565b9150506116e9565b6017546001600160a01b0316331461173357600080fd5b6001600160a01b03811661174657600080fd5b600a80546001600160a01b0319166001600160a01b03831690811790915560408051818152600e918101919091527f746f6b656e446169526f7574657200000000000000000000000000000000000060608201526020810191909152600080516020614caa8339815191529060800161126b565b6017546001600160a01b031633146117d157600080fd5b6001600160a01b0381166117e457600080fd5b600080546001600160a01b0319166001600160a01b03831690811790915560408051818152600f918101919091527f707269636541676772656761746f72000000000000000000000000000000000060608201526020810191909152600080516020614caa8339815191529060800161126b565b3360009081526032602052604090205460ff1661187457600080fd5b505050565b611881614187565b6040805160a08101918290529060129060059082845b815481526020019060010190808311611897575b5050505050905090565b6017546001600160a01b031633146118cc57600080fd5b6001600160a01b0381166118df57600080fd5b6001600160a01b038116600081815260326020908152604091829020805460ff1916905590519182527ff9cf924d7d98e6e0a27ec523cd7214b0bbdfaba197018b33b41a702f5238190e910161126b565b6001600160a01b0381166000908152602a602090815260409182902080548351818402810184019094528084526060939283018282801561199057602002820191906000526020600020905b81548152602001906001019080831161197c575b50505050509050919050565b6000818152602d602090815260409182902080548351818402810184019094528084526060939283018282801561199057602002820191906000526020600020905b81546001600160a01b031681526001909101906020018083116119de5750505050509050919050565b3360009081526032602052604090205460ff16611a2357600080fd5b60005460405163b9e0336f60e01b815260048101849052602481018390526001600160a01b037f00000000000000000000000000000000000000000000000000000000000000008116926323b872dd92879290911690819063b9e0336f90604401602060405180830381865afa158015611aa1573d6000803e3d6000fd5b505050506040513d601f19601f82011682018060405250810190611ac59190614bbe565b6040517fffffffff0000000000000000000000000000000000000000000000000000000060e086901b1681526001600160a01b03938416600482015292909116602483015260448201526064015b6020604051808303816000875af1158015611b32573d6000803e3d6000fd5b505050506040513d601f19601f82011682018060405250810190611b569190614bd7565b50505050565b6017546001600160a01b03163314611b7357600080fd5b6001600160a01b038116611b8657600080fd5b600980546001600160a01b0319166001600160a01b038316908117909155604080518181526005918101919091527f7661756c7400000000000000000000000000000000000000000000000000000060608201526020810191909152600080516020614caa8339815191529060800161126b565b6017546001600160a01b03163314611c1157600080fd5b6001600160a01b038116611c2457600080fd5b6020805460018101825560008290527fc97bfaf2f8ee708c303a06d134f5ecd8389ae0432af62dc132a24118292866bb0180546001600160a01b0319166001600160a01b0384169081179091556040519081527fd1be2e90bd3d24839d9dd94ad871068e1f9688b02fa43f2a62c9975dfa9de2d7910161126b565b3360009081526032602052604090205460ff16611cbb57600080fd5b306001600160a01b03841603611d205760405163a9059cbb60e01b81526001600160a01b038381166004830152602482018390527f0000000000000000000000000000000000000000000000000000000000000000169063a9059cbb90604401611b13565b6040516323b872dd60e01b81526001600160a01b0384811660048301528381166024830152604482018390527f000000000000000000000000000000000000000000000000000000000000000016906323b872dd90606401611b13565b3360009081526032602052604090205460ff16611d9957600080fd5b6000828152603160205260408120439055601f8054839290611448908490614b8d565b6017546001600160a01b03163314611dd357600080fd5b600260009054906101000a90046001600160a01b03166001600160a01b031663b187bd266040518163ffffffff1660e01b8152600401602060405180830381865afa158015611e26573d6000803e3d6000fd5b505050506040513d601f19601f82011682018060405250810190611e4a9190614bd7565b8015611ec85750600360009054906101000a90046001600160a01b03166001600160a01b031663b187bd266040518163ffffffff1660e01b8152600401602060405180830381865afa158015611ea4573d6000803e3d6000fd5b505050506040513d601f19601f82011682018060405250810190611ec89190614bd7565b611f185760405162461bcd60e51b815260206004820152600a60248201527f4e4f545f50415553454400000000000000000000000000000000000000000000604482015260640160405180910390fd5b6001600160a01b038116611f2b57600080fd5b604080518181526005918101919091527f746f6b656e00000000000000000000000000000000000000000000000000000060608201526001600160a01b0382166020820152600080516020614caa8339815191529060800161126b565b3360009081526032602052604090205460ff16611fa457600080fd5b6001600160a01b03841660008181526022602090815260408083208784528252808320868452825280832093835260238252808320878452825280832086845290915281206007830154909103611ffc575050611b56565b60089091018290554360039091015550505050565b3360009081526032602052604090205460ff1661202d57600080fd5b600081815260296020908152604091829020845181546001600160a01b03199081166001600160a01b03928316178355928601516001808401919091559386015160028301805490941691161790915560608401516003808301919091556080850151600483015560a085015160058301805487959293919260ff199091169184908111156120be576120be6146c9565b021790555050505050565b60606027805480602002602001604051908101604052809291908181526020016000905b828210156121af576000848152602090819020604080516101a081018252600d860290920180546001600160a01b03168352600180820154848601526002820154928401929092526003810154606084015260048101546080840152600581015460ff16151560a0840152600681015460c0840152600781015460e084015260088101546101008401526009810154610120840152600a810154610140840152600b810154610160840152600c015461018083015290835290920191016120ed565b50505050905090565b6017546001600160a01b031633146121cf57600080fd5b600081116121dc57600080fd5b600c819055604080518181526011918101919091527f6d6178547261646573506572426c6f636b0000000000000000000000000000006060820152602081018290527f8cf3e35f6221b16e1670a3413180c9484bf5aa71787905909fa82a6a2662e9ab9060800161126b565b3360009081526032602052604090205460ff1661226457600080fd5b6001600160a01b038316600081815260226020908152604080832086845282528083208584528252808320938352602382528083208684528252808320858452909152812060078301549091036122bc575050505050565b600281015460068301546122d791869160009060ff166140a4565b6001600160a01b0385166000908152602460209081526040808320878452909152902054600103612444576001600160a01b0385166000908152602e60209081526040808320878452825280832054602d9092529091208054819061233e90600190614bf4565b8154811061234e5761234e614b30565b9060005260206000200160009054906101000a90046001600160a01b031681838154811061237e5761237e614b30565b9060005260206000200160006101000a8154816001600160a01b0302191690836001600160a01b0316021790555081602e60008385815481106123c3576123c3614b30565b60009182526020808320909101546001600160a01b03908116845283820194909452604092830182208b8352815282822094909455918a168252602e835280822089835290925290812055805481908061241f5761241f614c0b565b600082815260209020810160001990810180546001600160a01b031916905501905550505b6001600160a01b03851660008181526022602090815260408083208884528252808320878452825280832080546001600160a01b03191681556001808201859055600280830186905560038084018790556004808501889055600580860189905560068601805460ff19908116909155600787018a9055600887018a90556009909601899055898952602388528689208e8a5288528689208d8a5288528689208981559485018990559284018890559083018790558201869055018054909116905592825260248152828220878352905290812080549161252483614c21565b909155505043600090815260306020526040812080549161254483614ba5565b91905055505050505050565b3360009081526032602052604090205460ff1661256c57600080fd5b6001600160a01b038416600081815260226020908152604080832087845282528083208684528252808320938352602382528083208784528252808320868452909152812060078301549091036125c4575050611b56565b60099091018290554360049091015550505050565b6017546001600160a01b031633146125f057600080fd5b6001600160a01b03811661260357600080fd5b600280546001600160a01b0319166001600160a01b038316908117909155604080518181526007918101919091527f74726164696e670000000000000000000000000000000000000000000000000060608201526020810191909152600080516020614caa8339815191529060800161126b565b3360009081526032602052604090205460ff1661269357600080fd5b61269e838383613be3565b15611874576001600160a01b03831660009081526025602090815260408083208584528252808320848452909152902054602780546126df90600190614bf4565b815481106126ef576126ef614b30565b90600052602060002090600d02016027828154811061271057612710614b30565b6000918252602082208354600d9092020180546001600160a01b0319166001600160a01b0390921691909117815560018084015490820155600280840154908201556003808401549082015560048084015490820155600580840154908201805460ff909216151560ff1990921691909117905560068084015490820155600780840154908201556008808401549082015560098084015490820155600a8084015490820155600b8084015490820155600c928301549201919091556027805483926025929091849081106127e7576127e7614b30565b60009182526020808320600d909202909101546001600160a01b031683528201929092526040018120602780549192918590811061282757612827614b30565b90600052602060002090600d020160010154815260200190815260200160002060006027848154811061285c5761285c614b30565b600091825260208083206002600d90930201919091015483528281019390935260409182018120939093556001600160a01b038716835260258252808320868452825280832085845290915281205560278054806128bc576128bc614c0b565b60008281526020808220600d6000199094019384020180546001600160a01b03191681556001810183905560028101839055600381018390556004810183905560058101805460ff1916905560068101839055600781018390556008810183905560098101839055600a8101839055600b8101839055600c01829055919092556001600160a01b0386168252602681526040808320868452909152812080549161296583614c21565b919050555050505050565b3360009081526032602052604090205460ff1661298c57600080fd5b6129ab61299c6020830183614382565b82602001358360400135613be3565b15612a8957600060276025826129c46020860186614382565b6001600160a01b0316815260208082019290925260409081016000908120868401358252835281812086830135825290925290205481548110612a0957612a09614b30565b90600052602060002090600d02019050816060013581600301819055508160a0016020810190612a399190614c38565b60058201805460ff191691151591909117905560c0820135600682015560e0820135600782015561010082013560088201556101208201356009820155610140820135600a82015543600b909101555b50565b612b02604051806101a0016040528060006001600160a01b0316815260200160008152602001600081526020016000815260200160008152602001600015158152602001600081526020016000815260200160008152602001600081526020016000815260200160008152602001600081525090565b612b0d848484613be3565b612b1657600080fd5b6001600160a01b03841660009081526025602090815260408083208684528252808320858452909152902054602780549091908110612b5757612b57614b30565b6000918252602091829020604080516101a081018252600d90930290910180546001600160a01b031683526001810154938301939093526002830154908201526003820154606082015260048201546080820152600582015460ff16151560a0820152600682015460c0820152600782015460e082015260088201546101008201526009820154610120820152600a820154610140820152600b820154610160820152600c9091015461018082015290505b9392505050565b602a6020528160005260406000208181548110612c2c57600080fd5b90600052602060002001600091509150505481565b3360009081526032602052604090205460ff16612c5d57600080fd5b612c6f826000015183602001516114ce565b604083810191825283516001600160a01b0390811660009081526022602090815283822081880180518452908252848320865184528252848320885181546001600160a01b031916951694851781558151600182015595516002870155606088015160038701556080880151600487015560a0880151600587015560c088015160068701805460ff191691151591909117905560e08801516007870155610100880151600887015561012088015160099096019590955591815260248252828120935181529290528120805491612d4583614ba5565b9091555050436000908152603060205260408120805491612d6583614ba5565b909155505081516001600160a01b03166000908152602460209081526040808320828601518452909152902054600103612e0557602082810180516000908152602d80845260408083205487516001600160a01b039081168552602e87528285208651865287528285209190915593518352908452812085518154600181018355918352939091200180546001600160a01b031916929091169190911790555b600060a0820181815283516001600160a01b031682526023602090815260408084208287018051865290835281852082880151865283529381902085518155918501516001808401919091559085015160028301819055606086015160038401556080860151600484015592516005909201805460ff191692151592909217909155915160c0850151612e9b93919291906140a4565b5050565b60208181548110612eaf57600080fd5b6000918252602090912001546001600160a01b0316905081565b3360009081526032602052604090205460ff16612ee557600080fd5b8251516001600160a01b039081166000908152602a602090815260408083208054600180820183559185528385200187905586845260288352928190208751805182546001600160a01b031916961695909517815591840151928201929092558282015160028201556060808401516003830155608080850151600484015560a080860151600585015560c086015160068501805460ff191691151591909117905560e08601516007850155610100860151600885015561012090950151600984015592870151600b830155860151600c82015590850151600d82015590840151600e82015543600a909101558015613017578251516001600160a01b03166000908152602b6020908152604080832086518301518452909152812080549161300d83614ba5565b9190505550505050565b8251516001600160a01b03166000908152602c6020908152604080832086518301518452909152812080549161304c83614ba5565b90915550508251516001600160a01b03166000908152602360209081526040808320865183015184528252808320865182015184529091529020600501805460ff19166001179055505050565b3360009081526032602052604090205460ff166130b557600080fd5b600082815260286020908152604080832081516102008101835281546001600160a01b031660c08201818152600184015460e08401526002840154610100840152600384015461012084015260048401546101408401526005840154610160840152600684015460ff16151561018084015260078401546101a084015260088401546101c084015260098401546101e08401528252600a83015482860152600b83015482850152600c8301546060830152600d8301546080830152600e9092015460a0820152908452602a909252822090915b815481101561338257848282815481106131a4576131a4614b30565b9060005260206000200154036133705783156131f9578251516001600160a01b03166000908152602b602090815260408083208651830151845290915281208054916131ef83614c21565b9190505550613274565b8251516001600160a01b03166000908152602c6020908152604080832086518301518452909152812080549161322e83614c21565b90915550508251516001600160a01b03166000908152602360209081526040808320865183015184528252808320865182015184529091529020600501805460ff191690555b8154829061328490600190614bf4565b8154811061329457613294614b30565b90600052602060002001548282815481106132b1576132b1614b30565b9060005260206000200181905550818054806132cf576132cf614c0b565b600082815260208082208301600019908101839055909201909255868252602890526040812080546001600160a01b0319168155600181018290556002810182905560038101829055600481018290556005810182905560068101805460ff19169055600781018290556008810182905560098101829055600a8101829055600b8101829055600c8101829055600d8101829055600e015550612e9b915050565b8061337a81614ba5565b915050613188565b5050505050565b6017546001600160a01b031633146133a057600080fd5b6001600160a01b0381166133b357600080fd5b601780546001600160a01b0319166001600160a01b038316908117909155604080518181526003918101919091526233b7bb60e91b60608201526020810191909152600080516020614caa8339815191529060800161126b565b3360009081526032602052604081205460ff1661342957600080fd5b600054604051630710f2ff60e51b8152600481018790526064916402540be400916001600160a01b039091169063e21e5fe090602401602060405180830381865afa15801561347c573d6000803e3d6000fd5b505050506040513d601f19601f820116820180604052508101906134a09190614bbe565b6134aa9087614c55565b6134b49190614c74565b6134be9190614c74565b9050816134d3576134d0600282614c74565b90505b821561350f5780601c60008282546134eb9190614b8d565b9250508190555080601a60008282546135049190614b8d565b909155506135409050565b80601b60008282546135219190614b8d565b92505081905550806019600082825461353a9190614b8d565b90915550505b61354b600282614c55565b95945050505050565b6017546001600160a01b0316331461356b57600080fd5b601b5460195461357b9190614b8d565b601e600082825461358c9190614b8d565b9091555050601754601c5460405163a9059cbb60e01b81526001600160a01b03928316600482015260248101919091527f00000000000000000000000000000000000000000000000000000000000000009091169063a9059cbb906044016020604051808303816000875af1158015613609573d6000803e3d6000fd5b505050506040513d601f19601f8201168201806040525081019061362d9190614bd7565b50601854601a5460405163a9059cbb60e01b81526001600160a01b03928316600482015260248101919091527f00000000000000000000000000000000000000000000000000000000000000009091169063a9059cbb906044016020604051808303816000875af11580156136a6573d6000803e3d6000fd5b505050506040513d601f19601f820116820180604052508101906136ca9190614bd7565b5060006019819055601b819055601a819055601c55565b3360009081526032602052604090205460ff166136fd57600080fd5b61370f816000015182602001516116e5565b604082019081524361016083019081526027805460018082018355600083905285517f98a476f1687bc3d60a2da2adbcba2c46958e61fa2fb4042cd7bc5816a710195b600d90930292830180546001600160a01b0319166001600160a01b0390921691909117905560208601517f98a476f1687bc3d60a2da2adbcba2c46958e61fa2fb4042cd7bc5816a710195c83015593517f98a476f1687bc3d60a2da2adbcba2c46958e61fa2fb4042cd7bc5816a710195d82015560608501517f98a476f1687bc3d60a2da2adbcba2c46958e61fa2fb4042cd7bc5816a710195e82015560808501517f98a476f1687bc3d60a2da2adbcba2c46958e61fa2fb4042cd7bc5816a710195f82015560a08501517f98a476f1687bc3d60a2da2adbcba2c46958e61fa2fb4042cd7bc5816a71019608201805460ff191691151591909117905560c08501517f98a476f1687bc3d60a2da2adbcba2c46958e61fa2fb4042cd7bc5816a710196182015560e08501517f98a476f1687bc3d60a2da2adbcba2c46958e61fa2fb4042cd7bc5816a71019628201556101008501517f98a476f1687bc3d60a2da2adbcba2c46958e61fa2fb4042cd7bc5816a71019638201556101208501517f98a476f1687bc3d60a2da2adbcba2c46958e61fa2fb4042cd7bc5816a71019648201556101408501517f98a476f1687bc3d60a2da2adbcba2c46958e61fa2fb4042cd7bc5816a710196582015591517f98a476f1687bc3d60a2da2adbcba2c46958e61fa2fb4042cd7bc5816a71019668301556101808401517f98a476f1687bc3d60a2da2adbcba2c46958e61fa2fb4042cd7bc5816a7101967909201919091555461397e9190614bf4565b81516001600160a01b039081166000908152602560209081526040808320828701805185529083528184208288015185528352818420959095558551909316825260268152828220935182529290925281208054916139dc83614ba5565b919050555050565b606060208054806020026020016040519081016040528092919081815260200182805480156118ab57602002820191906000526020600020905b81546001600160a01b03168152600190910190602001808311613a1e575050505050905090565b6017546001600160a01b03163314613a5c57600080fd5b6001600160a01b038116613a6f57600080fd5b601880546001600160a01b0319166001600160a01b03831690811790915560408051818152600391810191909152623232bb60e91b60608201526020810191909152600080516020614caa8339815191529060800161126b565b3360009081526032602052604090205460ff16613ae557600080fd5b80516001600160a01b03166000908152602260209081526040808320828501518452825280832081850151845290915281206007810154909103613b27575050565b606082015160038201556080820151600482015560a0820151600582015560e082015160079091015550565b6017546001600160a01b03163314613b6a57600080fd5b60008111613b7757600080fd5b600b819055604080518181526010918101919091527f6d617854726164657350657250616972000000000000000000000000000000006060820152602081018290527f8cf3e35f6221b16e1670a3413180c9484bf5aa71787905909fa82a6a2662e9ab9060800161126b565b6027546000908103613bf757506000612c09565b6001600160a01b03841660009081526025602090815260408083208684528252808320858452909152812054602780549091908110613c3857613c38614b30565b60009182526020909120600d9091020180549091506001600160a01b038681169116148015613c6a5750838160010154145b801561354b5750600201549091149392505050565b6017546001600160a01b03163314613c9657600080fd5b6011819055604080518181526012918101919091527f6e66745375636365737354696d656c6f636b00000000000000000000000000006060820152602081018290527f8cf3e35f6221b16e1670a3413180c9484bf5aa71787905909fa82a6a2662e9ab9060800161126b565b6017546001600160a01b03163314613d1957600080fd5b6000828152602f602052604090208190600201556040805160608082526012908201527f6d61784f70656e496e74657265737444616900000000000000000000000000006080820152602081018490529081018290527f957cd67ea49f3e1ee953cdd23a1ba1f11d973e842411220d5c24ef0e24e1c9569060a00160405180910390a15050565b602d6020528160005260406000208181548110613dbc57600080fd5b6000918252602090912001546001600160a01b03169150829050565b3360009081526032602052604090205460ff16613df457600080fd5b600154604051633104b73f60e21b8152600481018390526001600160a01b039091169063c412dcfc90602401600060405180830381600087803b158015613e3a57600080fd5b505af1158015613382573d6000803e3d6000fd5b6017546001600160a01b03163314613e6557600080fd5b60008111613e7257600080fd5b600d819055604080518181526016918101919091527f6d617850656e64696e674d61726b65744f7264657273000000000000000000006060820152602081018290527f8cf3e35f6221b16e1670a3413180c9484bf5aa71787905909fa82a6a2662e9ab9060800161126b565b6017546001600160a01b03163314613ef557600080fd5b803515801590613f09575080356020820135115b8015613f1c575060208101356040820135115b8015613f2f575060408101356060820135115b8015613f42575060608101356080820135115b613f4b57600080fd5b613f5860128260056141a5565b507fdaae5e047a75b6f38ad4e279cdefe910fc35d5a99a91b8303bd948c0a999372a8160405161126b9190614c96565b6017546001600160a01b03163314613f9f57600080fd5b6001600160a01b038116613fb257600080fd5b6001600160a01b038116600081815260326020908152604091829020805460ff1916600117905590519182527fb692fa98cbec9bd705572b4c7e0927e3f7698e9fe526dcef6f40f3d4d4980ca3910161126b565b6017546001600160a01b0316331461401d57600080fd5b6001600160a01b03811661403057600080fd5b600380546001600160a01b0319166001600160a01b038316908117909155604080518181526009918101919091527f63616c6c6261636b73000000000000000000000000000000000000000000000060608201526020810191909152600080516020614caa8339815191529060800161126b565b6000816140b25760016140b5565b60005b6000868152602f6020526040902060ff919091169150836140f457848183600381106140e3576140e3614b30565b01546140ef9190614bf4565b614113565b8481836003811061410757614107614b30565b01546141139190614b8d565b81836003811061412557614125614b30565b0155505050505050565b8260058101928215614177579160200282015b8281111561417757825182546001600160a01b0319166001600160a01b03909116178255602090920191600190910190614142565b506141839291506141d3565b5090565b6040518060a001604052806005906020820280368337509192915050565b8260058101928215614177579160200282015b828111156141775782358255916020019190600101906141b8565b5b8082111561418357600081556001016141d4565b634e487b7160e01b600052604160045260246000fd5b60405160c0810167ffffffffffffffff81118282101715614221576142216141e8565b60405290565b604051610140810167ffffffffffffffff81118282101715614221576142216141e8565b6040516101a0810167ffffffffffffffff81118282101715614221576142216141e8565b6001600160a01b0381168114612a8957600080fd5b600060a0828403121561429657600080fd5b82601f8301126142a557600080fd5b60405160a0810181811067ffffffffffffffff821117156142c8576142c86141e8565b6040528060a08401858111156142dd57600080fd5b845b818110156143005780356142f28161426f565b8352602092830192016142df565b509195945050505050565b60006020828403121561431d57600080fd5b5035919050565b803561432f8161426f565b919050565b6000806040838503121561434757600080fd5b82356143528161426f565b946020939093013593505050565b6000806040838503121561437357600080fd5b50508035926020909101359150565b60006020828403121561439457600080fd5b8135612c098161426f565b8015158114612a8957600080fd5b803561432f8161439f565b6000806000606084860312156143cd57600080fd5b83356143d88161426f565b92506020840135915060408401356143ef8161439f565b809150509250925092565b60a08101818360005b6005811015614422578151835260209283019290910190600101614403565b50505092915050565b6020808252825182820181905260009190848201906040850190845b8181101561446357835183529284019291840191600101614447565b50909695505050505050565b6020808252825182820181905260009190848201906040850190845b818110156144635783516001600160a01b03168352928401929184019160010161448b565b6000806000606084860312156144c557600080fd5b83356144d08161426f565b95602085013595506040909401359392505050565b6000806000606084860312156144fa57600080fd5b83356145058161426f565b925060208401356145158161426f565b929592945050506040919091013590565b6000806000806080858703121561453c57600080fd5b84356145478161426f565b966020860135965060408601359560600135945092505050565b60008082840360e081121561457557600080fd5b60c081121561458357600080fd5b5061458c6141fe565b83356145978161426f565b81526020848101359082015260408401356145b18161426f565b80604083015250606084013560608201526080840135608082015260a0840135600481106145de57600080fd5b60a08201529460c0939093013593505050565b80516001600160a01b031682526020810151602083015260408101516040830152606081015160608301526080810151608083015260a081015161463960a084018215159052565b5060c0818101519083015260e08082015190830152610100808201519083015261012080820151908301526101408082015190830152610160808201519083015261018090810151910152565b6020808252825182820181905260009190848201906040850190845b81811015614463576146b58385516145f1565b928401926101a092909201916001016146a2565b634e487b7160e01b600052602160045260246000fd5b6001600160a01b0387811682526020820187905285166040820152606081018490526080810183905260c081016004831061472a57634e487b7160e01b600052602160045260246000fd5b8260a0830152979650505050505050565b86516001600160a01b031681526101e081016020880151602083015260408801516040830152606088015160608301526080880151608083015260a088015160a083015260c088015161479260c084018215159052565b5060e08881015190830152610100808901519083015261012097880151978201979097526101408101959095526101608501939093526101808401919091526101a08301526101c09091015290565b60006101a082840312156147f457600080fd5b50919050565b6101a0810161480982846145f1565b92915050565b6000610140828403121561482257600080fd5b61482a614227565b905061483582614324565b81526020820135602082015260408201356040820152606082013560608201526080820135608082015260a082013560a082015261487560c083016143ad565b60c082015260e082013560e082015261010080830135818301525061012080830135818301525092915050565b6000808284036102008112156148b757600080fd5b6148c1858561480f565b925060c061013f19820112156148d657600080fd5b506148df6141fe565b6101408401358152610160840135602082015261018084013560408201526101a084013560608201526101c084013560808201526101e08401356149228161439f565b60a0820152919491935090915050565b600080600083850361022081121561494957600080fd5b6101e08082121561495957600080fd5b6149616141fe565b915061496d878761480f565b82526101408601356020830152610160860135604083015261018086013560608301526101a086013560808301526101c086013560a083015290935084013591506149bb61020085016143ad565b90509250925092565b600080604083850312156149d757600080fd5b8235915060208301356149e98161439f565b809150509250929050565b60008060008060808587031215614a0a57600080fd5b84359350602085013592506040850135614a238161439f565b91506060850135614a338161439f565b939692955090935050565b60006101a08284031215614a5157600080fd5b614a5961424b565b614a6283614324565b815260208301356020820152604083013560408201526060830135606082015260808301356080820152614a9860a084016143ad565b60a082015260c0838101359082015260e080840135908201526101008084013590820152610120808401359082015261014080840135908201526101608084013590820152610180928301359281019290925250919050565b60006101408284031215614b0457600080fd5b612c09838361480f565b600060a08284031215614b2057600080fd5b8260a0830111156147f457600080fd5b634e487b7160e01b600052603260045260246000fd5b60a08101818360005b60058110156144225781516001600160a01b0316835260209283019290910190600101614b4f565b634e487b7160e01b600052601160045260246000fd5b60008219821115614ba057614ba0614b77565b500190565b600060018201614bb757614bb7614b77565b5060010190565b600060208284031215614bd057600080fd5b5051919050565b600060208284031215614be957600080fd5b8151612c098161439f565b600082821015614c0657614c06614b77565b500390565b634e487b7160e01b600052603160045260246000fd5b600081614c3057614c30614b77565b506000190190565b600060208284031215614c4a57600080fd5b8135612c098161439f565b6000816000190483118215151615614c6f57614c6f614b77565b500290565b600082614c9157634e487b7160e01b600052601260045260246000fd5b500490565b60a081810190838337600081529291505056fe943e9d45a11aaae5d87503e3bc248665d9807856e5cf2bdb4a988bee44422781a2646970667358221220d2c0e149b842d4bd9befebfa85c7522529d4761c293bb144f547e4b6428b0c6b64736f6c634300080e0033",
  "devdoc": {
    "kind": "dev",
    "methods": {},
    "version": 1
  },
  "userdoc": {
    "kind": "user",
    "methods": {},
    "version": 1
  },
  "storageLayout": {
    "storage": [
      {
        "astId": 21,
        "contract": "contracts/GFarmTradingStorageV5.sol:GFarmTradingStorageV5",
        "label": "priceAggregator",
        "offset": 0,
        "slot": "0",
        "type": "t_contract(AggregatorInterfaceV5)2528"
      },
      {
        "astId": 24,
        "contract": "contracts/GFarmTradingStorageV5.sol:GFarmTradingStorageV5",
        "label": "pool",
        "offset": 0,
        "slot": "1",
        "type": "t_contract(PoolInterfaceV5)2579"
      },
      {
        "astId": 27,
        "contract": "contracts/GFarmTradingStorageV5.sol:GFarmTradingStorageV5",
        "label": "trading",
        "offset": 0,
        "slot": "2",
        "type": "t_contract(PausableInterfaceV5)2571"
      },
      {
        "astId": 30,
        "contract": "contracts/GFarmTradingStorageV5.sol:GFarmTradingStorageV5",
        "label": "callbacks",
        "offset": 0,
        "slot": "3",
        "type": "t_contract(PausableInterfaceV5)2571"
      },
      {
        "astId": 51,
        "contract": "contracts/GFarmTradingStorageV5.sol:GFarmTradingStorageV5",
        "label": "nfts",
        "offset": 0,
        "slot": "4",
        "type": "t_array(t_contract(NftInterfaceV5)2563)5_storage"
      },
      {
        "astId": 53,
        "contract": "contracts/GFarmTradingStorageV5.sol:GFarmTradingStorageV5",
        "label": "vault",
        "offset": 0,
        "slot": "9",
        "type": "t_address"
      },
      {
        "astId": 55,
        "contract": "contracts/GFarmTradingStorageV5.sol:GFarmTradingStorageV5",
        "label": "tokenDaiRouter",
        "offset": 0,
        "slot": "10",
        "type": "t_address"
      },
      {
        "astId": 58,
        "contract": "contracts/GFarmTradingStorageV5.sol:GFarmTradingStorageV5",
        "label": "maxTradesPerPair",
        "offset": 0,
        "slot": "11",
        "type": "t_uint256"
      },
      {
        "astId": 61,
        "contract": "contracts/GFarmTradingStorageV5.sol:GFarmTradingStorageV5",
        "label": "maxTradesPerBlock",
        "offset": 0,
        "slot": "12",
        "type": "t_uint256"
      },
      {
        "astId": 64,
        "contract": "contracts/GFarmTradingStorageV5.sol:GFarmTradingStorageV5",
        "label": "maxPendingMarketOrders",
        "offset": 0,
        "slot": "13",
        "type": "t_uint256"
      },
      {
        "astId": 67,
        "contract": "contracts/GFarmTradingStorageV5.sol:GFarmTradingStorageV5",
        "label": "maxGainP",
        "offset": 0,
        "slot": "14",
        "type": "t_uint256"
      },
      {
        "astId": 70,
        "contract": "contracts/GFarmTradingStorageV5.sol:GFarmTradingStorageV5",
        "label": "maxSlP",
        "offset": 0,
        "slot": "15",
        "type": "t_uint256"
      },
      {
        "astId": 73,
        "contract": "contracts/GFarmTradingStorageV5.sol:GFarmTradingStorageV5",
        "label": "defaultLeverageUnlocked",
        "offset": 0,
        "slot": "16",
        "type": "t_uint256"
      },
      {
        "astId": 76,
        "contract": "contracts/GFarmTradingStorageV5.sol:GFarmTradingStorageV5",
        "label": "nftSuccessTimelock",
        "offset": 0,
        "slot": "17",
        "type": "t_uint256"
      },
      {
        "astId": 86,
        "contract": "contracts/GFarmTradingStorageV5.sol:GFarmTradingStorageV5",
        "label": "spreadReductionsP",
        "offset": 0,
        "slot": "18",
        "type": "t_array(t_uint256)5_storage"
      },
      {
        "astId": 88,
        "contract": "contracts/GFarmTradingStorageV5.sol:GFarmTradingStorageV5",
        "label": "gov",
        "offset": 0,
        "slot": "23",
        "type": "t_address"
      },
      {
        "astId": 90,
        "contract": "contracts/GFarmTradingStorageV5.sol:GFarmTradingStorageV5",
        "label": "dev",
        "offset": 0,
        "slot": "24",
        "type": "t_address"
      },
      {
        "astId": 92,
        "contract": "contracts/GFarmTradingStorageV5.sol:GFarmTradingStorageV5",
        "label": "devFeesToken",
        "offset": 0,
        "slot": "25",
        "type": "t_uint256"
      },
      {
        "astId": 94,
        "contract": "contracts/GFarmTradingStorageV5.sol:GFarmTradingStorageV5",
        "label": "devFeesDai",
        "offset": 0,
        "slot": "26",
        "type": "t_uint256"
      },
      {
        "astId": 96,
        "contract": "contracts/GFarmTradingStorageV5.sol:GFarmTradingStorageV5",
        "label": "govFeesToken",
        "offset": 0,
        "slot": "27",
        "type": "t_uint256"
      },
      {
        "astId": 98,
        "contract": "contracts/GFarmTradingStorageV5.sol:GFarmTradingStorageV5",
        "label": "govFeesDai",
        "offset": 0,
        "slot": "28",
        "type": "t_uint256"
      },
      {
        "astId": 100,
        "contract": "contracts/GFarmTradingStorageV5.sol:GFarmTradingStorageV5",
        "label": "tokensBurned",
        "offset": 0,
        "slot": "29",
        "type": "t_uint256"
      },
      {
        "astId": 102,
        "contract": "contracts/GFarmTradingStorageV5.sol:GFarmTradingStorageV5",
        "label": "tokensMinted",
        "offset": 0,
        "slot": "30",
        "type": "t_uint256"
      },
      {
        "astId": 104,
        "contract": "contracts/GFarmTradingStorageV5.sol:GFarmTradingStorageV5",
        "label": "nftRewards",
        "offset": 0,
        "slot": "31",
        "type": "t_uint256"
      },
      {
        "astId": 208,
        "contract": "contracts/GFarmTradingStorageV5.sol:GFarmTradingStorageV5",
        "label": "supportedTokens",
        "offset": 0,
        "slot": "32",
        "type": "t_array(t_address)dyn_storage"
      },
      {
        "astId": 213,
        "contract": "contracts/GFarmTradingStorageV5.sol:GFarmTradingStorageV5",
        "label": "traders",
        "offset": 0,
        "slot": "33",
        "type": "t_mapping(t_address,t_struct(Trader)116_storage)"
      },
      {
        "astId": 222,
        "contract": "contracts/GFarmTradingStorageV5.sol:GFarmTradingStorageV5",
        "label": "openTrades",
        "offset": 0,
        "slot": "34",
        "type": "t_mapping(t_address,t_mapping(t_uint256,t_mapping(t_uint256,t_struct(Trade)137_storage)))"
      },
      {
        "astId": 231,
        "contract": "contracts/GFarmTradingStorageV5.sol:GFarmTradingStorageV5",
        "label": "openTradesInfo",
        "offset": 0,
        "slot": "35",
        "type": "t_mapping(t_address,t_mapping(t_uint256,t_mapping(t_uint256,t_struct(TradeInfo)150_storage)))"
      },
      {
        "astId": 237,
        "contract": "contracts/GFarmTradingStorageV5.sol:GFarmTradingStorageV5",
        "label": "openTradesCount",
        "offset": 0,
        "slot": "36",
        "type": "t_mapping(t_address,t_mapping(t_uint256,t_uint256))"
      },
      {
        "astId": 245,
        "contract": "contracts/GFarmTradingStorageV5.sol:GFarmTradingStorageV5",
        "label": "openLimitOrderIds",
        "offset": 0,
        "slot": "37",
        "type": "t_mapping(t_address,t_mapping(t_uint256,t_mapping(t_uint256,t_uint256)))"
      },
      {
        "astId": 251,
        "contract": "contracts/GFarmTradingStorageV5.sol:GFarmTradingStorageV5",
        "label": "openLimitOrdersCount",
        "offset": 0,
        "slot": "38",
        "type": "t_mapping(t_address,t_mapping(t_uint256,t_uint256))"
      },
      {
        "astId": 255,
        "contract": "contracts/GFarmTradingStorageV5.sol:GFarmTradingStorageV5",
        "label": "openLimitOrders",
        "offset": 0,
        "slot": "39",
        "type": "t_array(t_struct(OpenLimitOrder)177_storage)dyn_storage"
      },
      {
        "astId": 260,
        "contract": "contracts/GFarmTradingStorageV5.sol:GFarmTradingStorageV5",
        "label": "reqID_pendingMarketOrder",
        "offset": 0,
        "slot": "40",
        "type": "t_mapping(t_uint256,t_struct(PendingMarketOrder)191_storage)"
      },
      {
        "astId": 265,
        "contract": "contracts/GFarmTradingStorageV5.sol:GFarmTradingStorageV5",
        "label": "reqID_pendingNftOrder",
        "offset": 0,
        "slot": "41",
        "type": "t_mapping(t_uint256,t_struct(PendingNftOrder)205_storage)"
      },
      {
        "astId": 270,
        "contract": "contracts/GFarmTradingStorageV5.sol:GFarmTradingStorageV5",
        "label": "pendingOrderIds",
        "offset": 0,
        "slot": "42",
        "type": "t_mapping(t_address,t_array(t_uint256)dyn_storage)"
      },
      {
        "astId": 276,
        "contract": "contracts/GFarmTradingStorageV5.sol:GFarmTradingStorageV5",
        "label": "pendingMarketOpenCount",
        "offset": 0,
        "slot": "43",
        "type": "t_mapping(t_address,t_mapping(t_uint256,t_uint256))"
      },
      {
        "astId": 282,
        "contract": "contracts/GFarmTradingStorageV5.sol:GFarmTradingStorageV5",
        "label": "pendingMarketCloseCount",
        "offset": 0,
        "slot": "44",
        "type": "t_mapping(t_address,t_mapping(t_uint256,t_uint256))"
      },
      {
        "astId": 287,
        "contract": "contracts/GFarmTradingStorageV5.sol:GFarmTradingStorageV5",
        "label": "pairTraders",
        "offset": 0,
        "slot": "45",
        "type": "t_mapping(t_uint256,t_array(t_address)dyn_storage)"
      },
      {
        "astId": 293,
        "contract": "contracts/GFarmTradingStorageV5.sol:GFarmTradingStorageV5",
        "label": "pairTradersId",
        "offset": 0,
        "slot": "46",
        "type": "t_mapping(t_address,t_mapping(t_uint256,t_uint256))"
      },
      {
        "astId": 299,
        "contract": "contracts/GFarmTradingStorageV5.sol:GFarmTradingStorageV5",
        "label": "openInterestDai",
        "offset": 0,
        "slot": "47",
        "type": "t_mapping(t_uint256,t_array(t_uint256)3_storage)"
      },
      {
        "astId": 303,
        "contract": "contracts/GFarmTradingStorageV5.sol:GFarmTradingStorageV5",
        "label": "tradesPerBlock",
        "offset": 0,
        "slot": "48",
        "type": "t_mapping(t_uint256,t_uint256)"
      },
      {
        "astId": 307,
        "contract": "contracts/GFarmTradingStorageV5.sol:GFarmTradingStorageV5",
        "label": "nftLastSuccess",
        "offset": 0,
        "slot": "49",
        "type": "t_mapping(t_uint256,t_uint256)"
      },
      {
        "astId": 311,
        "contract": "contracts/GFarmTradingStorageV5.sol:GFarmTradingStorageV5",
        "label": "isTradingContract",
        "offset": 0,
        "slot": "50",
        "type": "t_mapping(t_address,t_bool)"
      }
    ],
    "types": {
      "t_address": {
        "encoding": "inplace",
        "label": "address",
        "numberOfBytes": "20"
      },
      "t_array(t_address)dyn_storage": {
        "base": "t_address",
        "encoding": "dynamic_array",
        "label": "address[]",
        "numberOfBytes": "32"
      },
      "t_array(t_contract(NftInterfaceV5)2563)5_storage": {
        "base": "t_contract(NftInterfaceV5)2563",
        "encoding": "inplace",
        "label": "contract NftInterfaceV5[5]",
        "numberOfBytes": "160"
      },
      "t_array(t_struct(OpenLimitOrder)177_storage)dyn_storage": {
        "base": "t_struct(OpenLimitOrder)177_storage",
        "encoding": "dynamic_array",
        "label": "struct GFarmTradingStorageV5.OpenLimitOrder[]",
        "numberOfBytes": "32"
      },
      "t_array(t_uint256)3_storage": {
        "base": "t_uint256",
        "encoding": "inplace",
        "label": "uint256[3]",
        "numberOfBytes": "96"
      },
      "t_array(t_uint256)5_storage": {
        "base": "t_uint256",
        "encoding": "inplace",
        "label": "uint256[5]",
        "numberOfBytes": "160"
      },
      "t_array(t_uint256)dyn_storage": {
        "base": "t_uint256",
        "encoding": "dynamic_array",
        "label": "uint256[]",
        "numberOfBytes": "32"
      },
      "t_bool": {
        "encoding": "inplace",
        "label": "bool",
        "numberOfBytes": "1"
      },
      "t_contract(AggregatorInterfaceV5)2528": {
        "encoding": "inplace",
        "label": "contract AggregatorInterfaceV5",
        "numberOfBytes": "20"
      },
      "t_contract(NftInterfaceV5)2563": {
        "encoding": "inplace",
        "label": "contract NftInterfaceV5",
        "numberOfBytes": "20"
      },
      "t_contract(PausableInterfaceV5)2571": {
        "encoding": "inplace",
        "label": "contract PausableInterfaceV5",
        "numberOfBytes": "20"
      },
      "t_contract(PoolInterfaceV5)2579": {
        "encoding": "inplace",
        "label": "contract PoolInterfaceV5",
        "numberOfBytes": "20"
      },
      "t_enum(LimitOrder)109": {
        "encoding": "inplace",
        "label": "enum GFarmTradingStorageV5.LimitOrder",
        "numberOfBytes": "1"
      },
      "t_mapping(t_address,t_array(t_uint256)dyn_storage)": {
        "encoding": "mapping",
        "key": "t_address",
        "label": "mapping(address => uint256[])",
        "numberOfBytes": "32",
        "value": "t_array(t_uint256)dyn_storage"
      },
      "t_mapping(t_address,t_bool)": {
        "encoding": "mapping",
        "key": "t_address",
        "label": "mapping(address => bool)",
        "numberOfBytes": "32",
        "value": "t_bool"
      },
      "t_mapping(t_address,t_mapping(t_uint256,t_mapping(t_uint256,t_struct(Trade)137_storage)))": {
        "encoding": "mapping",
        "key": "t_address",
        "label": "mapping(address => mapping(uint256 => mapping(uint256 => struct GFarmTradingStorageV5.Trade)))",
        "numberOfBytes": "32",
        "value": "t_mapping(t_uint256,t_mapping(t_uint256,t_struct(Trade)137_storage))"
      },
      "t_mapping(t_address,t_mapping(t_uint256,t_mapping(t_uint256,t_struct(TradeInfo)150_storage)))": {
        "encoding": "mapping",
        "key": "t_address",
        "label": "mapping(address => mapping(uint256 => mapping(uint256 => struct GFarmTradingStorageV5.TradeInfo)))",
        "numberOfBytes": "32",
        "value": "t_mapping(t_uint256,t_mapping(t_uint256,t_struct(TradeInfo)150_storage))"
      },
      "t_mapping(t_address,t_mapping(t_uint256,t_mapping(t_uint256,t_uint256)))": {
        "encoding": "mapping",
        "key": "t_address",
        "label": "mapping(address => mapping(uint256 => mapping(uint256 => uint256)))",
        "numberOfBytes": "32",
        "value": "t_mapping(t_uint256,t_mapping(t_uint256,t_uint256))"
      },
      "t_mapping(t_address,t_mapping(t_uint256,t_uint256))": {
        "encoding": "mapping",
        "key": "t_address",
        "label": "mapping(address => mapping(uint256 => uint256))",
        "numberOfBytes": "32",
        "value": "t_mapping(t_uint256,t_uint256)"
      },
      "t_mapping(t_address,t_struct(Trader)116_storage)": {
        "encoding": "mapping",
        "key": "t_address",
        "label": "mapping(address => struct GFarmTradingStorageV5.Trader)",
        "numberOfBytes": "32",
        "value": "t_struct(Trader)116_storage"
      },
      "t_mapping(t_uint256,t_array(t_address)dyn_storage)": {
        "encoding": "mapping",
        "key": "t_uint256",
        "label": "mapping(uint256 => address[])",
        "numberOfBytes": "32",
        "value": "t_array(t_address)dyn_storage"
      },
      "t_mapping(t_uint256,t_array(t_uint256)3_storage)": {
        "encoding": "mapping",
        "key": "t_uint256",
        "label": "mapping(uint256 => uint256[3])",
        "numberOfBytes": "32",
        "value": "t_array(t_uint256)3_storage"
      },
      "t_mapping(t_uint256,t_mapping(t_uint256,t_struct(Trade)137_storage))": {
        "encoding": "mapping",
        "key": "t_uint256",
        "label": "mapping(uint256 => mapping(uint256 => struct GFarmTradingStorageV5.Trade))",
        "numberOfBytes": "32",
        "value": "t_mapping(t_uint256,t_struct(Trade)137_storage)"
      },
      "t_mapping(t_uint256,t_mapping(t_uint256,t_struct(TradeInfo)150_storage))": {
        "encoding": "mapping",
        "key": "t_uint256",
        "label": "mapping(uint256 => mapping(uint256 => struct GFarmTradingStorageV5.TradeInfo))",
        "numberOfBytes": "32",
        "value": "t_mapping(t_uint256,t_struct(TradeInfo)150_storage)"
      },
      "t_mapping(t_uint256,t_mapping(t_uint256,t_uint256))": {
        "encoding": "mapping",
        "key": "t_uint256",
        "label": "mapping(uint256 => mapping(uint256 => uint256))",
        "numberOfBytes": "32",
        "value": "t_mapping(t_uint256,t_uint256)"
      },
      "t_mapping(t_uint256,t_struct(PendingMarketOrder)191_storage)": {
        "encoding": "mapping",
        "key": "t_uint256",
        "label": "mapping(uint256 => struct GFarmTradingStorageV5.PendingMarketOrder)",
        "numberOfBytes": "32",
        "value": "t_struct(PendingMarketOrder)191_storage"
      },
      "t_mapping(t_uint256,t_struct(PendingNftOrder)205_storage)": {
        "encoding": "mapping",
        "key": "t_uint256",
        "label": "mapping(uint256 => struct GFarmTradingStorageV5.PendingNftOrder)",
        "numberOfBytes": "32",
        "value": "t_struct(PendingNftOrder)205_storage"
      },
      "t_mapping(t_uint256,t_struct(Trade)137_storage)": {
        "encoding": "mapping",
        "key": "t_uint256",
        "label": "mapping(uint256 => struct GFarmTradingStorageV5.Trade)",
        "numberOfBytes": "32",
        "value": "t_struct(Trade)137_storage"
      },
      "t_mapping(t_uint256,t_struct(TradeInfo)150_storage)": {
        "encoding": "mapping",
        "key": "t_uint256",
        "label": "mapping(uint256 => struct GFarmTradingStorageV5.TradeInfo)",
        "numberOfBytes": "32",
        "value": "t_struct(TradeInfo)150_storage"
      },
      "t_mapping(t_uint256,t_uint256)": {
        "encoding": "mapping",
        "key": "t_uint256",
        "label": "mapping(uint256 => uint256)",
        "numberOfBytes": "32",
        "value": "t_uint256"
      },
      "t_struct(OpenLimitOrder)177_storage": {
        "encoding": "inplace",
        "label": "struct GFarmTradingStorageV5.OpenLimitOrder",
        "members": [
          {
            "astId": 152,
            "contract": "contracts/GFarmTradingStorageV5.sol:GFarmTradingStorageV5",
            "label": "trader",
            "offset": 0,
            "slot": "0",
            "type": "t_address"
          },
          {
            "astId": 154,
            "contract": "contracts/GFarmTradingStorageV5.sol:GFarmTradingStorageV5",
            "label": "pairIndex",
            "offset": 0,
            "slot": "1",
            "type": "t_uint256"
          },
          {
            "astId": 156,
            "contract": "contracts/GFarmTradingStorageV5.sol:GFarmTradingStorageV5",
            "label": "index",
            "offset": 0,
            "slot": "2",
            "type": "t_uint256"
          },
          {
            "astId": 158,
            "contract": "contracts/GFarmTradingStorageV5.sol:GFarmTradingStorageV5",
            "label": "positionSize",
            "offset": 0,
            "slot": "3",
            "type": "t_uint256"
          },
          {
            "astId": 160,
            "contract": "contracts/GFarmTradingStorageV5.sol:GFarmTradingStorageV5",
            "label": "spreadReductionP",
            "offset": 0,
            "slot": "4",
            "type": "t_uint256"
          },
          {
            "astId": 162,
            "contract": "contracts/GFarmTradingStorageV5.sol:GFarmTradingStorageV5",
            "label": "buy",
            "offset": 0,
            "slot": "5",
            "type": "t_bool"
          },
          {
            "astId": 164,
            "contract": "contracts/GFarmTradingStorageV5.sol:GFarmTradingStorageV5",
            "label": "leverage",
            "offset": 0,
            "slot": "6",
            "type": "t_uint256"
          },
          {
            "astId": 166,
            "contract": "contracts/GFarmTradingStorageV5.sol:GFarmTradingStorageV5",
            "label": "tp",
            "offset": 0,
            "slot": "7",
            "type": "t_uint256"
          },
          {
            "astId": 168,
            "contract": "contracts/GFarmTradingStorageV5.sol:GFarmTradingStorageV5",
            "label": "sl",
            "offset": 0,
            "slot": "8",
            "type": "t_uint256"
          },
          {
            "astId": 170,
            "contract": "contracts/GFarmTradingStorageV5.sol:GFarmTradingStorageV5",
            "label": "minPrice",
            "offset": 0,
            "slot": "9",
            "type": "t_uint256"
          },
          {
            "astId": 172,
            "contract": "contracts/GFarmTradingStorageV5.sol:GFarmTradingStorageV5",
            "label": "maxPrice",
            "offset": 0,
            "slot": "10",
            "type": "t_uint256"
          },
          {
            "astId": 174,
            "contract": "contracts/GFarmTradingStorageV5.sol:GFarmTradingStorageV5",
            "label": "block",
            "offset": 0,
            "slot": "11",
            "type": "t_uint256"
          },
          {
            "astId": 176,
            "contract": "contracts/GFarmTradingStorageV5.sol:GFarmTradingStorageV5",
            "label": "tokenId",
            "offset": 0,
            "slot": "12",
            "type": "t_uint256"
          }
        ],
        "numberOfBytes": "416"
      },
      "t_struct(PendingMarketOrder)191_storage": {
        "encoding": "inplace",
        "label": "struct GFarmTradingStorageV5.PendingMarketOrder",
        "members": [
          {
            "astId": 180,
            "contract": "contracts/GFarmTradingStorageV5.sol:GFarmTradingStorageV5",
            "label": "trade",
            "offset": 0,
            "slot": "0",
            "type": "t_struct(Trade)137_storage"
          },
          {
            "astId": 182,
            "contract": "contracts/GFarmTradingStorageV5.sol:GFarmTradingStorageV5",
            "label": "block",
            "offset": 0,
            "slot": "10",
            "type": "t_uint256"
          },
          {
            "astId": 184,
            "contract": "contracts/GFarmTradingStorageV5.sol:GFarmTradingStorageV5",
            "label": "wantedPrice",
            "offset": 0,
            "slot": "11",
            "type": "t_uint256"
          },
          {
            "astId": 186,
            "contract": "contracts/GFarmTradingStorageV5.sol:GFarmTradingStorageV5",
            "label": "slippageP",
            "offset": 0,
            "slot": "12",
            "type": "t_uint256"
          },
          {
            "astId": 188,
            "contract": "contracts/GFarmTradingStorageV5.sol:GFarmTradingStorageV5",
            "label": "spreadReductionP",
            "offset": 0,
            "slot": "13",
            "type": "t_uint256"
          },
          {
            "astId": 190,
            "contract": "contracts/GFarmTradingStorageV5.sol:GFarmTradingStorageV5",
            "label": "tokenId",
            "offset": 0,
            "slot": "14",
            "type": "t_uint256"
          }
        ],
        "numberOfBytes": "480"
      },
      "t_struct(PendingNftOrder)205_storage": {
        "encoding": "inplace",
        "label": "struct GFarmTradingStorageV5.PendingNftOrder",
        "members": [
          {
            "astId": 193,
            "contract": "contracts/GFarmTradingStorageV5.sol:GFarmTradingStorageV5",
            "label": "nftHolder",
            "offset": 0,
            "slot": "0",
            "type": "t_address"
          },
          {
            "astId": 195,
            "contract": "contracts/GFarmTradingStorageV5.sol:GFarmTradingStorageV5",
            "label": "nftId",
            "offset": 0,
            "slot": "1",
            "type": "t_uint256"
          },
          {
            "astId": 197,
            "contract": "contracts/GFarmTradingStorageV5.sol:GFarmTradingStorageV5",
            "label": "trader",
            "offset": 0,
            "slot": "2",
            "type": "t_address"
          },
          {
            "astId": 199,
            "contract": "contracts/GFarmTradingStorageV5.sol:GFarmTradingStorageV5",
            "label": "pairIndex",
            "offset": 0,
            "slot": "3",
            "type": "t_uint256"
          },
          {
            "astId": 201,
            "contract": "contracts/GFarmTradingStorageV5.sol:GFarmTradingStorageV5",
            "label": "index",
            "offset": 0,
            "slot": "4",
            "type": "t_uint256"
          },
          {
            "astId": 204,
            "contract": "contracts/GFarmTradingStorageV5.sol:GFarmTradingStorageV5",
            "label": "orderType",
            "offset": 0,
            "slot": "5",
            "type": "t_enum(LimitOrder)109"
          }
        ],
        "numberOfBytes": "192"
      },
      "t_struct(Trade)137_storage": {
        "encoding": "inplace",
        "label": "struct GFarmTradingStorageV5.Trade",
        "members": [
          {
            "astId": 118,
            "contract": "contracts/GFarmTradingStorageV5.sol:GFarmTradingStorageV5",
            "label": "trader",
            "offset": 0,
            "slot": "0",
            "type": "t_address"
          },
          {
            "astId": 120,
            "contract": "contracts/GFarmTradingStorageV5.sol:GFarmTradingStorageV5",
            "label": "pairIndex",
            "offset": 0,
            "slot": "1",
            "type": "t_uint256"
          },
          {
            "astId": 122,
            "contract": "contracts/GFarmTradingStorageV5.sol:GFarmTradingStorageV5",
            "label": "index",
            "offset": 0,
            "slot": "2",
            "type": "t_uint256"
          },
          {
            "astId": 124,
            "contract": "contracts/GFarmTradingStorageV5.sol:GFarmTradingStorageV5",
            "label": "initialPosToken",
            "offset": 0,
            "slot": "3",
            "type": "t_uint256"
          },
          {
            "astId": 126,
            "contract": "contracts/GFarmTradingStorageV5.sol:GFarmTradingStorageV5",
            "label": "positionSizeDai",
            "offset": 0,
            "slot": "4",
            "type": "t_uint256"
          },
          {
            "astId": 128,
            "contract": "contracts/GFarmTradingStorageV5.sol:GFarmTradingStorageV5",
            "label": "openPrice",
            "offset": 0,
            "slot": "5",
            "type": "t_uint256"
          },
          {
            "astId": 130,
            "contract": "contracts/GFarmTradingStorageV5.sol:GFarmTradingStorageV5",
            "label": "buy",
            "offset": 0,
            "slot": "6",
            "type": "t_bool"
          },
          {
            "astId": 132,
            "contract": "contracts/GFarmTradingStorageV5.sol:GFarmTradingStorageV5",
            "label": "leverage",
            "offset": 0,
            "slot": "7",
            "type": "t_uint256"
          },
          {
            "astId": 134,
            "contract": "contracts/GFarmTradingStorageV5.sol:GFarmTradingStorageV5",
            "label": "tp",
            "offset": 0,
            "slot": "8",
            "type": "t_uint256"
          },
          {
            "astId": 136,
            "contract": "contracts/GFarmTradingStorageV5.sol:GFarmTradingStorageV5",
            "label": "sl",
            "offset": 0,
            "slot": "9",
            "type": "t_uint256"
          }
        ],
        "numberOfBytes": "320"
      },
      "t_struct(TradeInfo)150_storage": {
        "encoding": "inplace",
        "label": "struct GFarmTradingStorageV5.TradeInfo",
        "members": [
          {
            "astId": 139,
            "contract": "contracts/GFarmTradingStorageV5.sol:GFarmTradingStorageV5",
            "label": "tokenId",
            "offset": 0,
            "slot": "0",
            "type": "t_uint256"
          },
          {
            "astId": 141,
            "contract": "contracts/GFarmTradingStorageV5.sol:GFarmTradingStorageV5",
            "label": "tokenPriceDai",
            "offset": 0,
            "slot": "1",
            "type": "t_uint256"
          },
          {
            "astId": 143,
            "contract": "contracts/GFarmTradingStorageV5.sol:GFarmTradingStorageV5",
            "label": "openInterestDai",
            "offset": 0,
            "slot": "2",
            "type": "t_uint256"
          },
          {
            "astId": 145,
            "contract": "contracts/GFarmTradingStorageV5.sol:GFarmTradingStorageV5",
            "label": "tpLastUpdated",
            "offset": 0,
            "slot": "3",
            "type": "t_uint256"
          },
          {
            "astId": 147,
            "contract": "contracts/GFarmTradingStorageV5.sol:GFarmTradingStorageV5",
            "label": "slLastUpdated",
            "offset": 0,
            "slot": "4",
            "type": "t_uint256"
          },
          {
            "astId": 149,
            "contract": "contracts/GFarmTradingStorageV5.sol:GFarmTradingStorageV5",
            "label": "beingMarketClosed",
            "offset": 0,
            "slot": "5",
            "type": "t_bool"
          }
        ],
        "numberOfBytes": "192"
      },
      "t_struct(Trader)116_storage": {
        "encoding": "inplace",
        "label": "struct GFarmTradingStorageV5.Trader",
        "members": [
          {
            "astId": 111,
            "contract": "contracts/GFarmTradingStorageV5.sol:GFarmTradingStorageV5",
            "label": "leverageUnlocked",
            "offset": 0,
            "slot": "0",
            "type": "t_uint256"
          },
          {
            "astId": 113,
            "contract": "contracts/GFarmTradingStorageV5.sol:GFarmTradingStorageV5",
            "label": "referral",
            "offset": 0,
            "slot": "1",
            "type": "t_address"
          },
          {
            "astId": 115,
            "contract": "contracts/GFarmTradingStorageV5.sol:GFarmTradingStorageV5",
            "label": "referralRewardsTotal",
            "offset": 0,
            "slot": "2",
            "type": "t_uint256"
          }
        ],
        "numberOfBytes": "96"
      },
      "t_uint256": {
        "encoding": "inplace",
        "label": "uint256",
        "numberOfBytes": "32"
      }
    }
  }
}