{
  "_format": "hh-sol-artifact-1",
  "contractName": "VotingEscrow",
  "sourceName": "contracts/VotingEscrow.sol",
  "abi": [
    {
      "inputs": [
        {
          "internalType": "address",
          "name": "token_addr",
          "type": "address"
        },
        {
          "internalType": "uint256",
          "name": "min_time",
          "type": "uint256"
        }
      ],
      "stateMutability": "nonpayable",
      "type": "constructor"
    },
    {
      "anonymous": false,
      "inputs": [
        {
          "indexed": true,
          "internalType": "address",
          "name": "provider",
          "type": "address"
        },
        {
          "indexed": false,
          "internalType": "uint256",
          "name": "value",
          "type": "uint256"
        },
        {
          "indexed": true,
          "internalType": "uint256",
          "name": "locktime",
          "type": "uint256"
        },
        {
          "indexed": false,
          "internalType": "enum VotingEscrow.DepositType",
          "name": "deposit_type",
          "type": "uint8"
        },
        {
          "indexed": false,
          "internalType": "uint256",
          "name": "ts",
          "type": "uint256"
        }
      ],
      "name": "Deposit",
      "type": "event"
    },
    {
      "anonymous": false,
      "inputs": [
        {
          "indexed": true,
          "internalType": "address",
          "name": "previousOwner",
          "type": "address"
        },
        {
          "indexed": true,
          "internalType": "address",
          "name": "newOwner",
          "type": "address"
        }
      ],
      "name": "OwnershipTransferred",
      "type": "event"
    },
    {
      "anonymous": false,
      "inputs": [
        {
          "indexed": false,
          "internalType": "uint256",
          "name": "prevSupply",
          "type": "uint256"
        },
        {
          "indexed": false,
          "internalType": "uint256",
          "name": "supply",
          "type": "uint256"
        }
      ],
      "name": "Supply",
      "type": "event"
    },
    {
      "anonymous": false,
      "inputs": [
        {
          "indexed": true,
          "internalType": "address",
          "name": "provider",
          "type": "address"
        },
        {
          "indexed": false,
          "internalType": "uint256",
          "name": "value",
          "type": "uint256"
        },
        {
          "indexed": false,
          "internalType": "uint256",
          "name": "ts",
          "type": "uint256"
        }
      ],
      "name": "Withdraw",
      "type": "event"
    },
    {
      "inputs": [],
      "name": "MAXTIME",
      "outputs": [
        {
          "internalType": "uint256",
          "name": "",
          "type": "uint256"
        }
      ],
      "stateMutability": "view",
      "type": "function"
    },
    {
      "inputs": [],
      "name": "MINTIME",
      "outputs": [
        {
          "internalType": "uint256",
          "name": "",
          "type": "uint256"
        }
      ],
      "stateMutability": "view",
      "type": "function"
    },
    {
      "inputs": [
        {
          "internalType": "address",
          "name": "addr",
          "type": "address"
        }
      ],
      "name": "add_to_whitelist",
      "outputs": [],
      "stateMutability": "nonpayable",
      "type": "function"
    },
    {
      "inputs": [
        {
          "internalType": "address",
          "name": "addr",
          "type": "address"
        }
      ],
      "name": "balanceOf",
      "outputs": [
        {
          "internalType": "uint256",
          "name": "",
          "type": "uint256"
        }
      ],
      "stateMutability": "view",
      "type": "function"
    },
    {
      "inputs": [
        {
          "internalType": "address",
          "name": "addr",
          "type": "address"
        },
        {
          "internalType": "uint256",
          "name": "_block",
          "type": "uint256"
        }
      ],
      "name": "balanceOfAt",
      "outputs": [
        {
          "internalType": "uint256",
          "name": "",
          "type": "uint256"
        }
      ],
      "stateMutability": "view",
      "type": "function"
    },
    {
      "inputs": [
        {
          "internalType": "address",
          "name": "addr",
          "type": "address"
        },
        {
          "internalType": "uint256",
          "name": "_t",
          "type": "uint256"
        }
      ],
      "name": "balanceOfAtT",
      "outputs": [
        {
          "internalType": "uint256",
          "name": "",
          "type": "uint256"
        }
      ],
      "stateMutability": "view",
      "type": "function"
    },
    {
      "inputs": [
        {
          "internalType": "address",
          "name": "_newController",
          "type": "address"
        }
      ],
      "name": "changeController",
      "outputs": [],
      "stateMutability": "nonpayable",
      "type": "function"
    },
    {
      "inputs": [],
      "name": "checkpoint",
      "outputs": [],
      "stateMutability": "nonpayable",
      "type": "function"
    },
    {
      "inputs": [
        {
          "internalType": "address",
          "name": "",
          "type": "address"
        }
      ],
      "name": "contracts_whitelist",
      "outputs": [
        {
          "internalType": "bool",
          "name": "",
          "type": "bool"
        }
      ],
      "stateMutability": "view",
      "type": "function"
    },
    {
      "inputs": [],
      "name": "controller",
      "outputs": [
        {
          "internalType": "address",
          "name": "",
          "type": "address"
        }
      ],
      "stateMutability": "view",
      "type": "function"
    },
    {
      "inputs": [
        {
          "internalType": "uint256",
          "name": "_value",
          "type": "uint256"
        },
        {
          "internalType": "uint256",
          "name": "_unlock_time",
          "type": "uint256"
        }
      ],
      "name": "create_lock",
      "outputs": [],
      "stateMutability": "nonpayable",
      "type": "function"
    },
    {
      "inputs": [],
      "name": "decimals",
      "outputs": [
        {
          "internalType": "uint8",
          "name": "",
          "type": "uint8"
        }
      ],
      "stateMutability": "view",
      "type": "function"
    },
    {
      "inputs": [
        {
          "internalType": "address",
          "name": "_addr",
          "type": "address"
        },
        {
          "internalType": "uint256",
          "name": "_value",
          "type": "uint256"
        }
      ],
      "name": "deposit_for",
      "outputs": [],
      "stateMutability": "nonpayable",
      "type": "function"
    },
    {
      "inputs": [],
      "name": "epoch",
      "outputs": [
        {
          "internalType": "uint256",
          "name": "",
          "type": "uint256"
        }
      ],
      "stateMutability": "view",
      "type": "function"
    },
    {
      "inputs": [
        {
          "internalType": "address",
          "name": "addr",
          "type": "address"
        }
      ],
      "name": "get_last_user_slope",
      "outputs": [
        {
          "internalType": "int128",
          "name": "",
          "type": "int128"
        }
      ],
      "stateMutability": "view",
      "type": "function"
    },
    {
      "inputs": [
        {
          "internalType": "uint256",
          "name": "_value",
          "type": "uint256"
        }
      ],
      "name": "increase_amount",
      "outputs": [],
      "stateMutability": "nonpayable",
      "type": "function"
    },
    {
      "inputs": [
        {
          "internalType": "uint256",
          "name": "_value",
          "type": "uint256"
        },
        {
          "internalType": "uint256",
          "name": "_unlock_time",
          "type": "uint256"
        }
      ],
      "name": "increase_amount_and_time",
      "outputs": [],
      "stateMutability": "nonpayable",
      "type": "function"
    },
    {
      "inputs": [
        {
          "internalType": "uint256",
          "name": "_unlock_time",
          "type": "uint256"
        }
      ],
      "name": "increase_unlock_time",
      "outputs": [],
      "stateMutability": "nonpayable",
      "type": "function"
    },
    {
      "inputs": [],
      "name": "initialize",
      "outputs": [],
      "stateMutability": "nonpayable",
      "type": "function"
    },
    {
      "inputs": [
        {
          "internalType": "address",
          "name": "",
          "type": "address"
        }
      ],
      "name": "locked",
      "outputs": [
        {
          "internalType": "int128",
          "name": "amount",
          "type": "int128"
        },
        {
          "internalType": "uint256",
          "name": "end",
          "type": "uint256"
        }
      ],
      "stateMutability": "view",
      "type": "function"
    },
    {
      "inputs": [
        {
          "internalType": "address",
          "name": "_addr",
          "type": "address"
        }
      ],
      "name": "locked__end",
      "outputs": [
        {
          "internalType": "uint256",
          "name": "",
          "type": "uint256"
        }
      ],
      "stateMutability": "view",
      "type": "function"
    },
    {
      "inputs": [],
      "name": "name",
      "outputs": [
        {
          "internalType": "string",
          "name": "",
          "type": "string"
        }
      ],
      "stateMutability": "view",
      "type": "function"
    },
    {
      "inputs": [],
      "name": "owner",
      "outputs": [
        {
          "internalType": "address",
          "name": "",
          "type": "address"
        }
      ],
      "stateMutability": "view",
      "type": "function"
    },
    {
      "inputs": [
        {
          "internalType": "uint256",
          "name": "",
          "type": "uint256"
        }
      ],
      "name": "point_history",
      "outputs": [
        {
          "internalType": "int128",
          "name": "bias",
          "type": "int128"
        },
        {
          "internalType": "int128",
          "name": "slope",
          "type": "int128"
        },
        {
          "internalType": "uint256",
          "name": "ts",
          "type": "uint256"
        },
        {
          "internalType": "uint256",
          "name": "blk",
          "type": "uint256"
        }
      ],
      "stateMutability": "view",
      "type": "function"
    },
    {
      "inputs": [
        {
          "internalType": "address",
          "name": "addr",
          "type": "address"
        }
      ],
      "name": "remove_from_whitelist",
      "outputs": [],
      "stateMutability": "nonpayable",
      "type": "function"
    },
    {
      "inputs": [],
      "name": "renounceOwnership",
      "outputs": [],
      "stateMutability": "nonpayable",
      "type": "function"
    },
    {
      "inputs": [
        {
          "internalType": "uint256",
          "name": "",
          "type": "uint256"
        }
      ],
      "name": "slope_changes",
      "outputs": [
        {
          "internalType": "int128",
          "name": "",
          "type": "int128"
        }
      ],
      "stateMutability": "view",
      "type": "function"
    },
    {
      "inputs": [],
      "name": "supply",
      "outputs": [
        {
          "internalType": "uint256",
          "name": "",
          "type": "uint256"
        }
      ],
      "stateMutability": "view",
      "type": "function"
    },
    {
      "inputs": [],
      "name": "symbol",
      "outputs": [
        {
          "internalType": "string",
          "name": "",
          "type": "string"
        }
      ],
      "stateMutability": "view",
      "type": "function"
    },
    {
      "inputs": [],
      "name": "token",
      "outputs": [
        {
          "internalType": "address",
          "name": "",
          "type": "address"
        }
      ],
      "stateMutability": "view",
      "type": "function"
    },
    {
      "inputs": [],
      "name": "totalSupply",
      "outputs": [
        {
          "internalType": "uint256",
          "name": "",
          "type": "uint256"
        }
      ],
      "stateMutability": "view",
      "type": "function"
    },
    {
      "inputs": [
        {
          "internalType": "uint256",
          "name": "_block",
          "type": "uint256"
        }
      ],
      "name": "totalSupplyAt",
      "outputs": [
        {
          "internalType": "uint256",
          "name": "",
          "type": "uint256"
        }
      ],
      "stateMutability": "view",
      "type": "function"
    },
    {
      "inputs": [
        {
          "internalType": "uint256",
          "name": "t",
          "type": "uint256"
        }
      ],
      "name": "totalSupplyAtT",
      "outputs": [
        {
          "internalType": "uint256",
          "name": "",
          "type": "uint256"
        }
      ],
      "stateMutability": "view",
      "type": "function"
    },
    {
      "inputs": [
        {
          "internalType": "address",
          "name": "newOwner",
          "type": "address"
        }
      ],
      "name": "transferOwnership",
      "outputs": [],
      "stateMutability": "nonpayable",
      "type": "function"
    },
    {
      "inputs": [],
      "name": "transfersEnabled",
      "outputs": [
        {
          "internalType": "bool",
          "name": "",
          "type": "bool"
        }
      ],
      "stateMutability": "view",
      "type": "function"
    },
    {
      "inputs": [],
      "name": "unlock",
      "outputs": [],
      "stateMutability": "nonpayable",
      "type": "function"
    },
    {
      "inputs": [],
      "name": "unlocked",
      "outputs": [
        {
          "internalType": "bool",
          "name": "",
          "type": "bool"
        }
      ],
      "stateMutability": "view",
      "type": "function"
    },
    {
      "inputs": [
        {
          "internalType": "address",
          "name": "",
          "type": "address"
        }
      ],
      "name": "user_point_epoch",
      "outputs": [
        {
          "internalType": "uint256",
          "name": "",
          "type": "uint256"
        }
      ],
      "stateMutability": "view",
      "type": "function"
    },
    {
      "inputs": [
        {
          "internalType": "address",
          "name": "",
          "type": "address"
        },
        {
          "internalType": "uint256",
          "name": "",
          "type": "uint256"
        }
      ],
      "name": "user_point_history",
      "outputs": [
        {
          "internalType": "int128",
          "name": "bias",
          "type": "int128"
        },
        {
          "internalType": "int128",
          "name": "slope",
          "type": "int128"
        },
        {
          "internalType": "uint256",
          "name": "ts",
          "type": "uint256"
        },
        {
          "internalType": "uint256",
          "name": "blk",
          "type": "uint256"
        }
      ],
      "stateMutability": "view",
      "type": "function"
    },
    {
      "inputs": [
        {
          "internalType": "address",
          "name": "_addr",
          "type": "address"
        },
        {
          "internalType": "uint256",
          "name": "_idx",
          "type": "uint256"
        }
      ],
      "name": "user_point_history__ts",
      "outputs": [
        {
          "internalType": "uint256",
          "name": "",
          "type": "uint256"
        }
      ],
      "stateMutability": "view",
      "type": "function"
    },
    {
      "inputs": [],
      "name": "version",
      "outputs": [
        {
          "internalType": "string",
          "name": "",
          "type": "string"
        }
      ],
      "stateMutability": "view",
      "type": "function"
    },
    {
      "inputs": [],
      "name": "withdraw",
      "outputs": [],
      "stateMutability": "nonpayable",
      "type": "function"
    },
    {
      "inputs": [
        {
          "internalType": "uint256",
          "name": "_value",
          "type": "uint256"
        },
        {
          "internalType": "uint256",
          "name": "_unlock_time",
          "type": "uint256"
        }
      ],
      "name": "withdraw_and_create_lock",
      "outputs": [],
      "stateMutability": "nonpayable",
      "type": "function"
    }
  ],
  "bytecode": "0x60c06040523480156200001157600080fd5b5060405162003307380380620033078339810160408190526200003491620000aa565b6200003f336200005a565b600180556001600160a01b0390911660a052608052620000e6565b600080546001600160a01b038381166001600160a01b0319831681178455604051919092169283917f8be0079c531659141344cd1fd0a4f28419497f9722a3daafe3b4186f6b6457e09190a35050565b60008060408385031215620000be57600080fd5b82516001600160a01b0381168114620000d657600080fd5b6020939093015192949293505050565b60805160a0516131e6620001216000396000818161076901528181611b030152611e0d0152600081816104ad0152611c5801526131e66000f3fe608060405234801561001057600080fd5b50600436106102e95760003560e01c8063715018a611610191578063bef97c87116100e3578063da020a1811610097578063f2fde38b11610071578063f2fde38b1461073e578063f77c479114610751578063fc0c546a1461076457600080fd5b8063da020a181461070d578063ee00ef3a14610720578063eff7a6121461072b57600080fd5b8063cbf9fe5f116100c8578063cbf9fe5f14610674578063d07b705f146106bc578063d1febfb9146106cf57600080fd5b8063bef97c8714610658578063c2c4c5c11461066c57600080fd5b806390fad1e611610145578063a69df4b51161011f578063a69df4b514610611578063ac25f26614610619578063adc635891461062c57600080fd5b806390fad1e6146105af57806395d89b41146105c2578063981b24d0146105fe57600080fd5b80638129fc1c116101765780638129fc1c146105795780638da5cb5b14610581578063900cf0cf146105a657600080fd5b8063715018a61461055e5780637c74a1741461056657600080fd5b80633cebb8231161024a57806365fc3873116101fe5780637116c60c116101d85780637116c60c1461050257806371197484146105155780637142a6a61461054b57600080fd5b806365fc3873146104cf5780636a5e2650146104e257806370a08231146104ef57600080fd5b80634ee2cd7e1161022f5780634ee2cd7e1461045957806354fd4d501461046c5780635b51c308146104a857600080fd5b80633cebb823146104335780634957677c1461044657600080fd5b806328d09d47116102a15780633617a204116102865780633617a204146103e55780633a46273e146104185780633ccfd60b1461042b57600080fd5b806328d09d4714610390578063313ce567146103cb57600080fd5b806306fdde03116102d257806306fdde031461032a57806318160ddd146103735780632371eb231461037b57600080fd5b8063010ae757146102ee578063047fc9aa14610321575b600080fd5b61030e6102fc366004612d97565b60086020526000908152604090205481565b6040519081526020015b60405180910390f35b61030e60025481565b6103666040518060400160405280601281526020017f566f74652d657363726f776564204b524156000000000000000000000000000081525081565b6040516103189190612dde565b61030e61078b565b61038e610389366004612e11565b61079b565b005b6103a361039e366004612e33565b6108be565b60408051600f95860b81529390940b6020840152928201526060810191909152608001610318565b6103d3601281565b60405160ff9091168152602001610318565b6104086103f3366004612d97565b600b6020526000908152604090205460ff1681565b6040519015158152602001610318565b61038e610426366004612e33565b610905565b61038e610aae565b61038e610441366004612d97565b610b13565b61038e610454366004612e5d565b610b59565b61030e610467366004612e33565b610c6d565b6103666040518060400160405280600581526020017f312e302e3000000000000000000000000000000000000000000000000000000081525081565b61030e7f000000000000000000000000000000000000000000000000000000000000000081565b61038e6104dd366004612e11565b610f63565b6003546104089060ff1681565b61030e6104fd366004612d97565b611067565b61030e610510366004612e5d565b611073565b610538610523366004612e5d565b600960205260009081526040902054600f0b81565b604051600f9190910b8152602001610318565b61038e610559366004612e11565b61107e565b61038e611238565b610538610574366004612d97565b61129e565b61038e6112eb565b6000546001600160a01b03165b6040516001600160a01b039091168152602001610318565b61030e60055481565b61038e6105bd366004612d97565b6113c5565b6103666040518060400160405280600681526020017f76654b524156000000000000000000000000000000000000000000000000000081525081565b61030e61060c366004612e5d565b611440565b61038e6115df565b61038e610627366004612d97565b611648565b61030e61063a366004612d97565b6001600160a01b031660009081526004602052604090206001015490565b600a5461040890600160a01b900460ff1681565b61038e6116c6565b6106a2610682366004612d97565b60046020526000908152604090208054600190910154600f9190910b9082565b60408051600f9390930b8352602083019190915201610318565b61030e6106ca366004612e33565b61174b565b6103a36106dd366004612e5d565b600660205260009081526040902080546001820154600290920154600f82810b93600160801b909304900b919084565b61030e61071b366004612e33565b61175e565b61030e630784ce0081565b61038e610739366004612e5d565b61179a565b61038e61074c366004612d97565b6118a7565b600a5461058e906001600160a01b031681565b61058e7f000000000000000000000000000000000000000000000000000000000000000081565b600061079642611989565b905090565b6002600154036107f25760405162461bcd60e51b815260206004820152601f60248201527f5265656e7472616e637947756172643a207265656e7472616e742063616c6c0060448201526064015b60405180910390fd5b600260015533321461085d57336000908152600b602052604090205460ff1661085d5760405162461bcd60e51b815260206004820152601a60248201527f536d61727420636f6e7472616374206e6f7420616c6c6f77656400000000000060448201526064016107e9565b60035460ff16156108a45760405162461bcd60e51b8152602060048201526011602482015270756e6c6f636b656420676c6f62616c6c7960781b60448201526064016107e9565b6108ac6119e9565b6108b68282611bad565b505060018055565b600760205281600052604060002081633b9aca0081106108dd57600080fd5b6003020180546001820154600290920154600f82810b9550600160801b90920490910b925084565b6002600154036109575760405162461bcd60e51b815260206004820152601f60248201527f5265656e7472616e637947756172643a207265656e7472616e742063616c6c0060448201526064016107e9565b600260015560035460ff16156109a35760405162461bcd60e51b8152602060048201526011602482015270756e6c6f636b656420676c6f62616c6c7960781b60448201526064016107e9565b6001600160a01b03821660009081526004602090815260409182902082518084019093528054600f0b83526001015490820152816109e057600080fd5b60008160000151600f0b13610a375760405162461bcd60e51b815260206004820152601660248201527f4e6f206578697374696e67206c6f636b20666f756e640000000000000000000060448201526064016107e9565b42816020015111610a965760405162461bcd60e51b8152602060048201526024808201527f43616e6e6f742061646420746f2065787069726564206c6f636b2e20576974686044820152636472617760e01b60648201526084016107e9565b610aa583836000846000611d49565b50506001805550565b600260015403610b005760405162461bcd60e51b815260206004820152601f60248201527f5265656e7472616e637947756172643a207265656e7472616e742063616c6c0060448201526064016107e9565b6002600155610b0d6119e9565b60018055565b600a546001600160a01b03163314610b2a57600080fd5b600a805473ffffffffffffffffffffffffffffffffffffffff19166001600160a01b0392909216919091179055565b600260015403610bab5760405162461bcd60e51b815260206004820152601f60248201527f5265656e7472616e637947756172643a207265656e7472616e742063616c6c0060448201526064016107e9565b6002600155333214610c1657336000908152600b602052604090205460ff16610c165760405162461bcd60e51b815260206004820152601a60248201527f536d61727420636f6e7472616374206e6f7420616c6c6f77656400000000000060448201526064016107e9565b60035460ff1615610c5d5760405162461bcd60e51b8152602060048201526011602482015270756e6c6f636b656420676c6f62616c6c7960781b60448201526064016107e9565b610c6681611ecd565b5060018055565b600043821115610c7c57600080fd5b6001600160a01b038316600090815260086020526040812054815b6080811015610d305781831015610d305760006002610cb68486612e8c565b610cc1906001612e8c565b610ccb9190612eba565b6001600160a01b0388166000908152600760205260409020909150869082633b9aca008110610cfc57610cfc612ece565b600302016002015411610d1157809350610d1f565b610d1c600182612ee4565b92505b50610d2981612efb565b9050610c97565b506001600160a01b038516600090815260076020526040812083633b9aca008110610d5d57610d5d612ece565b60408051608081018252600392909202929092018054600f81810b8452600160801b909104900b602083015260018101549282019290925260029091015460608201526005549091506000610db28783611fca565b600081815260066020908152604080832081516080810183528154600f81810b8352600160801b909104900b938101939093526001810154918301919091526002015460608201529192508084841015610e91576000600681610e16876001612e8c565b8152602080820192909252604090810160002081516080810183528154600f81810b8352600160801b909104900b93810193909352600181015491830191909152600201546060808301829052860151919250610e739190612ee4565b925083604001518160400151610e899190612ee4565b915050610eb5565b6060830151610ea09043612ee4565b9150826040015142610eb29190612ee4565b90505b60408301518215610ef2578284606001518c610ed19190612ee4565b610edb9084612f14565b610ee59190612eba565b610eef9082612e8c565b90505b6040870151610f019082612ee4565b8760200151610f109190612f33565b87518890610f1f908390612fda565b600f90810b90915288516000910b129050610f4f57505093516001600160801b03169650610f5d95505050505050565b600099505050505050505050505b92915050565b600260015403610fb55760405162461bcd60e51b815260206004820152601f60248201527f5265656e7472616e637947756172643a207265656e7472616e742063616c6c0060448201526064016107e9565b600260015533321461102057336000908152600b602052604090205460ff166110205760405162461bcd60e51b815260206004820152601a60248201527f536d61727420636f6e7472616374206e6f7420616c6c6f77656400000000000060448201526064016107e9565b60035460ff16156108ac5760405162461bcd60e51b8152602060048201526011602482015270756e6c6f636b656420676c6f62616c6c7960781b60448201526064016107e9565b6000610f5d8242612050565b6000610f5d82611989565b6002600154036110d05760405162461bcd60e51b815260206004820152601f60248201527f5265656e7472616e637947756172643a207265656e7472616e742063616c6c0060448201526064016107e9565b600260015533321461113b57336000908152600b602052604090205460ff1661113b5760405162461bcd60e51b815260206004820152601a60248201527f536d61727420636f6e7472616374206e6f7420616c6c6f77656400000000000060448201526064016107e9565b60035460ff16156111825760405162461bcd60e51b8152602060048201526011602482015270756e6c6f636b656420676c6f62616c6c7960781b60448201526064016107e9565b60008211806111915750600081115b6111e75760405162461bcd60e51b815260206004820152602160248201527f56616c756520616e6420556e6c6f636b2063616e6e6f7420626f7468206265206044820152600360fc1b60648201526084016107e9565b6000821180156111f75750600081115b156112135761120582611ecd565b61120e81612138565b6108b6565b600082118015611221575080155b1561122f5761120e82611ecd565b6108b681612138565b6000546001600160a01b031633146112925760405162461bcd60e51b815260206004820181905260248201527f4f776e61626c653a2063616c6c6572206973206e6f7420746865206f776e657260448201526064016107e9565b61129c60006122ed565b565b6001600160a01b0381166000908152600860209081526040808320546007909252822081633b9aca0081106112d5576112d5612ece565b6003020154600160801b9004600f0b9392505050565b6000805260066020527f54cdd369e4e8a8515e52ca72ec816c2101831ad1f18bf44102ed171459c9b4fa541561132057600080fd5b600080526006602052437f54cdd369e4e8a8515e52ca72ec816c2101831ad1f18bf44102ed171459c9b4fa55427f54cdd369e4e8a8515e52ca72ec816c2101831ad1f18bf44102ed171459c9b4f955600a80547fffffffffffffffffffffff00ffffffffffffffffffffffffffffffffffffffff33167fffffffffffffffffffffff00000000000000000000000000000000000000000090911617600160a01b179055565b6000546001600160a01b0316331461141f5760405162461bcd60e51b815260206004820181905260248201527f4f776e61626c653a2063616c6c6572206973206e6f7420746865206f776e657260448201526064016107e9565b6001600160a01b03166000908152600b60205260409020805460ff19169055565b60004382111561144f57600080fd5b600554600061145e8483611fca565b600081815260066020908152604080832081516080810183528154600f81810b8352600160801b909104900b938101939093526001810154918301919091526002015460608201529192508383101561156d5760006006816114c1866001612e8c565b8152602080820192909252604090810160002081516080810183528154600f81810b8352600160801b909104900b9381019390935260018101549183019190915260020154606080830182905285015191925014611567578260600151816060015161152d9190612ee4565b836040015182604001516115419190612ee4565b6060850151611550908a612ee4565b61155a9190612f14565b6115649190612eba565b91505b506115bc565b438260600151146115bc5760608201516115879043612ee4565b60408301516115969042612ee4565b60608401516115a59089612ee4565b6115af9190612f14565b6115b99190612eba565b90505b6115d5828284604001516115d09190612e8c565b61234a565b9695505050505050565b6000546001600160a01b031633146116395760405162461bcd60e51b815260206004820181905260248201527f4f776e61626c653a2063616c6c6572206973206e6f7420746865206f776e657260448201526064016107e9565b6003805460ff19166001179055565b6000546001600160a01b031633146116a25760405162461bcd60e51b815260206004820181905260248201527f4f776e61626c653a2063616c6c6572206973206e6f7420746865206f776e657260448201526064016107e9565b6001600160a01b03166000908152600b60205260409020805460ff19166001179055565b60035460ff161561170d5760405162461bcd60e51b8152602060048201526011602482015270756e6c6f636b656420676c6f62616c6c7960781b60448201526064016107e9565b61129c600060405180604001604052806000600f0b8152602001600081525060405180604001604052806000600f0b8152602001600081525061244b565b60006117578383612050565b9392505050565b6001600160a01b038216600090815260076020526040812082633b9aca00811061178a5761178a612ece565b6003020160010154905092915050565b6002600154036117ec5760405162461bcd60e51b815260206004820152601f60248201527f5265656e7472616e637947756172643a207265656e7472616e742063616c6c0060448201526064016107e9565b600260015533321461185757336000908152600b602052604090205460ff166118575760405162461bcd60e51b815260206004820152601a60248201527f536d61727420636f6e7472616374206e6f7420616c6c6f77656400000000000060448201526064016107e9565b60035460ff161561189e5760405162461bcd60e51b8152602060048201526011602482015270756e6c6f636b656420676c6f62616c6c7960781b60448201526064016107e9565b610c6681612138565b6000546001600160a01b031633146119015760405162461bcd60e51b815260206004820181905260248201527f4f776e61626c653a2063616c6c6572206973206e6f7420746865206f776e657260448201526064016107e9565b6001600160a01b03811661197d5760405162461bcd60e51b815260206004820152602660248201527f4f776e61626c653a206e6577206f776e657220697320746865207a65726f206160448201527f646472657373000000000000000000000000000000000000000000000000000060648201526084016107e9565b611986816122ed565b50565b600554600081815260066020908152604080832081516080810183528154600f81810b8352600160801b909104900b938101939093526001810154918301919091526002015460608201529091906119e1818561234a565b949350505050565b3360009081526004602090815260409182902082518084019093528054600f0b8084526001909101549183019190915260035460ff16611a77578160200151421015611a775760405162461bcd60e51b815260206004820152601660248201527f546865206c6f636b206469646e2774206578706972650000000000000000000060448201526064016107e9565b604080518082018252600080825260208083018281523383526004909152929020905181546fffffffffffffffffffffffffffffffff19166001600160801b039091161781559051600190910155600254611ad28282612ee4565b6002556040805180820190915260008082526020820152611af6903390859061244b565b611b2a6001600160a01b037f0000000000000000000000000000000000000000000000000000000000000000163384612ac3565b6040805183815242602082015233917ff279e6a1f5e320cca91135676d9cb6e44ca8a08c0b88342bcdb1144f6511b568910160405180910390a27f5e2aa66efd74cce82b21852e317e5490d9ecc9e6bb953ae24d90851258cc2f5c81611b908482612ee4565b6040805192835260208301919091520160405180910390a1505050565b60008211611bba57600080fd5b3360009081526004602090815260409182902082518084019093528054600f0b8084526001909101549183019190915215611c375760405162461bcd60e51b815260206004820152601960248201527f5769746864726177206f6c6420746f6b656e732066697273740000000000000060448201526064016107e9565b600062093a80611c478185612eba565b611c519190612f14565b9050611c7d7f000000000000000000000000000000000000000000000000000000000000000042612e8c565b811015611cd85760405162461bcd60e51b8152602060048201526024808201527f566f74696e67206c6f636b206d757374206265206174206c65617374204d494e60448201526354494d4560e01b60648201526084016107e9565b611ce6630784ce0042612e8c565b811115611d355760405162461bcd60e51b815260206004820152601e60248201527f566f74696e67206c6f636b2063616e2062652033207965617273206d6178000060448201526064016107e9565b611d43338583856001611d49565b50505050565b6002548290611d588682612e8c565b6002556040805180820190915260008082526020820152825160208085015190830152600f0b8152825187908490611d9190839061303c565b600f0b9052508515611da557602083018690525b6001600160a01b0388166000908152600460209081526040909120845181546fffffffffffffffffffffffffffffffff19166001600160801b0390911617815590840151600190910155611dfa88828561244b565b8615611e3557611e356001600160a01b037f00000000000000000000000000000000000000000000000000000000000000001689308a612b53565b8260200151886001600160a01b03167fbe9cf0e939c614fad640a623a53ba0a807c8cb503c4c4c8dacabe27b86ff2dd5898742604051611e779392919061309d565b60405180910390a37f5e2aa66efd74cce82b21852e317e5490d9ecc9e6bb953ae24d90851258cc2f5c82611eab8982612e8c565b6040805192835260208301919091520160405180910390a15050505050505050565b3360009081526004602090815260409182902082518084019093528054600f0b8352600101549082015281611f0157600080fd5b60008160000151600f0b13611f585760405162461bcd60e51b815260206004820152601660248201527f4e6f206578697374696e67206c6f636b20666f756e640000000000000000000060448201526064016107e9565b42816020015111611fb75760405162461bcd60e51b8152602060048201526024808201527f43616e6e6f742061646420746f2065787069726564206c6f636b2e20576974686044820152636472617760e01b60648201526084016107e9565b611fc633836000846002611d49565b5050565b60008082815b608081101561204657818310156120465760006002611fef8486612e8c565b611ffa906001612e8c565b6120049190612eba565b600081815260066020526040902060020154909150871061202757809350612035565b612032600182612ee4565b92505b5061203f81612efb565b9050611fd0565b5090949350505050565b6001600160a01b03821660009081526008602052604081205480820361207a576000915050610f5d565b6001600160a01b038416600090815260076020526040812082633b9aca0081106120a6576120a6612ece565b60408051608081018252600392909202929092018054600f81810b8452600160801b909104900b6020830152600181015492820183905260020154606082015291506120f290856130d3565b81602001516121019190612f33565b81518290612110908390612fda565b600f90810b90915282516000910b1215905061212b57600081525b51600f0b9150610f5d9050565b33600090815260046020908152604080832081518083019092528054600f0b825260010154918101919091529062093a806121738185612eba565b61217d9190612f14565b9050428260200151116121d25760405162461bcd60e51b815260206004820152600c60248201527f4c6f636b2065787069726564000000000000000000000000000000000000000060448201526064016107e9565b60008260000151600f0b136122295760405162461bcd60e51b815260206004820152601160248201527f4e6f7468696e67206973206c6f636b656400000000000000000000000000000060448201526064016107e9565b8160200151811161227c5760405162461bcd60e51b815260206004820152601f60248201527f43616e206f6e6c7920696e637265617365206c6f636b206475726174696f6e0060448201526064016107e9565b61228a630784ce0042612e8c565b8111156122d95760405162461bcd60e51b815260206004820152601e60248201527f566f74696e67206c6f636b2063616e2062652033207965617273206d6178000060448201526064016107e9565b6122e833600083856003611d49565b505050565b600080546001600160a01b0383811673ffffffffffffffffffffffffffffffffffffffff19831681178455604051919092169283917f8be0079c531659141344cd1fd0a4f28419497f9722a3daafe3b4186f6b6457e09190a35050565b600080839050600062093a808083604001516123669190612eba565b6123709190612f14565b905060005b60ff8110156124235761238b62093a8083612e8c565b915060008583111561239f578592506123b3565b50600082815260096020526040902054600f0b5b60408401516123c29084612ee4565b84602001516123d19190612f33565b845185906123e0908390612fda565b600f0b9052508583036123f35750612423565b8084602001818151612405919061303c565b600f0b905250506040830182905261241c81612efb565b9050612375565b5060008260000151600f0b121561243957600082525b50516001600160801b03169392505050565b60408051608081018252600080825260208201819052918101829052606081019190915260408051608081018252600080825260208201819052918101829052606081019190915260055460009081906001600160a01b038816156125bf574287602001511180156124c4575060008760000151600f0b135b156125095786516124da90630784ce009061312b565b600f0b6020808701919091528701516124f4904290612ee4565b85602001516125039190612f33565b600f0b85525b428660200151118015612523575060008660000151600f0b135b1561256857855161253990630784ce009061312b565b600f0b602080860191909152860151612553904290612ee4565b84602001516125629190612f33565b600f0b84525b602080880151600090815260098252604090205490870151600f9190910b9350156125bf5786602001518660200151036125a4578291506125bf565b602080870151600090815260099091526040902054600f0b91505b604080516080810182526000808252602082015242918101919091524360608201528115612634575060008181526006602090815260409182902082516080810184528154600f81810b8352600160801b909104900b9281019290925260018101549282019290925260029091015460608201525b6040810151606082015181906000428310156126875760408501516126599042612ee4565b60608601516126689043612ee4565b61267a90670de0b6b3a7640000612f14565b6126849190612eba565b90505b600062093a806126978187612eba565b6126a19190612f14565b905060005b60ff811015612811576126bc62093a8083612e8c565b91506000428311156126d0574292506126e4565b50600082815260096020526040902054600f0b5b6126ee8784612ee4565b88602001516126fd9190612f33565b8851899061270c908390612fda565b600f0b90525060208801805182919061272690839061303c565b600f90810b90915289516000910b1215905061274157600088525b60008860200151600f0b121561275957600060208901525b604088018390529195508591670de0b6b3a76400006127788785612ee4565b6127829086612f14565b61278c9190612eba565b6127969086612e8c565b60608901526127a660018a612e8c565b98504283036127bb5750436060880152612811565b6000898152600660209081526040918290208a51918b01516001600160801b03908116600160801b02921691909117815590890151600182015560608901516002909101555061280a81612efb565b90506126a6565b5060058790556001600160a01b038e16156128a4578a602001518a6020015161283a9190612fda565b8660200181815161284b919061303c565b600f0b9052508a518a5161285f9190612fda565b8651879061286e90839061303c565b600f90810b90915260208801516000910b1215905061288f57600060208701525b60008660000151600f0b12156128a457600086525b6000878152600660209081526040918290208851918901516001600160801b03908116600160801b02921691909117815590870151600182015560608701516002909101556001600160a01b038e1615612ab357428d60200151111561296d5760208b0151612913908a61303c565b98508c602001518c60200151036129365760208a0151612933908a612fda565b98505b60208d810151600090815260099091526040902080546fffffffffffffffffffffffffffffffff19166001600160801b038b161790555b428c6020015111156129d1578c602001518c6020015111156129d15760208a01516129989089612fda565b60208d810151600090815260099091526040902080546fffffffffffffffffffffffffffffffff19166001600160801b03831617905597505b6001600160a01b038e166000908152600860205260408120548f91906129f8906001612e8c565b90508060086000846001600160a01b03166001600160a01b0316815260200190815260200160002081905550428c6040018181525050438c60600181815250508b60076000846001600160a01b03166001600160a01b0316815260200190815260200160002082633b9aca008110612a7257612a72612ece565b825160208401516001600160801b03908116600160801b02911617600391909102919091019081556040820151600182015560609091015160029091015550505b5050505050505050505050505050565b6040516001600160a01b0383166024820152604481018290526122e890849063a9059cbb60e01b906064015b60408051601f198184030181529190526020810180517bffffffffffffffffffffffffffffffffffffffffffffffffffffffff167fffffffff0000000000000000000000000000000000000000000000000000000090931692909217909152612b8b565b6040516001600160a01b0380851660248301528316604482015260648101829052611d439085906323b872dd60e01b90608401612aef565b6000612be0826040518060400160405280602081526020017f5361666545524332303a206c6f772d6c6576656c2063616c6c206661696c6564815250856001600160a01b0316612c709092919063ffffffff16565b8051909150156122e85780806020019051810190612bfe9190613172565b6122e85760405162461bcd60e51b815260206004820152602a60248201527f5361666545524332303a204552433230206f7065726174696f6e20646964206e60448201527f6f7420737563636565640000000000000000000000000000000000000000000060648201526084016107e9565b60606119e1848460008585843b612cc95760405162461bcd60e51b815260206004820152601d60248201527f416464726573733a2063616c6c20746f206e6f6e2d636f6e747261637400000060448201526064016107e9565b600080866001600160a01b03168587604051612ce59190613194565b60006040518083038185875af1925050503d8060008114612d22576040519150601f19603f3d011682016040523d82523d6000602084013e612d27565b606091505b5091509150612d37828286612d42565b979650505050505050565b60608315612d51575081611757565b825115612d615782518084602001fd5b8160405162461bcd60e51b81526004016107e99190612dde565b80356001600160a01b0381168114612d9257600080fd5b919050565b600060208284031215612da957600080fd5b61175782612d7b565b60005b83811015612dcd578181015183820152602001612db5565b83811115611d435750506000910152565b6020815260008251806020840152612dfd816040850160208701612db2565b601f01601f19169190910160400192915050565b60008060408385031215612e2457600080fd5b50508035926020909101359150565b60008060408385031215612e4657600080fd5b612e4f83612d7b565b946020939093013593505050565b600060208284031215612e6f57600080fd5b5035919050565b634e487b7160e01b600052601160045260246000fd5b60008219821115612e9f57612e9f612e76565b500190565b634e487b7160e01b600052601260045260246000fd5b600082612ec957612ec9612ea4565b500490565b634e487b7160e01b600052603260045260246000fd5b600082821015612ef657612ef6612e76565b500390565b600060018201612f0d57612f0d612e76565b5060010190565b6000816000190483118215151615612f2e57612f2e612e76565b500290565b600081600f0b83600f0b6f7fffffffffffffffffffffffffffffff600082136000841383830485118282161615612f6c57612f6c612e76565b6f7fffffffffffffffffffffffffffffff196000851282811687830587121615612f9857612f98612e76565b60008712925085820587128484161615612fb457612fb4612e76565b85850587128184161615612fca57612fca612e76565b5050509290910295945050505050565b600081600f0b83600f0b60008112816f7fffffffffffffffffffffffffffffff190183128115161561300e5761300e612e76565b816f7fffffffffffffffffffffffffffffff01831381161561303257613032612e76565b5090039392505050565b600081600f0b83600f0b60008212826f7fffffffffffffffffffffffffffffff0382138115161561306f5761306f612e76565b826f7fffffffffffffffffffffffffffffff1903821281161561309457613094612e76565b50019392505050565b83815260608101600484106130c257634e487b7160e01b600052602160045260246000fd5b602082019390935260400152919050565b60008083128015600160ff1b8501841216156130f1576130f1612e76565b837f7fffffffffffffffffffffffffffffffffffffffffffffffffffffffffffffff01831381161561312557613125612e76565b50500390565b600081600f0b83600f0b8061314257613142612ea4565b6f7fffffffffffffffffffffffffffffff1982146000198214161561316957613169612e76565b90059392505050565b60006020828403121561318457600080fd5b8151801515811461175757600080fd5b600082516131a6818460208701612db2565b919091019291505056fea2646970667358221220533bd640454975b6c33a7c7c0b9a993b73b4daef394ca36b62ad8a21d9129ed964736f6c634300080e0033",
  "linkReferences": {},
  "deployedLinkReferences": {}
}